:100000000C9446010C9465010C9465010C946501F7
:100010000C9465010C9465010C9465010C946501C8
:100020000C9465010C9465010C9465010C946501B8
:100030000C94C30E0C9465010C9465010C9465013D
:100040000C9465010C9465010C9499160C94E416BB
:100050000C945D160C9465010C9465010C9465017B
:100060000C9465010C9465010C946C020C94650170
:100070000C9465010C9465010C9465010C94650168
:100080000C9465010C9465010C94650100C18140DC
:1000900001C0804101C0804100C1814001C0804158
:1000A00000C1814000C1814001C0804101C0804148
:1000B00000C1814000C1814001C0804100C1814038
:1000C00001C0804101C0804100C1814001C0804128
:1000D00000C1814000C1814001C0804100C1814018
:1000E00001C0804101C0804100C1814000C1814008
:1000F00001C0804101C0804100C1814001C08041F8
:1001000000C1814000C1814001C0804101C08041E7
:1001100000C1814000C1814001C0804100C18140D7
:1001200001C0804101C0804100C1814000C18140C7
:1001300001C0804101C0804100C1814001C08041B7
:1001400000C1814000C1814001C0804100C18140A7
:1001500001C0804101C0804100C1814001C0804197
:1001600000C1814000C1814001C0804101C0804187
:1001700000C1814000C1814001C0804100C1814077
:1001800001C0804101C0804100C1814000C0C10167
:10019000C30302C2C60607C705C5C404CC0C0DCDF7
:1001A0000FCFCE0E0ACACB0BC90908C8D81819D967
:1001B0001BDBDA1A1EDEDF1FDD1D1CDC14D4D51597
:1001C000D71716D6D21213D311D1D010F03031F187
:1001D00033F3F23236F6F737F53534F43CFCFD3DB7
:1001E000FF3F3EFEFA3A3BFB39F9F83828E8E929A7
:1001F000EB2B2AEAEE2E2FEF2DEDEC2CE42425E557
:1002000027E7E62622E2E323E12120E0A06061A1C6
:1002100063A3A26266A6A767A56564A46CACAD6D76
:10022000AF6F6EAEAA6A6BAB69A9A86878B8B979E6
:10023000BB7B7ABABE7E7FBF7DBDBC7CB47475B516
:1002400077B7B67672B2B373B17170B05090915106
:100250009353529296565797559594549C5C5D9D36
:100260005F9F9E5E5A9A9B5B995958988848498926
:100270004B8B8A4A4E8E8F4F8D4D4C8C44848545D6
:1002800087474686824243834181804011241FBEB6
:10029000CFEFD0E1DEBFCDBF11E0A0E0B1E0ECE7F1
:1002A000F1E300E00BBF02C007900D92A833B10745
:1002B000D9F717E0A8E3B1E001C01D92A131B10761
:1002C000E1F70E94B3030C94BC180C9400008091D9
:1002D000CC019091CD019093A7018093A601089540
:1002E000DC016115710541F1CA01860F971F863641
:1002F000910510F56150704012C0FB01EE0FFF1F19
:10030000EA58FD4F808191819C9380819181119663
:100310008C93119712966F5F7F4F4150504041155B
:10032000510559F78091CC019091CD019093A7018F
:100330008093A60180E0089581E00895CF93DF9334
:10034000EC016115710509F449C0CA01860F971FB8
:100350008636910508F042C0222319F02130F1F5CC
:1003600017C06150704010C0FB01EE0FFF1FE85531
:10037000FE4F80819181988380819181898322962B
:100380006F5F7F4F415050404115510569F71CC0C8
:100390006150704016C0B881A0E0FB01EE0FFF1F56
:1003A000E855FE4FB183A08320813181898190E09F
:1003B000282B392B3183208322966F5F7F4F41504A
:1003C00050404115510539F78091CC019091CD01F4
:1003D0009093A7018093A60180E001C081E0DF91A6
:1003E000CF9108950F931F93CF93DF93EC01A0E07B
:1003F000B0E001E010E032C0CD01E3E096958795D2
:10040000EA95E1F7FB01EA0FFB1F2081FE01E80FEF
:10041000F91F33E0880F991F3A95E1F7222371F015
:100420009D01281B390BC901980102C0220F331FFF
:100430008A95E2F7C9012081282B0EC09D01281B57
:10044000390BC901980102C0220F331F8A95E2F7C8
:10045000C90180952081282320831196A417B50710
:1004600058F2DF91CF911F910F9108950F931F9331
:1004700005E610E0F80180818B7F8083E4E6F0E000
:100480008081876080830E94001188B3816188BB6E
:1004900087B3816187BB129A1A980E94B8110E9493
:1004A00097110E9438110E94DA10F801808184604F
:1004B000808389EF90E0909387008093860010926C
:1004C0008B008BE080938A00EDE7F0E08081806113
:1004D00080831F910F9108951F920F920FB60F9274
:1004E0000BB60F9211242F933F934F935F936F930B
:1004F0007F938F939F93AF93BF93EF93FF938091DD
:10050000650021E0822780936500809174029091BC
:100510007502019690937502809374028091740223
:10052000909175020A9731F42093A10110927502FF
:1005300010927402809172029091730201969093CE
:1005400073028093720280917202909173028436DA
:10055000910539F481E08093A20110927302109208
:1005600072028091700290917102019690937102D3
:10057000809370028091700290917102885E934026
:1005800051F481E090E09093A4018093A301109234
:100590007102109270020E94FB158091CC01909123
:1005A000CD01892BA1F08091A6019091A701892B03
:1005B00051F08091A6019091A70101979093A70116
:1005C0008093A60106C081E08093A50102C010922D
:1005D000A501FF91EF91BF91AF919F918F917F9175
:1005E0006F915F914F913F912F910F900BBE0F90A4
:1005F0000FBE0F901F901895EF92FF920F931F93CD
:10060000CF93DF937C016115710551F1CA01860F0B
:10061000971F8636910520F5EA018B0101501040A5
:1006200012C0AE01C930D10514F048E050E08AE4B0
:1006300093E0B80150E00E94080DF70181937F011B
:100640002897085F1F4F1C161D065CF38091CC0194
:100650009091CD019093A7018093A60180E001C005
:1006600081E0DF91CF911F910F91FF90EF9008955E
:10067000EF92FF920F931F93CF93DF937C0161154D
:10068000710509F450C0CA01860F971F863691057F
:1006900008F049C0EA018B01015010402223B1F05B
:1006A000213009F040C016C0AE01C930D10514F0A8
:1006B00048E050E08EE393E0B80150E00E94080D5E
:1006C000F70181937F01085F1F4F28971C161D06B5
:1006D0005CF31FC08091CC019091CD019093A70154
:1006E0008093A60113C0F70121917F01AE01C930AB
:1006F000D10514F048E050E08EE393E0B80150E0FB
:1007000030E00E94CE0C085F1F4F28971C161D0674
:1007100054F38091CC019091CD019093A7018093E7
:10072000A60180E001C081E0DF91CF911F910F9180
:10073000FF90EF9008950F9360E072EC81E090E0FD
:1007400048E021E001E00E9413170F9108950F93F4
:1007500060E875E280E090E048E021E000E00E947F
:1007600013170F9108953F924F925F926F927F926D
:100770008F929F92AF92BF92CF92DF92EF92FF92B1
:100780000F931F93DF93CF93CDB7DEB728970FB6A4
:10079000F894DEBF0FBECDBFDE011696E0E0F1E0BB
:1007A00083E001900D928150E1F71D821C821A8234
:1007B0001B820E9436020E94DF1583E395E00E94AF
:1007C00033166BE0462E4092FD054092000688E409
:1007D00091E09093FF058093FE056CEF75E07093B8
:1007E000340560933305552453945092370558E0EF
:1007F000652E712C709236056092350585EE93E179
:10080000909343058093420585EA92E190934505D4
:10081000809344058BE596E190933B0580933A05E0
:1008200047E6842E41E0942E90923D0580923C054F
:1008300086E495E00E94331633E0332E30921C0597
:1008400010921F052AE0C22ED12CD0922105C09211
:1008500020058AEF95E090931E0580931D058BE19E
:1008600095E0909347058093460550924A05709213
:1008700049056092480597E1A92E94E1B92EB092FE
:100880005605A092550509EE12E110935805009304
:1008900057059092500580924F0586E495E00E949E
:1008A0001A1689E595E00E943316409224051092AD
:1008B0002705D0922905C092280585E0E82E86E01C
:1008C000F82EF0922605E092250583E295E09093BC
:1008D0005A058093590550925D05D0925C05C092EF
:1008E0005B05B0926905A092680510936B050093B3
:1008F0006A05909263058092620589E595E00E9401
:100900001A168CE695E00E9433163092F405109288
:10091000F7050CE0A02EB12CB092F905A092F805D5
:10092000F092F605E092F50583EF95E090936D0562
:1009300080936C055092700570926F0560926E0501
:1009400013E4E12E13E1F12EF0927C05E0927B0599
:100950000EE312E110937E0500937D0590927605DB
:10096000809275058CE695E00E941A168FE795E057
:100970000E9433164092FD0510920006B0920206C6
:10098000A092010683E096E09093FF058093FE0518
:100990008CEF95E09093800580937F0550928305BE
:1009A000D0928205C0928105F0928F05E0928E056B
:1009B0001093910500939005909289058092880587
:1009C0008FE795E00E941A1682E995E00E9433169F
:1009D00040922C058FE090E090932E0580932D059A
:1009E000CE0104969093300580932F051092320526
:1009F000109231058BE295E09093930580939205D8
:100A000050929605709295056092940589EA93E15B
:100A10009093A2058093A1058FE592E19093A405A0
:100A20008093A30590929C0580929B0582E995E0B6
:100A30000E941A16789411E000E0AA24A394B6E06C
:100A40004B2E512C4C0E5D1E8824839489E391E03B
:100A50000E9487102A8180914F01882319F080E03D
:100A600090E008C080914D0190E0882309F491E066
:100A70009A25892F282B2A832B8180915001882346
:100A800019F080E090E008C080914E0190E088234A
:100A900009F491E09A25892F282B2B838B818823B9
:100AA00029F48A8120E030E0882311F021E030E051
:100AB000298380913801809352018A818093530168
:100AC0008B81809354018091A501809355010E94F0
:100AD0000E11C82E112311F4801751F1CC2019F4F6
:100AE0000E94D51502C00E94D9150E94540F0E9481
:100AF000DC158823A1F46C2D40E000E012EC21E02D
:100B000030E0A2E0EA2E0E94F30F84E361E0A2014C
:100B100023E030E00E949E0C0E94450F09C060E077
:100B200072EC81E090E048E021E001E00E941317C0
:100B30008AE493E069E371E04AE250E00E94F20146
:100B40008091A101882381F01092A1018091560328
:100B50008F5F80935603823339F4809103068A2590
:100B600080930306109256038091A201882311F00E
:100B70001092A2018091A3019091A401892B21F0F0
:100B80001092A4011092A3010E94DC15882319F48D
:100B90000E94680F0BC080914003816080934003E6
:100BA000809138018C831D820E9467149091FA0510
:100BB0008091030681709E7F892B8093030680912C
:100BC000FB058093040680915101882339F08091C0
:100BD000A501882319F48981882329F080914C0389
:100BE0008E7F80934C0380915101882321F0809166
:100BF00069018823A9F480916B01882339F08981E8
:100C0000882321F48091A501882321F010923E03CE
:100C100010923F031D981092380140E050E006C04A
:100C20001D9A8091690180933801F7CFDA01A75AA4
:100C3000BE4F1C92242F26952695269530E0F9016B
:100C4000E25CFC4F808190E0F3E0220F331FFA95C5
:100C5000E1F7BA01621B730B062E02C095958795CA
:100C60000A94E2F780FDAC924F5F5F4F433151052C
:100C7000E9F680915101882321F080916A0188234F
:100C8000A1F080914F01882381F080914D0188234C
:100C900061F080915001882341F080914E018823BA
:100CA00021F01A821B821092A501A9E7B1E0E9E3C5
:100CB000F1E080E101900D928150E1F7ADE8B1E003
:100CC000E9E5F1E080E101900D928150E1F71A9998
:100CD00004C08091A501882319F080928C0102C084
:100CE00010928C01809138018093890180914D018F
:100CF00080939D0180914E0180939E018A81809313
:100D00009F018B818093A00189E791E00E944111AE
:100D100089E591E00E94DD100C2D10E097CE1F9325
:100D200080915803882321F0823021F010E006C022
:100D300080E001C081E00E94610D182F0E949D0E8D
:100D400081E080935803812F1F910895F89480E0EB
:100D500060E00E94740D0E949D0E789408951F9388
:100D600080915703882319F0813029F406C081E06F
:100D700060E00E94740D10E02AC080915B039091A6
:100D80005C03892BD1F0E0915903F0915A038081E3
:100D90000E94830E8091590390915A03019690937B
:100DA0005A038093590380915B0390915C030197F0
:100DB00090935C0380935B03DECF83E00E94610D20
:100DC000182F81E060E00E94740D10925703812F6C
:100DD0001F910895DF93CF930F92CDB7DEB7CE0169
:100DE00001960E94860E80915803813039F081303F
:100DF00098F18230B9F0833089F52EC010925E03ED
:100E000010925D0380915D0390915E032981FC0146
:100E1000E95FF94F2083019690935E0380935D0311
:100E200082E018C080915D0390915E038F3F910531
:100E300009F078F480915D0390915E032981FC01B3
:100E4000E95FF94F2083019690935E0380935D03E1
:100E500003C083E0809358030E948B0E80E00F90C4
:100E6000CF91DF910895F8941092580381E060E0EB
:100E70000E94740D0E948B0E789408951F93282F62
:100E8000F89410915803113011F085E041C0FB0136
:100E90003197F0935A03E093590381E090E09093E7
:100EA0005C0380935B03208380915B0390915C03E0
:100EB000840F951F90935C0380935B0360915B03A9
:100EC00070915C03CF010E943E0D20915B03309135
:100ED0005C03F901E95FF94F80832F5F3F4F309347
:100EE0005C0320935B0320915B0330915C03F90169
:100EF000E95FF94F90832F5F3F4F30935C0320935E
:100F00005B031093570380E061E00E94740D80E062
:100F100078941F910895EF92FF920F931F93CF93B0
:100F2000DF93EC017B018A01F89480915D0390913D
:100F30005E030497E0F060915D0370915E0387E0CB
:100F400096E00E943E0D892B91F4809107068883DC
:100F500080915D0390915E030397F80191838083F4
:100F600088E096E0F7019183808380E001C085E00E
:100F70007894DF91CF911F910F91FF90EF9008959A
:100F8000CF92DF92EF92FF920F93862F69017A0141
:100F9000F894BA01A90128E00E94880D813009F572
:100FA00081E0C8168BE4D80680E0E80680E0F80609
:100FB00028F083E290E0A0E0B0E00DC0CC0CDD1C96
:100FC000EE1CFF1C60EA7FE787E190E0A701960135
:100FD0000E949118C9010E94A70E813011F480E08F
:100FE00001C083E078940F91FF90EF90DF90CF9055
:100FF0000895CF93DF93DC01EA01F89480916103B7
:1010000090916203039738F140916103509162031C
:1010100090E020E030E007C0F901EA5FF94F8081FD
:10102000980F415050402F5F3F4F41155105A1F798
:10103000992389F4809107068C93809161039091A4
:10104000620302979983888388E096E0FB0191838D
:10105000808380E001C085E07894DF91CF9108958E
:10106000809160038150823010F4109260030E94DE
:101070009D0E80E008951F9380915F038230C9F038
:10108000833038F4882309F481C0813009F082C0AC
:1010900007C0833009F465C0843009F07BC069C0A3
:1010A0008AE30E94830E82E080935F0310926303C1
:1010B00071C08091660390916703892B09F44CC03D
:1010C00080916303882321F0813009F063C01AC046
:1010D000E0916403F0916503E081E295EF70EA30FE
:1010E00018F48E2F805D08C08E2F8A50863010F045
:1010F00080E302C08E2F895C0E94830E81E0809382
:10110000630348C0E0916403F0916503E081EF70F0
:10111000EA3018F48E2F805D08C08E2F8A508630FA
:1011200010F080E302C08E2F895C0E94830E8091B4
:101130006403909165030196909365038093640323
:1011400010926303809166039091670301979093D7
:101150006703809366031EC08DE00E94830E83E0C8
:1011600005C0809168030E94830E84E080935F0332
:1011700011C010925F0383E00E94610D182F81E07F
:1011800060E00E94740D10925F0305C081E060E092
:101190000E94740D10E0812F1F910895282FF8945C
:1011A00080916003882311F085E03AC0FB013197FC
:1011B000F0936503E093640381E090E0909367030C
:1011C0008093660320838091660390916703840F68
:1011D000951F909367038093660320916603309177
:1011E000670340E004C08191480F21503040211531
:1011F0003105C9F741958091660390916703FC0121
:10120000E95FF94F408301969093670380936603EB
:1012100081E080935F0380E061E00E94740D80E0D4
:1012200078940895F89480E060E00E94740D0E9424
:101230009D0E78940895F89481E060E00E94740D0A
:1012400010926003789480E00E94610D0895DF930E
:10125000CF930F92CDB7DEB7CE0101960E94860ED6
:1012600080916003813039F0813008F475C082309C
:1012700009F080C053C00E948B0E99819A3339F4D3
:1012800010926303109262031092610373C09D3049
:1012900011F482E06DC0292F20532A3040F0892FAD
:1012A0008154863010F02FEF02C0292F27538091F0
:1012B0006303882321F0813009F05CC01AC080915B
:1012C0006103909162038F3F910509F068F4E0910A
:1012D0006103F0916203E95FF94F2295207F20833B
:1012E00081E08093630346C0109260030E949D0ECC
:1012F00041C0E0916103F0916203E95FF94F8081A1
:10130000282B208380916103909162030196909332
:10131000620380936103109263032CC099818091D2
:101320006803981741F40E949D0E1092600381E0BB
:101330000E94610D20C09A3361F4109263031092F1
:1013400062031092610381E0809360030E948B0E20
:1013500011C0109260030EC089818A3359F40E9433
:101360008B0E10926203109261031092630381E06E
:101370008093600380E00F90CF91DF9108950F93E9
:10138000862FF8949AE090936803BA01A90127E0A8
:101390000E94880D813041F480E29EE40E94A70EF5
:1013A000813011F480E001C083E078940F910895BA
:1013B000CF93DF93FC01EB01888199810697C0F1FF
:1013C000A181B281938180E02481422F50E0482B9B
:1013D000592B3581CA0187709070BA0123E0769548
:1013E00067952A95E1F7892B19F0262F2F5F01C009
:1013F000262FCA010197805B9740D0F42317C1F4D0
:101400007A2F60E08B2F90E0682B792B6F5F7F4FF6
:10141000CF01069621E00E943803882319F00E942C
:101420002F0D07C085E090E09983888380E001C09C
:1014300083E0DF91CF910895DF93CF9300D0CDB7B4
:10144000DEB7DC01FB0180819181059761F5119682
:101450002C91119712963C91129714968C91149797
:10146000882309F513969C91892F81508E3FD8F0DF
:101470001A829F3F19F481E0898301C01982722F7B
:1014800060E0832F90E0682B792B6F5F7F4FCE0158
:10149000019641E050E021E00E943803882321F0CA
:1014A0000E942F0D01C083E00F900F90CF91DF912C
:1014B00008950F931F93CF93DF93FC01EB01888175
:1014C0009981059709F047C00181DF0112963281A9
:1014D000938180E02481422F50E0482B592BCA0190
:1014E00001978F5C9740B8F51982188281E080835C
:1014F00088819981019699838883CA018770907049
:10150000BA0113E0769567951A95E1F7892B19F0E2
:10151000162F1F5F01C0162F1183888199810196B4
:1015200099838883702F60E0832F90E0682B792B5C
:101530006F5F7F4FCD0120E00E943803882319F0B0
:101540000E942F0D09C088819981810F911D998377
:10155000888380E001C083E0DF91CF911F910F91DC
:1015600008950F931F93CF93DF93FC01EB018881C4
:101570009981059709F046C00181DF0112963281F9
:10158000938180E02481422F50E0482B592BCA01DF
:1015900001978F5C9740B0F51982188282E08083B2
:1015A00088819981019699838883CA018770907098
:1015B000BA0123E0769567952A95E1F7892B19F012
:1015C000162F1F5F01C0162F118388819981019604
:1015D00099838883702F60E0832F90E0682B792BAC
:1015E0006F5F7F4FCD010E94FC02882319F00E949B
:1015F0002F0D09C088819981810F911D998388835E
:1016000080E001C083E0DF91CF911F910F91089599
:101610008F929F92AF92BF92CF92DF92EF92FF9202
:101620000F931F93CF93DF93EC018B01FB0180811C
:1016300091810A9708F467C0898022E0A22EB12C1C
:10164000AC0EBD1E9A809B8180E02C81E22EFF248F
:10165000E82AF92AED81FE816F8128857985C70105
:1016600001978D37910508F053C0962F80E0422FE7
:1016700050E0482B592B4115510509F449C04A3710
:10168000510508F045C09A01220F331F872F90E0C3
:1016900028173907E9F57E2F60E08F2F90E0682B3F
:1016A000792B6F5F7F4FCE010A9621E00E949E0149
:1016B000882359F5F8011182108287E1888380819F
:1016C00091810196918380836701CC0CDD1CC982D6
:1016D00080819181019691838083782D60E0892DAE
:1016E00090E0682B792B6F5F7F4FC501A70120E049
:1016F0000E949E01882349F4F801808191818C0D1C
:101700009D1D9183808380E004C00E942F0D01C045
:1017100083E0DF91CF911F910F91FF90EF90DF90C9
:10172000CF90BF90AF909F908F9008950F931F938D
:10173000CF93DF93FC01EB01888199810597C1F577
:10174000B1819F012E5F3F4FA2818481482F50E0DD
:10175000CA0101978D37910558F51982188283E0E7
:101760008083888199810196998388838A01000FFB
:10177000111F0183888199810196998388837B2F2A
:1017800060E08A2F90E0682B792B6F5F7F4FC90153
:1017900020E00E949E01882319F00E942F0D09C0AD
:1017A00088819981800F911F9983888380E001C08F
:1017B00083E0DF91CF911F910F910895CF93DF9335
:1017C000FC01EB0188819981069760F13181A2814A
:1017D000938180E02481422F50E0482B592B2581B2
:1017E000CA01019788379105E8F4CA01880F991F4B
:1017F0002817C1F4732F60E08A2F90E0682B792BB3
:101800006F5F7F4FCF01069621E00E949E018823E3
:1018100019F00E942F0D07C085E090E0998388831E
:1018200080E001C083E0DF91CF910895DC01FB01EE
:1018300080819181059711F083E0089511967C9144
:10184000119760E012968C91129790E0682B792B9B
:101850006F5F7F4FCD01039641E050E021E00E9491
:101860009E01882311F00E942F0D0895FF920F937F
:101870001F93CF93DF93FC01EB018881998105973A
:10188000D1F5F180DF0112963281938180E02481CD
:10189000422F50E0482B592BCA0101978C379105F4
:1018A00050F51982188284E080838881998101969D
:1018B000998388838A01000F111F01838881998190
:1018C0000196998388837F2D60E0832F90E0682BB9
:1018D000792B6F5F7F4FCD010E947001882319F033
:1018E0000E942F0D09C088819981800F911F9983D3
:1018F000888380E001C083E0DF91CF911F910F9139
:10190000FF9008950F931F938B019C012F5F3F4F12
:10191000E9E6F3E04091890350918A03C901BF01D0
:101920000E94B3188091890390918A030196F8016F
:101930009183808380E01F910F910895CF93DF936F
:10194000E82FE901C9010296809710F084E023C0D6
:10195000E0936903662311F480E001C08FEF809368
:101960006A0382E090E090938A0380938903209732
:1019700089F02BE633E0C901BA01AE010E94B31829
:101980008091890390918A038C0F9D1F90938A0305
:101990008093890380E0DF91CF9108950F931F9387
:1019A000CF93DF9330E0DB0153E0B695A7955A95CE
:1019B000E1F767707070E1E0F0E002C0EE0FFF1F2A
:1019C0004A95E2F731978C010A0F1B1FE801488105
:1019D00050E01196A80FB91F9C9180E0482B592B1D
:1019E000062E02C0EE0FFF1F0A94E2F7E095F09575
:1019F0004E235F2302C0220F331F6A95E2F7422B6A
:101A0000532B48835C93DF91CF911F910F910895E1
:101A1000FB01B3E0F695E795BA95E1F7DC01AE0F6F
:101A2000BF1F2C9130E011969C9180E0822B932B6C
:101A3000A3E0EE0FFF1FAA95E1F76E1B7F0B02C01C
:101A4000969587956A95E2F721E030E002C0220F73
:101A5000331F4A95E2F721503040822308958130A8
:101A600029F0813028F0873039F404C082E00895ED
:101A700080E0089586E0089584E00895DC013FEF5A
:101A80002FEF11C08D91422F482750E0CA01845793
:101A90009F4FFC012491232744575E4FFA01849104
:101AA00061507040382F6115710561F7932F80E008
:101AB00030E0282B392BC901089510928C0381E066
:101AC000089591E090938C0380938B0381E00895B7
:101AD000FC0180918C03882331F080918B038083FB
:101AE00010928C0381E008959AB198649AB9882382
:101AF00019F08AB1806902C08AB18F768AB96623EB
:101B000029F08AB188628AB91A9A08955598089579
:101B1000CF92DF92EF92FF920F931F936A017B01A6
:101B2000122F403086E9580780E0680780E0780788
:101B300009F49FC0413086E9580780E0680780E0DB
:101B4000780708F040C0403885E2580780E0680711
:101B500080E0780709F481C0413885E2580780E0C9
:101B6000680780E0780798F4403689E0580780E0FD
:101B7000680780E0780709F46DC0403C82E15807AF
:101B800080E0680780E0780709F085C060C04030D9
:101B90008BE4580780E0680780E0780709F463C0A9
:101BA000403880E7580780E0680780E0780709F44C
:101BB0005DC0403488E3580780E0680780E078071C
:101BC00009F069C04DC0403084E8580783E06807D9
:101BD00080E0780709F471C0413084E8580783E059
:101BE000680780E07807D0F440308CE2580781E045
:101BF000680780E0780709F442C0403082EC58075B
:101C000081E0680780E07807E9F1403081EE58070D
:101C100080E0680780E07807F1F52EC0403281EA65
:101C2000580787E0680780E0780779F1403482E45C
:101C300058078FE0680780E0780751F1403980ED60
:101C4000580783E0680780E0780729F536C02FEC55
:101C500030E035C020EA31E032C027E630E02FC066
:101C600024E430E02CC023E330E029C022E230E05D
:101C700026C029E130E023C020E130E020C02CE084
:101C800030E01DC028E030E01AC021E030E017C08D
:101C900020E030E014C084E0CC0CDD1CEE1CFF1C06
:101CA0008A95D1F760E074E284EF90E0A701960195
:101CB0000E9491182150304002C023E030E0309360
:101CC000900029B9013031F0023011F480E203C0F4
:101CD00080E001C080E3173021F0183019F48660ED
:101CE00001C0846088608093950080E060E00E947D
:101CF000740D129A1A9881E01F910F91FF90EF9046
:101D0000DF90CF9008958CB981E00895FC018CB1EB
:101D1000808381E008951DBC1CBC20918D0330910F
:101D20008E032115310529F087B7806187BF3BBD40
:101D30002ABD8EB585608EBD08958EB58A7F8EBD15
:101D400087B78F7E87BF86B7806186BF0895A0E082
:101D5000B0E0BC01CD0129E03DE340E050E00E944D
:101D6000721820E23EE440E050E00E949118309367
:101D70008E0320938D031FBC1EBC10927A000E941C
:101D80009D0E81E008951F920F920FB60F920BB631
:101D90000F9211242F933F934F935F936F937F93F1
:101DA0008F939F93AF93BF93EF93FF93E0910907B6
:101DB000F0910A070995FF91EF91BF91AF919F9123
:101DC0008F917F916F915F914F913F912F910F90E4
:101DD0000BBE0F900FBE0F901F901895482F18162E
:101DE00014F082E00895F89461157105F9F0E5E0CA
:101DF000F1E080E090E0208131812115310519F07A
:101E00002617370769F4FC01EE0FFF1FE80FF91FD3
:101E1000EC5FFE4F408372836183409711F51FC0D2
:101E2000019633968031910531F719C0E4E0F1E075
:101E300020E030E08081841759F4F901EE0FFF1F94
:101E4000E20FF31FEC5FFE4F10821282118209C075
:101E50002F5F3F4F33962031310561F702C084E098
:101E600001C080E07894089580910301813011F0E1
:101E700086E00895E091A003F091A103309711F45A
:101E800080E00895099580E00895809103018130F4
:101E900011F086E00895E0919A03F0919B03099573
:101EA0001092030180E0089580910301882351F48A
:101EB000E0919C03F0919D03099581E080930301DB
:101EC00080E00895813011F086E0089580E0089563
:101ED000DF93CF930F92CDB7DEB7809103018823B4
:101EE00011F086E07CC0CE0101960E94680D813021
:101EF00009F074C09981913021F0923009F06EC0E0
:101F00001BC0E0919E03F0919F0383E993E064E995
:101F100073E040E953E00995882309F05FC0909190
:101F2000930380919603981719F0992309F056C0EE
:101F300082E00E94610D52C0A0919403B09195037C
:101F40003C913093920380938F03E4E0F1E080E0D2
:101F500090E020812223C1F0231789F4FC01EE0FC9
:101F6000FF1FE80FF91FEC5FFE4F0180F281E02DAB
:101F7000CD0160E973E0099580938F0305C0019658
:101F800033968031910529F780919303882331F1AD
:101F900090918F03992399F0E0919403F091950328
:101FA0008091920380688083E0919403F09195037F
:101FB000918382E090E090939103809390036091ED
:101FC0009403709195034091900350919103E09197
:101FD0009803F091990380919603099580E00F9002
:101FE000CF91DF910895EF92FF920F931F93F82EF8
:101FF000862F8150873F08F083C060939603FF20AF
:1020000029F081E0F81609F07BC036C083E397E041
:1020100090939B0380939A0386EA96E090939D03A6
:1020200080939C038EE397E09093990380939803A9
:102030008BE897E090939F0380939E031092A103F7
:102040001092A0038AEE96E090930C0780930B0702
:102050008FEA96E090930807809307078FE896E051
:1020600090930A0780930907862F642FA90198018E
:102070000E2D0E94C00735C08BE199E090939B0321
:1020800080939A0382E199E090939D0380939C034F
:102090008EEC98E0909399038093980389EF97E0F2
:1020A00090939F0380939E031092A1031092A0032C
:1020B00087E299E090930C0780930B078BE398E0FD
:1020C000909308078093070780E398E090930A07AE
:1020D00080930907862F642FA90198010E2D0E9475
:1020E000BF09182F882369F40E945D0D882311F41D
:1020F00013E007C0F092970381E08093030101C0D1
:1021000012E0812F1F910F91FF90EF900895DC0155
:1021100053B340B3FC0130E020E8822F8523908147
:10212000882311F0916001C09E7F9083822F8423C9
:102130009085882311F0916001C09E7F90873F5F5A
:102140003196383011F02695E8CF8091630084FFF6
:1021500005C081E054968C93549703C054961C920A
:1021600054978091630083FF05C081E055968C935E
:10217000559703C055961C9255970F9B05C081E05B
:1021800056968C93569703C056961C9256970B9B67
:1021900005C081E057968C93579703C057961C92C1
:1021A0005797B79B04C081E058968C930895589632
:1021B0001C92089514BA11BA0895FC0130E020E091
:1021C00040E090E8808180FD292B808580FD492BAF
:1021D0003F5F3196383011F09695F4CF2BBBC698FF
:1021E00000001E9800001E9A0000C69A4BBB1C9867
:1021F00000001E9800001E9A00001C9A1BBA089549
:102200001D9883B1806583B982B1806782B91BBA9A
:102210008FEF8ABBC69ABE9A1D9A089540E020E0CF
:1022200030E080916200887F80936200809162003C
:10223000822B8093620000000000000080B190E0DB
:1022400053E0969587955A95E1F781709070022E2C
:1022500002C0880F991F0A94E2F7482B0000000083
:1022600000002F5F3F4F28303105D9F6842F0895A5
:10227000E1E6F0E08081877F8083808187608083D2
:102280000895EF92FF920F931F93DF93CF9300D0A7
:1022900000D00F92CDB7DEB78C01FE01319685E0FC
:1022A000DF011D928A95E9F780E07F01482F60E108
:1022B00051E0869586959701280F311D942F9C5FDC
:1022C000A42FB0E0F801EA0FFB1F808180FF04C05B
:1022D000F9018081862B8083A00FB11F54968C91C9
:1022E00080FF04C0D9018C91852B8C934F5F4917D7
:1022F00019F0660F550FE4CF443111F0842FD6CF7B
:1023000089810E94C111CE01029664E070E00E94B2
:10231000CB11C59AC5980F900F900F900F900F900A
:10232000CF91DF911F910F91FF90EF900895DF9370
:10233000CF93CDB7DEB7A8970FB6F894DEBF0FBE28
:10234000CDBFFE01319688E2DF011D928A95E9F743
:10235000BD9ACF010E944111C59A0000C598A89668
:102360000FB6F894DEBF0FBECDBFCF91DF910895B9
:102370006E9906C0BA9AB99ABB9880E58DB9709AE1
:1023800008958FB9779BFECF08958FEF8FB9779B14
:10239000FECF8FB10895FC018191779BFECF8FB95D
:1023A00061507040C9F7779BFECF0895FC019FEF05
:1023B0009FB9779BFECF8FB1819361507040C1F779
:1023C000089583E58DB97098089580E58DB9709A68
:1023D0000895EF92FF920F931F937C01062F10E058
:1023E000B8010E943E0DBC019C013070F701E00F66
:1023F000F11F808190E02817390711F040E009C0F3
:1024000040E0272F3327818190E02817390709F40E
:1024100041E0842F1F910F91FF90EF9008950F934B
:102420001F93CF93DF938C01EA0170E060587F4FD8
:10243000898190E068177907D9F42530C9F4CA0179
:1024400063E070E00E943E0DAC019C0130708B8116
:1024500090E02817390761F4252F33278C8190E00D
:102460002817390729F48A81F801808381E001C0A7
:1024700080E0DF91CF911F910F910895CF93DF936B
:10248000FC01262FEA01908189819817A1F48181AE
:102490008F3059F4683079F4CF0166E00E94E91179
:1024A000882349F0188281E007C0CA016FE0AF01BC
:1024B0000E940F1201C080E0DF91CF9108950F9329
:1024C0001F93CF93DF938C01262FEA01DC019C91AF
:1024D00089819817A1F511968C91863051F5683055
:1024E00071F5C80166E00E94E911882341F14A8133
:1024F0005B81F801828190E0252F332782179307B3
:10250000F1F4838190E084179507C9F4EE81FF818F
:10251000309761F0D80114969C91149780E015963D
:102520002C9130E0822B932B91838083188281E061
:1025300007C0CA0166E0A8010E940F1201C080E036
:10254000DF91CF911F910F9108950F931F93CF9318
:10255000DF938C01262FEA01DC019C918981981779
:1025600091F511968C91853041F5683061F5C8017F
:1025700066E00E94E911882331F19E81F801828191
:10258000882309F583818917F1F485818823D9F49B
:10259000EC81FD81309771F0D80114968C918F3FBA
:1025A00011F481E08083F8018481882319F4EC819F
:1025B000FD811082188281E007C0CA0165E0A80190
:1025C0000E940F1201C080E0DF91CF911F910F9107
:1025D00008950F931F93CF93DF938C01262FEA0169
:1025E000FC0190818981981779F58181823031F5DC
:1025F0004F8130E0842F90E005962817390721F5A8
:102600004D5FC801642F0E94E9118823E9F08A8197
:102610009B81892B81F090E00BC0E92FF0E0AA812B
:10262000BB81AE0FBF1FE00FF11F83818C939F5FB3
:102630008F81981790F3188281E007C0CA0162E089
:10264000A8010E940F1201C080E0DF91CF911F917D
:102650000F910895EF92FF920F931F938C017B01CE
:10266000625070400E943E0DF801EE0DFF1D329742
:1026700081939083C8016E2D0E944D181F910F9178
:10268000FF90EF900895DF93CF93CDB7DEB7C4509E
:10269000D1400FB6F894DEBF0FBECDBFDC01AE0156
:1026A0004F5F5F4F84E091E0FA019C01119221504D
:1026B0003040E1F71C9211968C91119789838FE03D
:1026C0008A831B8214968C9114978C8316968C9116
:1026D00016978D8315968C9115978E8315962D914F
:1026E0003C911697C90153E0969587955A95E1F765
:1026F000682F90E043E0880F991F4A95E1F7821711
:10270000930708F46F5F6F83AE01485F5F4F20E06F
:1027100030E00CC01296ED91FC911397E20FF31F7D
:102720008081FA018193AF012F5F3F4F261790F30D
:1027300070E0675F7F4FCE0101960E942A13CC5F45
:10274000DE4F0FB6F894DEBF0FBECDBFCF91DF9145
:102750000895DF93CF93CDB7DEB728970FB6F894DF
:10276000DEBF0FBECDBFDC019E012F5F3F4F88E073
:10277000F90111928A95E9F71C9211968C911197A3
:10278000898386E08A8313968C9113978B831296A4
:102790008C9112978C831496ED91FC911597818101
:1027A0008D831496ED91FC91159780818E83C901DC
:1027B00068E070E00E942A1328960FB6F894DEBFF6
:1027C0000FBECDBFCF91DF910895DF93CF93CDB7EB
:1027D000DEB728970FB6F894DEBF0FBECDBFFC0161
:1027E0009E012F5F3F4F88E0D9011D928A95E9F73E
:1027F00010828181898385E08A831B8286818C8314
:102800000280F381E02D8081882311F08FEF8D838A
:10281000CE01019668E070E00E942A1328960FB658
:10282000F894DEBF0FBECDBFCF91DF910895DF9347
:10283000CF93CDB7DEB728970FB6F894DEBF0FBEA3
:10284000CDBFDC019E012F5F3F4F88E0F90111925F
:102850008A95E9F71C9215962D913C911697C9011E
:1028600073E0969587957A95E1F7482F17968C93A4
:10287000179790E063E0880F991F6A95E1F7821738
:10288000930720F44F5F17964C93179711968C91EE
:102890001197898382E08A831B8214968C91149706
:1028A0008C8316968C9116978D8315968C918E83BA
:1028B000CE01019668E070E00E942A1328960FB6B8
:1028C000F894DEBF0FBECDBFCF91DF910895809108
:1028D000A303882309F468C18091A203882309F423
:1028E00063C18091340190913501892B09F088C032
:1028F0008091A6038093A7038091A6038F5F8093A6
:10290000A6039091A6038091A303981740F010921C
:10291000A6038091650092E0892780936500E0918D
:10292000A703F0E0EE0FFF1FEB54FB4F8081918176
:10293000892B09F439C1E091A703F0E0EE0FFF1FE6
:10294000EB54FB4F0190F081E02D1582E091A7033D
:10295000F0E0EE0FFF1FEB54FB4FA081B181E0913F
:10296000A703F0E0EE0FFF1FEB54FB4F0190F08147
:10297000E02D1B962D913C911C9780819181F9014E
:102980000995E091A703F0E0EE0FFF1FEB54FB4F1A
:10299000A081B181E091A703F0E0EE0FFF1FEB549F
:1029A000FB4F0190F081E02D1F962D913C915097A7
:1029B00080819181F9010995E091A703F0E0EE0F84
:1029C000FF1FEB54FB4F0190F081E02D828193813A
:1029D0009093A5038093A403E091A703F0E0EE0F8A
:1029E000FF1FEB54FB4F0190F081E02D2091360149
:1029F00082819381820F911D9093350180933401E0
:102A00008091A4039091A503892B09F462C0809161
:102A1000A4039091A5039093A9038093A803E09148
:102A2000A703F0E0EE0FFF1FEB54FB4FA081B18135
:102A30006091B204E091A703F0E0EE0FFF1FEB54AA
:102A4000FB4F0190F081E02D408151815196ED9135
:102A5000FC9152978091B3049091B4040995882316
:102A600009F4A2C0E091A703F0E0EE0FFF1FEB54C2
:102A7000FB4FA081B181E091A703F0E0EE0FFF1FB3
:102A8000EB54FB4F0190F081E02D19962D913C9174
:102A90001A9780819181F9010995E091A703F0E0EF
:102AA000EE0FFF1FEB54FB4F0190F081E02D1682DB
:102AB000E091A703F0E0EE0FFF1FEB54FB4F0190F6
:102AC000F081E02D81E085831092A5031092A4038C
:102AD0000895E091A703F0E0EE0FFF1FEB54FB4FCA
:102AE000A081B181E091A703F0E0EE0FFF1FEB544E
:102AF000FB4F0190F081E02D1D962D913C911E978A
:102B000080819181F9010995E091A703F0E0EE0F32
:102B1000FF1FEB54FB4F0190F081E02D858188234E
:102B200009F042C0E091A703F0E0EE0FFF1FEB5465
:102B3000FB4F0190F081E02D82E08583E091A703B7
:102B4000F0E0EE0FFF1FEB54FB4F0190F081E02D02
:102B50008681853070F4E091A703F0E0EE0FFF1F4F
:102B6000EB54FB4F0190F081E02D86818F5F8683CF
:102B70000895E091A703F0E0EE0FFF1FEB54FB4F29
:102B8000A081B181E091A703F0E0EE0FFF1FEB54AD
:102B9000FB4F0190F081E02D17962D913C911897F5
:102BA00080819181F9010995089581E08093A203C4
:102BB00008951092A20308958091A203089510929F
:102BC000A2038AEA93E09093B0048093AF049093B9
:102BD000B4048093B3041092A30380E090E0FC015E
:102BE000EE0FFF1FEB54FB4F1182108201968233D0
:102BF0009105A9F708958091340190913501892BB1
:102C000049F08091340190913501019790933501FD
:102C1000809334018091A4039091A503892B49F0FE
:102C20008091A4039091A50301979093A5038093AD
:102C3000A4030895E091A303F0E0EE0FFF1FEB540F
:102C4000FB4F918380838091A3038F5F8093A303C5
:102C50008091A303833310F481E0089582E380938D
:102C6000A30380E00895FC011182108284E690E0C5
:102C70009383828314821682158289E596E1948774
:102C800083878AE596E19687858786E596E1908B2E
:102C9000878787E596E1928B818B8BE596E190871C
:102CA00087838CE596E1928781870895089581E076
:102CB000089508950895089508951F920F920FB6EC
:102CC0000F920BB60F9211248F939F93EF93FF9364
:102CD0008091A203882311F41A9820C08091AE0439
:102CE0008F5F8093AE049091AE048091B1049817E9
:102CF00059F08091AE04E091AF04F091B004E80F78
:102D0000F11D80818CB90AC01A988AB180698AB98C
:102D10001092B1048091B1048093AE04FF91EF91C1
:102D20009F918F910F900BBE0F900FBE0F901F9031
:102D300018951F920F920FB60F920BB60F92112497
:102D40002F933F934F935F936F937F938F939F93B3
:102D5000AF93BF93EF93FF93DF93CF930F92CDB7D2
:102D6000DEB78091A203882331F4E0910B07F09144
:102D70000C07099513C08CB189838091B2048091AE
:102D8000B204E091B304F091B404E80FF11D89811D
:102D900080838091B2048F5F8093B2040F90CF91B3
:102DA000DF91FF91EF91BF91AF919F918F917F91B3
:102DB0006F915F914F913F912F910F900BBE0F90AC
:102DC0000FBE0F901F9018951F920F920FB60F9283
:102DD0000BB60F9211242F933F934F935F936F93F2
:102DE0007F938F939F93AF93BF93EF93FF938091C4
:102DF000A203882329F4E0910707F09108070995B9
:102E0000FF91EF91BF91AF919F918F917F916F91C2
:102E10005F914F913F912F910F900BBE0F900FBE7E
:102E20000F901F901895CF92DF92EF92FF920F9321
:102E30006B017C018091A203882309F428C11A98B0
:102E40001BB81AB81092950080E0C81686E9D8061B
:102E500080E0E80680E0F80609F4C7C081E0C81603
:102E600086E9D80680E0E80680E0F80608F047C06A
:102E700080E8C81685E2D80680E0E80680E0F8061B
:102E800009F49BC081E8C81685E2D80680E0E80610
:102E900080E0F806A8F480E6C81689E0D80680E04D
:102EA000E80680E0F80609F47BC080ECC81682E1F1
:102EB000D80680E0E80680E0F80609F0BDC077C0DB
:102EC00080E0C8168BE4D80680E0E80680E0F806CB
:102ED00009F47FC080E8C81680E7D80680E0E806DD
:102EE00080E0F80609F47BC080E4C81688E3D806C1
:102EF00080E0E80680E0F80609F09EC064C080E04B
:102F0000C81684E8D80683E0E80680E0F80609F4ED
:102F10008EC081E0C81684E8D80683E0E80680E029
:102F2000F806F8F480E0C8168CE2D80681E0E806DE
:102F300080E0F80609F465C080E0C81682ECD80687
:102F400081E0E80680E0F80609F461C080E0C81678
:102F500081EED80680E0E80680E0F80609F06CC053
:102F60004AC080E2C81681EAD80687E0E80680E019
:102F7000F80609F452C080E4C81682E4D8068FE04F
:102F8000E80680E0F80609F44EC080E9C81680ED36
:102F9000D80683E0E80680E0F80609F04DC047C097
:102FA000E0EACE2EE1E0DE2EE12CF12C45C07FECF4
:102FB000C72ED12CE12CF12C3FC067E6C62ED12CB8
:102FC000E12CF12C39C054E4C52ED12CE12CF12C8C
:102FD00033C033E3C32ED12CE12CF12C2DC092E26F
:102FE000C92ED12CE12CF12C27C089E1C82ED12C7F
:102FF000E12CF12C21C0B0E1CB2ED12CE12CF12C15
:103000001BC0ACE0CA2ED12CE12CF12C15C0F8E08D
:10301000CF2ED12CE12CF12C0FC0E1E0CE2ED12C03
:10302000E12CF12C09C0CC24DD24760105C073E02D
:10303000C72ED12CE12CF12CBB27AF2D9E2D8D2D31
:1030400080939000C9B8473031F0483049F48091FE
:103050009500866003C08091950084608093950000
:10306000223029F48091950088608093950001308A
:1030700019F0023051F404C080919500806303C0C0
:103080008091950080628093950088E48AB90F91C1
:10309000FF90EF90DF90CF9008951F93282F792F06
:1030A000162F8091AF049091B004622F412F50E011
:1030B0000E94B3181093B1041092AE048091AE0434
:1030C0008093B2048AB18F768AB91A9A8091AE043D
:1030D000E091AF04F091B004E80FF11D80818CB94C
:1030E0001F910895629FD001739FF001829FE00DB0
:1030F000F11D649FE00DF11D929FF00D839FF00D77
:10310000749FF00D659FF00D9927729FB00DE11D22
:10311000F91F639FB00DE11DF91FBD01CF011124FF
:103120000895A1E21A2EAA1BBB1BFD010DC0AA1F08
:10313000BB1FEE1FFF1FA217B307E407F50720F020
:10314000A21BB30BE40BF50B661F771F881F991F9B
:103150001A9469F760957095809590959B01AC01E4
:10316000BD01CF010895FB01DC0102C001900D9269
:0C31700041505040D8F70895F894FFCF6C
:10317C00AABBCC0211820C04360C03960B10DE0B8E
:10318C0006160C17080B01590A051C0A0FD8090260
:10319C00B10A000000000000000000000000000068
:0831AC00000000000500020014
:00000001FF
