:100000000C9446010C9465010C9465010C946501F7
:100010000C9465010C9465010C9465010C946501C8
:100020000C9465010C9465010C9465010C946501B8
:100030000C9486190C9465010C9465010C9465016F
:100040000C9465010C9465010C944B280C949E282B
:100050000C94EA270C9465010C9465010C946501DD
:100060000C9465010C9465010C940E080C946501C8
:100070000C9465010C9465010C9465010C94650168
:100080000C9465010C9465010C94650100C18140DC
:1000900001C0804101C0804100C1814001C0804158
:1000A00000C1814000C1814001C0804101C0804148
:1000B00000C1814000C1814001C0804100C1814038
:1000C00001C0804101C0804100C1814001C0804128
:1000D00000C1814000C1814001C0804100C1814018
:1000E00001C0804101C0804100C1814000C1814008
:1000F00001C0804101C0804100C1814001C08041F8
:1001000000C1814000C1814001C0804101C08041E7
:1001100000C1814000C1814001C0804100C18140D7
:1001200001C0804101C0804100C1814000C18140C7
:1001300001C0804101C0804100C1814001C08041B7
:1001400000C1814000C1814001C0804100C18140A7
:1001500001C0804101C0804100C1814001C0804197
:1001600000C1814000C1814001C0804101C0804187
:1001700000C1814000C1814001C0804100C1814077
:1001800001C0804101C0804100C1814000C0C10167
:10019000C30302C2C60607C705C5C404CC0C0DCDF7
:1001A0000FCFCE0E0ACACB0BC90908C8D81819D967
:1001B0001BDBDA1A1EDEDF1FDD1D1CDC14D4D51597
:1001C000D71716D6D21213D311D1D010F03031F187
:1001D00033F3F23236F6F737F53534F43CFCFD3DB7
:1001E000FF3F3EFEFA3A3BFB39F9F83828E8E929A7
:1001F000EB2B2AEAEE2E2FEF2DEDEC2CE42425E557
:1002000027E7E62622E2E323E12120E0A06061A1C6
:1002100063A3A26266A6A767A56564A46CACAD6D76
:10022000AF6F6EAEAA6A6BAB69A9A86878B8B979E6
:10023000BB7B7ABABE7E7FBF7DBDBC7CB47475B516
:1002400077B7B67672B2B373B17170B05090915106
:100250009353529296565797559594549C5C5D9D36
:100260005F9F9E5E5A9A9B5B995958988848498926
:100270004B8B8A4A4E8E8F4F8D4D4C8C44848545D6
:1002800087474686824243834181804011241FBEB6
:10029000CFEFD0E1DEBFCDBF11E0A0E0B1E0E8ECF0
:1002A000F8E500E00BBF02C007900D92AA33B1073A
:1002B000D9F717E0AAE3B1E001C01D92AD34B10750
:1002C000E1F70E9467010C94622C0C940000EF92FD
:1002D0000F931F93DF93CF93CDB7DEB7A6970FB6DB
:1002E000F894DEBF0FBECDBF81E08C871A869E01D9
:1002F000235F3F4F39A328A380E091E09BA38AA30B
:1003000093E09CA3EAA1FBA100802AA13BA12F5F5F
:100310003F4F3BA32AA3E8A1F9A1008228A139A15C
:100320002F5F3F4F39A328A33CA131503CA38CA1A0
:10033000882341F718861F821E821D82188A198A17
:100340001A8A1B8A81E08C830E94CC080E9497261F
:100350008AE595E00E9413278AE08093300681E0C9
:1003600090E0909333068093320688E290E0909379
:1003700035068093340684E495E0909338068093A4
:10038000370680E091EEA0E0B0E080933D069093C8
:100390003E06A0933F06B09340068AE595E0909311
:1003A0003C0680933B0680E396E090935B05809348
:1003B0005A0581E080935E0582E190E090935D05AF
:1003C00080935C058CEE94E09093660580936505C0
:1003D00083E490E290936A058093690581EA90E254
:1003E00090936C0580936B058EE095E09093620589
:1003F000809361058DE195E090936405809363059A
:100400008AE595E00E94E72680EC90E09D8B8C8B3E
:100410008DE695E00E9413278AE08093490583E1E9
:1004200090E090934C0580934B05CE0144969093B9
:10043000530580935205109251051092500580E8A3
:1004400095E2A0E0B0E08093560590935705A09305
:100450005805B09359058DE695E090935505809326
:10046000540589E495E090936E0580936D0581E0D5
:100470008093710588E290E09093700580936F05FA
:100480008CEE94E090937905809378058EEF91E25D
:1004900090937D0580937C058CE492E290937F0598
:1004A00080937E058DE695E00E94E7268BE08093A1
:1004B000330510923605109235058AE090E090934E
:1004C00038058093370581E496E090933B0580934F
:1004D0003A0583E395E0909381058093800581E060
:1004E000809384058AE090E0909383058093820551
:1004F00083E490E29093900580938F0581EA90E2E7
:1005000090939205809391058BE295E090938A05F4
:100510008093890583E995E00E94132783E0809307
:100520001B0610921E068CE090E0909320068093AC
:100530001F0681E496E090931D0680931C068AE1D5
:1005400096E0909394058093930581E080939705BE
:1005500088E090E0909396058093950589ED92E26E
:100560009093A3058093A20581E793E29093A5055C
:100570008093A4058BE295E090939D0580939C0564
:100580008BE080932406109227068CE090E09093F5
:100590002906809328068EE296E0909326068093A3
:1005A000250683E296E09093A7058093A60581E057
:1005B0008093AA058AE090E09093A9058093A8050E
:1005C00089ED92E29093B6058093B50581E793E2B9
:1005D0009093B8058093B7058BE295E09093B005B2
:1005E0008093AF0578948BE391E00E946D1C80911D
:1005F0005101882349F480914F01882329F0E1E0DB
:10060000F0E0FF8FEE8F02C01F8E1E8E9E8D8989B7
:10061000892B898B80915201882349F48091500164
:10062000882329F021E030E03D8F2C8F02C01D8E01
:100630001C8E9C8D8A89892B8A8B8A89882319F440
:100640008989882329F081E090E09B8F8A8F02C0FE
:100650001B8E1A8E9A8D8889892B888B9B89809115
:10066000A901892B8B8B80913A0180935401898950
:10067000809355018A89809356018B898093570115
:100680008889809358018091B0029091B102198EAF
:10069000009711F091E0998FE98DE09359010E9444
:1006A000081F8B878C85882329F49B858A8598175A
:1006B00009F43EC08B858A878B85882319F40E94B4
:1006C0007B2602C00E9485260E94671B89870E94A4
:1006D0008E268823F9F480E06B8540E000E012EC80
:1006E00021E030E0EE240E94B91989879E01235F42
:1006F0003F4F84E361E0A90123E030E00E947914D8
:1007000089870E944E1B89878091BA018E7F8093D2
:10071000BA010EC060E875E280E090E048E021E0B8
:1007200001E00E94D5288091BA0181608093BA01CE
:100730008091A301882399F01092A3018091540322
:100740008F5F8093540380915403823341F48091EE
:100750002E0691E0892780932E06109254038091F3
:10076000A401882311F01092A4018091A501909119
:10077000A601009791F01092A6011092A5011EA269
:100780001DA28D819E81009721F421E030E03EA3DF
:100790002DA38DA19EA19E838D838091A701909111
:1007A000A801009721F01092A8011092A7018CEAED
:1007B00091E02BE331E0B9014AE250E00E94D20718
:1007C0000E948E26882319F40E94871B27C08091DF
:1007D000BA0181608093BA0180913A01882F90E03C
:1007E00098878F830E94CB24809121068E7F8983F6
:1007F00080912E06982F91708981892B8983898118
:1008000080932E068091220680932F0680914405C6
:100810008093B801809145058093B901809153017F
:10082000882349F08B89882331F48C81882341F017
:100830008889882329F08091BA018E7F8093BA013C
:1008400080915301882321F080916B018823B1F4BA
:1008500080916D01882331F08889882319F48B8970
:10086000882321F01092B8011092B901A3E2B0E000
:10087000E3E2F0E080818F7D8C9307C0A3E2B0E0DB
:10088000E3E2F0E0808180628C931A821B823CC09C
:100890008B818695869586958A838B81882F90E0BB
:1008A000FC01E55AFE4F10828A81882F90E0FC01FE
:1008B000E854FE4F8081482F50E08B81282F30E094
:1008C0008A81882F90E0880F991F880F991F880FC1
:1008D000991F909581959F4F820F931FFA0102C037
:1008E000F595E7958A95E2F7CF018170907088239E
:1008F00041F08B81882F90E0FC01E55AFE4F81E0AA
:1009000080838B818F5F8B838B81833108F4C0CF91
:1009100080916B0180933A018BE591E00E94671D05
:100920008BE791E02BE331E0B90140E150E00E9418
:10093000592C8FE891E02BE531E0B90140E150E01E
:100940000E94592C80913A01882341F080913A010C
:10095000882349F08D819E81009729F021E030E0C5
:10096000388F2F8B02C0188E1F8A8F8980938B013E
:100970008B8980938D01E3E2F0E08081882F90E005
:10098000847090701E8A009711F031E03E8B8E8942
:1009900080938E0180914F0180939F01809150013F
:1009A0008093A00189898093A1018A898093A20103
:1009B0008BE791E00E94321E80915301882321F041
:1009C00080916C01882331F01B8A198A1A8A10924F
:1009D000A901188A1C8607CE0F93DF93CF9300D00E
:1009E00000D0CDB7DEB79C838B838B819C819A83AB
:1009F0008983E981FA8185859685A785B089BC01BF
:100A0000CD0148E021E001E00E94D5280F900F9031
:100A10000F900F90CF91DF910F910895DF93CF93B7
:100A200000D0CDB7DEB79A83898381E080937105CA
:100A30000F900F90CF91DF910895DF93CF9300D067
:100A4000CDB7DEB79A838983109271050F900F900E
:100A5000CF91DF910895DF93CF9300D0CDB7DEB76C
:100A60009A8389838091B0029091B1029093AB01F7
:100A70008093AA010F900F90CF91DF9108950F936B
:100A8000DF93CF9300D0CDB7DEB79A83898360E838
:100A900075E280E090E048E021E001E00E94D52886
:100AA0000F900F90CF91DF910F9108950F93DF93E7
:100AB000CF9300D0CDB7DEB79A83898360E072EC24
:100AC00081E090E048E021E001E00E94D5280F900D
:100AD0000F90CF91DF910F910895DF93CF93CDB712
:100AE000DEB72D970FB6F894DEBF0FBECDBF9E8345
:100AF0008D8378876F835A87498789859A859C83F8
:100B00008B838F819885009709F448C08F819885E1
:100B100029853A85820F931F8636910508F03EC0DD
:100B20008F81988501979A83898329C08B819C81C5
:100B30009D878C878C859D858930910524F088E080
:100B400090E09D878C878C85482F50E08CEA91E05F
:100B500029813A81B9010E94BE15ED81FE81808311
:100B60008D819E8101969E838D838B819C810897C8
:100B70009C838B8389819A8108969A8389838B8150
:100B80009C811816190694F28091B0029091B102DE
:100B90009093AB018093AA011B8602C091E09B87D2
:100BA0008B852D960FB6F894DEBF0FBECDBFCF91CB
:100BB000DF910895DF93CF93CDB7DEB762970FB67D
:100BC000F894DEBF0FBECDBF9E838D8378876F8381
:100BD0005A8749872B8789859A859C838B838F8148
:100BE0009885009709F492C08F81988529853A8568
:100BF000820F931F8636910508F088C08F819885F3
:100C000001979A8389838B85282F30E03A8B298B33
:100C100089899A89009781F129893A89213031059A
:100C200009F465C073C08B819C81988B8F872F8559
:100C300038892930310524F088E090E0988B8F873F
:100C40008F85482F50E088EB91E029813A81B901E6
:100C50000E94BE15ED81FE8180838D819E8101966B
:100C60009E838D8389819A8108969A8389838B815B
:100C70009C8108979C838B838B819C811816190615
:100C800094F28091B0029091B1029093AB01809365
:100C9000AA011E863DC02B813C813D872C878C8517
:100CA0009D858930910524F028E030E03D872C8730
:100CB0008C85482F50E0ED81FE818081E82FF0E0A7
:100CC0008D819E8101969E838D8388EB91E02981A1
:100CD0003A81B9019F010E940F1589819A81089676
:100CE0009A8389838B819C8108979C838B838B81DA
:100CF0009C81181619067CF28091B0029091B10285
:100D00009093AB018093AA011E8602C031E03E871A
:100D10008E8562960FB6F894DEBF0FBECDBFCF9121
:100D2000DF910895DF93CF93CDB7DEB729970FB644
:100D3000F894DEBF0FBECDBF9C838B837E836D8313
:100D400058874F838D819E81009709F44CC08D8117
:100D50009E812F813885820F931F8636910508F07A
:100D600042C08D819E8101979A8389832EC089819B
:100D70009A81880F991FFC01EC53FE4F808191816D
:100D8000892F9927EB81FC8180838B819C8101963F
:100D90009C838B8389819A81880F991FFC01EC5376
:100DA000FE4F80819181EB81FC8180838B819C81CE
:100DB00001969C838B8389819A8101969A8389838A
:100DC0008F819885019798878F838F819885009769
:100DD00071F68091B0029091B1029093AB01809333
:100DE000AA01198602C081E08987898529960FB6F4
:100DF000F894DEBF0FBECDBFCF91DF910895DF9392
:100E0000CF93CDB7DEB72C970FB6F894DEBF0FBEE9
:100E1000CDBF9C838B837E836D8358874F832987C7
:100E20008D819E81009709F4B1C08D819E812F81B3
:100E30003885820F931F8636910508F0A7C08985F3
:100E4000282F30E03C872B878B859C85009739F0D5
:100E50002B853C852130310509F443C097C08D8135
:100E60009E8101979A8389832EC089819A81880FF8
:100E7000991FFC01E457FD4F80819181892F9927AB
:100E8000EB81FC8180838B819C8101969C838B8389
:100E900089819A81880F991FFC01E457FD4F808159
:100EA0009181EB81FC8180838B819C8101969C8365
:100EB0008B8389819A8101969A8389838F81988512
:100EC000019798878F838F819885009771F680911D
:100ED000B0029091B1029093AB018093AA011A865F
:100EE00057C08D819E8101979A83898340C0498133
:100EF0005A81EB81FC818081882F90E0982F882790
:100F00009C01CA01880F991FFC01E457FD4F3183F2
:100F100020838B819C8101969C838B8349815A819C
:100F200089819A81880F991FFC01E457FD4F208128
:100F30003181EB81FC818081882F90E0282B392B37
:100F4000CA01880F991FFC01E457FD4F31832083AC
:100F50008B819C8101969C838B8389819A810196E8
:100F60009A8389838F819885019798878F838F8152
:100F70009885009709F0BBCF8091B0029091B102A3
:100F80009093AB018093AA011A8602C031E03A87A0
:100F90008A852C960FB6F894DEBF0FBECDBFCF91D9
:100FA000DF910895DF93CF93CDB7DEB728970FB6C3
:100FB000F894DEBF0FBECDBF9C838B837E836D8391
:100FC00058874F831A82198219C02D813E818981E9
:100FD0009A81F901E80FF91F8081882F90E08170D4
:100FE0009070482F8B819C8129813A81B9010E94A0
:100FF000CC2A89819A8101969A83898329813A81B1
:101000008F8198852817390700F328960FB6F89432
:10101000DEBF0FBECDBFCF91DF9108951F920F921B
:101020000FB60F9200905B000F9211242F933F9305
:101030004F935F936F937F938F939F93AF93BF93E0
:10104000EF93FF93DF93CF93CDB7DEB7A5E6B0E084
:10105000E5E6F0E0808181608C9380915B03909164
:101060005C03019690935C0380935B0380915B0328
:1010700090915C038A30910539F481E08093A3015B
:1010800010925C0310925B038091590390915A0374
:10109000019690935A03809359038091590390913C
:1010A0005A038436910539F481E08093A4011092AB
:1010B0005A03109259038091570390915803019657
:1010C000909358038093570380915703909158034E
:1010D00021E0843F920751F481E090E09093A601D3
:1010E0008093A501109258031092570380915503E5
:1010F00090915603019690935603809355038091E7
:1011000055039091560323E0883E920751F481E005
:1011100090E09093A8018093A7011092560310923B
:1011200055030E94C2268091B0029091B1020097AF
:10113000A1F08091AA019091AB01009751F08091AC
:10114000AA019091AB0101979093AB018093AA0102
:1011500006C081E08093A90102C01092A901A5E612
:10116000B0E0E5E6F0E080818E7F8C93CF91DF9157
:10117000FF91EF91BF91AF919F918F917F916F916F
:101180005F914F913F912F910F9000925B000F90D4
:101190000FBE0F901F901895DF93CF93CDB7DEB79A
:1011A000A5E6B0E0E5E6F0E080818B7F8C93A4E6D5
:1011B000B0E0E4E6F0E0808187608C930E94FA1D45
:1011C000A8E3B0E0E8E3F0E0808181618C93A7E3DD
:1011D000B0E0E7E3F0E0808181618C93A2E2B0E0CF
:1011E000E2E2F0E0808184608C93A3E2B0E0E3E28D
:1011F000F0E080818B7F8C930E946C1F0E94D31E35
:101200000E94571F0E945A1DA5E6B0E0E5E6F0E0F7
:10121000808184608C93E6E8F0E089EF90E0918330
:101220008083EBE8F0E01082EAE8F0E08BE0808376
:10123000ADE7B0E0EDE7F0E0808180618C93CF9185
:10124000DF9108950F93DF93CF93CDB7DEB72C973F
:101250000FB6F894DEBF0FBECDBF8E836F83288795
:1012600039874A875B870C871D82F89428853985E2
:101270004A855B858F81BA01A90128E00C850E940F
:101280002A17813019F083E08D8335C088859985D0
:10129000AA85BB8581302BE4920720E0A20720E0DD
:1012A000B20748F083E290E0A0E0B0E089839A833F
:1012B000AB83BC8318C088859985AA85BB859C01B2
:1012C000AD01220F331F441F551F80EA9FE7A7E19E
:1012D000B0E0BC01CD010E94372CDA01C90189833D
:1012E0009A83AB83BC8389819A810E940E198130D5
:1012F00011F083E08D8378948D812C960FB6F8944D
:10130000DEBF0FBECDBFCF91DF910F910895DF9368
:10131000CF93CDB7DEB7F89410925E0381E060E022
:101320000E94F3160E9443197894CF91DF9108959B
:10133000DF93CF93CDB7DEB7F89480E060E00E94F2
:10134000F3160E946A197894CF91DF910895DF9384
:10135000CF93CDB7DEB728970FB6F894DEBF0FBE98
:10136000CDBF9C838B837E836D8358874F831A8286
:101370001982F894809163039091640384309105FD
:1013800010F1209163033091640383E496E0B90186
:101390000E945E160097B9F480914306EB81FC81B0
:1013A000808380916303909164030397EF81F885B4
:1013B00091838083ED81FE8184E496E09183808334
:1013C00081E08A8302C085E08983789489812896A8
:1013D0000FB6F894DEBF0FBECDBFCF91DF91089559
:1013E000DF93CF93CDB7DEB728970FB6F894DEBF63
:1013F0000FBECDBF8C837E836D8358874F831B8246
:10140000F89480915E03813009F054C08D819E81F3
:1014100001979093600380935F0381E090E0909345
:10142000620380936103E0915F03F09160038C811C
:10143000808320916103309162038F819885820FB0
:10144000931F909362038093610380915F03909157
:1014500060032091610330916203B9010E945E161E
:101460009A83898380916103909162032981FC01B1
:10147000ED5BF94F208301969093620380936103A3
:10148000209161033091620389819A81892F992784
:10149000F901ED5BF94F8083C901019690936203D6
:1014A0008093610381E080935D0380E061E00E94AE
:1014B000F31602C085E08B8378948B8128960FB653
:1014C000F894DEBF0FBECDBFCF91DF910895DF93BB
:1014D000CF9300D000D0CDB7DEB71982CE010296EF
:1014E0000E94FB1880915E03282F30E03C832B8301
:1014F0008B819C8181309105D9F02B813C812230F8
:1015000031052CF48B819C81009761F045C02B81C3
:101510003C812230310521F18B819C818330910502
:1015200021F03AC00E94431937C00E94431934C0C9
:10153000109264031092630380916303909164039B
:101540002A81FC01ED5BF94F20830196909364039F
:101550008093630382E080935E030E9443191CC062
:1015600080916303909164038F3F910509F078F4B3
:1015700080916303909164032A81FC01ED5BF94F34
:1015800020830196909364038093630303C083E0F8
:1015900080935E030E94431989810F900F900F90F2
:1015A0000F90CF91DF910895DF93CF9300D00F92EA
:1015B000CDB7DEB7198280915D03282F30E03B83E1
:1015C0002A838A819B81009731F02A813B812130D7
:1015D000310531F02FC081E060E00E94F3162AC08F
:1015E00080916103909162030097D1F0E0915F03D5
:1015F000F091600380810E94E51880915F039091D3
:10160000600301969093600380935F038091610370
:1016100090916203019790936203809361030AC0E3
:1016200083E00E94C516898381E060E00E94F31682
:1016300010925D0389810F900F900F90CF91DF91F1
:101640000895DF93CF9300D00F92CDB7DEB7198204
:1016500080915E03282F30E03B832A838A819B811F
:10166000009731F02A813B812230310531F009C0E9
:1016700080E00E94C516898304C081E00E94C516DF
:1016800089830E946A1981E080935E0389810F90AB
:101690000F900F90CF91DF9108950F93DF93CF9329
:1016A000CDB7DEB728970FB6F894DEBF0FBECDBF1B
:1016B0008A836B832C833D834E835F8308871982E3
:1016C000F8948AE080936F032C813D814E815F8185
:1016D0008B81BA01A90127E008850E942A17813071
:1016E00019F083E0898308C080E29EE40E940E190D
:1016F000813011F083E089837894898128960FB630
:10170000F894DEBF0FBECDBFCF91DF910F9108954A
:10171000DF93CF93CDB7DEB7F89481E060E00E940D
:10172000F31610926603789480E00E94C516CF915C
:10173000DF910895DF93CF93CDB7DEB7F89480E0C3
:1017400060E00E94F3160E946A197894CF91DF91AD
:101750000895DF93CF93CDB7DEB727970FB6F894F0
:10176000DEBF0FBECDBF9B838A837D836C835F8387
:101770004E831982F89480916703909168038330B7
:10178000910540F18091030190910401209167033C
:1017900030916803B9010E942E0E8823D9F4E0919C
:1017A0000301F09104018081EA81FB8180838091B3
:1017B0006703909168030297EE81FF819183808394
:1017C00080910301909104010196EC81FD81918348
:1017D000808302C085E089837894898127960FB63B
:1017E000F894DEBF0FBECDBFCF91DF910895DF9398
:1017F000CF93CDB7DEB727970FB6F894DEBF0FBEF5
:10180000CDBF8B837D836C835F834E831A82F89474
:1018100080916603882309F046C08C819D810197E1
:1018200090936B0380936A0381E090E090936D0343
:1018300080936C03E0916A03F0916B038B8180834A
:1018400020916C0330916D038E819F81820F931FD5
:1018500090936D0380936C0380916A0390916B0366
:1018600020916C0330916D03B9010E942E0E898383
:10187000809103019091040120916C0330916D03DC
:10188000FC01E20FF31F89818083C90101969093C7
:101890006D0380936C0381E08093650380E061E0D9
:1018A0000E94F31602C085E08A8378948A81279685
:1018B0000FB6F894DEBF0FBECDBFCF91DF91089574
:1018C000DF93CF93CDB7DEB727970FB6F894DEBF7F
:1018D0000FBECDBF1A82CE0103960E94FB188091E5
:1018E0006603282F30E03F832E838E819F818130D5
:1018F000910561F02E813F812230310509F46FC0DE
:101900008E819F81009709F48AC097C00E94431975
:101910008B818A3339F41092690310926803109214
:1019200067038BC08B818D3021F482E08093660346
:1019300084C08B810E94E90D898380916903282FDF
:1019400030E03D832C838C819D81009731F02C8188
:101950003D812130310509F170C08091670390917C
:1019600068038F3F910509F098F4209103013091AD
:1019700004018091670390916803F901E80FF91F52
:1019800089818295807F808381E08093690355C03F
:10199000109266030E946A1950C0809103019091D1
:1019A00004012091670330916803DC01A20FB31F8B
:1019B0008091030190910401FC01E20FF31F9081DB
:1019C0008981892B8C93809167039091680301969C
:1019D0009093680380936703109269032EC09B81E4
:1019E00080916F03981749F40E946A191092660358
:1019F00081E00E94C5168A8320C08B818A3361F4FE
:101A000010926903109268031092670381E080933B
:101A100066030E94431911C0109266030EC08B81A9
:101A20008A3359F40E944319109268031092670395
:101A30001092690381E0809366038A8127960FB62E
:101A4000F894DEBF0FBECDBFCF91DF910895DF9335
:101A5000CF9300D000D000D0CDB7DEB71A828091EE
:101A60006503282F30E03E832D838D819E81823057
:101A7000910541F12D813E81233031055CF48D814A
:101A80009E81009709F483C02D813E81213031056C
:101A900071F081C08D819E818330910509F462C00F
:101AA0002D813E812430310509F464C074C08AE37D
:101AB000898389810E94E51882E0809365031092F2
:101AC000690369C080916C0390916D03009709F4DC
:101AD00042C080916903282F30E03C832B838B81A7
:101AE0009C81009731F02B813C812130310591F0B0
:101AF00052C0E0916A03F0916B03808182958F70F0
:101B00000E940D0E898389810E94E51881E08093EF
:101B1000690341C0E0916A03F0916B0380818F708B
:101B20000E940D0E898389810E94E51880916A03C5
:101B300090916B03019690936B0380936A031092CC
:101B4000690380916C0390916D03019790936D03ED
:101B500080936C0320C08DE00E94E51883E08093A1
:101B6000650319C080916F030E94E51884E080939B
:101B7000650311C01092650383E00E94C5168A8335
:101B800081E060E00E94F3161092650304C081E0DA
:101B900060E00E94F3168A8126960FB6F894DEBFA5
:101BA0000FBECDBFCF91DF910895DF93CF93CDB717
:101BB000DEB780916603882F90E00197823091050F
:101BC00010F4109266030E946A1980E0CF91DF91B1
:101BD0000895DF93CF9300D0CDB7DEB78983898195
:101BE000803340F089818A3328F48981982F90537B
:101BF0009A830DC08981813440F08981873428F42B
:101C00008981982F97539A8302C08FEF8A838A81A4
:101C10000F900F90CF91DF910895DF93CF9300D075
:101C2000CDB7DEB7898389818A3028F48981982FDE
:101C3000905D9A830DC089818A3040F0898180311E
:101C400028F48981982F995C9A8302C080E38A8363
:101C50008A810F900F90CF91DF910895DF93CF93FA
:101C600000D000D000D0CDB7DEB79B838A837D83C0
:101C70006C8319820BC0EA81FB8190818981890F75
:101C800089838A819B8101969B838A831E828C81B2
:101C90009D81009711F081E08E838C819D81019759
:101CA0009D838C838E81882331F7898181958983F7
:101CB000898126960FB6F894DEBF0FBECDBFCF91B7
:101CC000DF910895DF93CF93CDB7DEB72D970FB691
:101CD000F894DEBF0FBECDBF9B878A877D876C8758
:101CE0001A82EC85FD85808191818530910509F00E
:101CF000ABC08A859B85FC0131968081882F90E05E
:101D0000982F8827998788878A859B85FC0132963A
:101D10008081282F30E088859985822B932B9987A5
:101D20008887888599850196998788878A859B8584
:101D3000FC0133968081882F90E0982F88279F831D
:101D40008E838A859B85FC0134968081282F30E024
:101D50008E819F81822B932B9F838E838E819F8187
:101D6000009709F46EC08E819F8127E0803D920725
:101D700008F067C08A859B859C838B83EC85FD85F5
:101D800011821082EB81FC8181E080838B819C81B8
:101D900001969C838B83EC85FD85808191810196E2
:101DA000EC85FD85918380838E819F818770907003
:101DB000009759F08E819F81969587959695879586
:101DC000969587958F5F8D8309C08E819F819695AB
:101DD000879596958795969587958D83EB81FC8160
:101DE0008D8180838B819C8101969C838B83EC8584
:101DF000FD85808191810196EC85FD8591838083AD
:101E00008B819C81288539854E815F81B90120E0D5
:101E10000E94DA0589838981882329F089810E94BB
:101E200032168A8313C0EC85FD85208131818D8136
:101E3000882F90E0820F931FEC85FD85918380832E
:101E400005C083E08A8302C083E08A838A812D965D
:101E50000FB6F894DEBF0FBECDBFCF91DF910895CE
:101E6000DF93CF93CDB7DEB72A970FB6F894DEBFD6
:101E70000FBECDBF98878F837A8769871A82E985DD
:101E8000FA85808191818530910509F054C08F8158
:101E90009885FC0131968081882F90E0982F8827C3
:101EA0009C838B838F819885FC0132968081282FBB
:101EB00030E08B819C81822B932B9C838B838B8145
:101EC0009C8101969C838B838F819885FC0134963D
:101ED0008081882369F58F819885FC013396808104
:101EE0008F3F39F08F819885FC013396808188235C
:101EF000F9F41E828F819885FC01339680818F3F93
:101F000019F481E08D8301C01D82CE0105962B81DD
:101F10003C81B90141E050E021E00E94DA0589836B
:101F20008981882351F089810E9432168A8305C0F5
:101F300083E08A8302C083E08A838A812A960FB66F
:101F4000F894DEBF0FBECDBFCF91DF910895DF9330
:101F5000CF93CDB7DEB72C970FB6F894DEBF0FBE88
:101F6000CDBF9A8789877C876B871A82EB85FC8532
:101F7000808191818630910508F481C089859A8598
:101F8000FC0131968081882F90E0982F88279887D0
:101F90008F8389859A85FC0132968081282F30E0D5
:101FA0008F819885822B932B98878F838F8198853B
:101FB000019698878F8389859A85FC013396808165
:101FC000882F90E0982F88279E838D8389859A8516
:101FD000FC0134968081282F30E08D819E81822BF8
:101FE000932B9E838D8389859A85FC01359680810C
:101FF0008C838D819E8187709070009759F08D81C0
:102000009E819695879596958795969587958F5FEE
:102010008B8309C08D819E8196958795969587952E
:10202000969587958B838D819E81009729F18D816F
:102030009E8127E0813B9207F8F49B818C81981761
:10204000D9F489859A8506962F8138854D815E81E0
:10205000B90121E00E94DA0589838981882329F06A
:1020600089810E9432168A830CC0EB85FC8585E04D
:1020700090E09183808305C083E08A8302C083E07F
:102080008A838A812C960FB6F894DEBF0FBECDBF2F
:10209000CF91DF910895DF93CF93CDB7DEB72D9722
:1020A0000FB6F894DEBF0FBECDBF9B878A877D87B2
:1020B0006C871A82EC85FD85808191818530910540
:1020C00009F0AAC08A859B85FC0131968081882F02
:1020D00090E0982F8827998788878A859B85FC01BF
:1020E00032968081282F30E088859985822B932B2A
:1020F00099878887888599850196998788878A85B1
:102100009B85FC0133968081882F90E0982F88274B
:102110009F838E838A859B85FC0134968081282F3E
:1021200030E08E819F81822B932B9F838E838E81C3
:102130009F81009709F46DC08E819F8127E0803DCB
:10214000920708F066C08A859B859C838B83EC850B
:10215000FD8511821082EB81FC8182E080838B817E
:102160009C8101969C838B83EC85FD858081918188
:102170000196EC85FD85918380838E819F81877098
:102180009070009759F08E819F81969587959695CE
:102190008795969587958F5F8D8309C08E819F81E6
:1021A0009695879596958795969587958D83EB81DE
:1021B000FC818D8180838B819C8101969C838B83A4
:1021C000EC85FD85808191810196EC85FD8591836B
:1021D00080838B819C81288539854E815F81B901FF
:1021E0000E946D0589838981882329F089810E9455
:1021F00032168A8313C0EC85FD85208131818D8163
:10220000882F90E0820F931FEC85FD85918380835A
:1022100005C083E08A8302C083E08A838A812D9689
:102220000FB6F894DEBF0FBECDBFCF91DF910895FA
:10223000DF93CF93CDB7DEB728970FB6F894DEBF04
:102240000FBECDBF9E838D8378876F831A82EF8107
:10225000F885808191818530910589F58D819E81F8
:10226000FC0131968081882F90E0982F88279C83ED
:102270008B838D819E81FC0132968081282F30E0F6
:102280008B819C81822B932B9C838B838B819C8164
:1022900001969C838B838D819E8103962B813C814B
:1022A000B90141E050E021E00E94FF068983898165
:1022B000882339F089810E9432168A8302C083E024
:1022C0008A838A8128960FB6F894DEBF0FBECDBFF1
:1022D000CF91DF910895DF93CF93CDB7DEB72B97E2
:1022E0000FB6F894DEBF0FBECDBF998788877B8776
:1022F0006A871A82EA85FB85808191818630910503
:1023000008F46AC088859985FC0131968081882F00
:1023100090E0982F88279F838E8388859985FC017C
:1023200032968081282F30E08E819F81822B932BE3
:102330009F838E838E819F8101969F838E83888564
:102340009985FC0133968081882F90E0982F88270B
:102350009D838C8388859985FC0134968081282F04
:1023600030E08C819D81822B932B9D838C8388858B
:102370009985FC01359680818B838C819D810097A6
:1023800041F18C819D818937910518F58C819D8162
:10239000880F991F982F8B819817D9F48885998574
:1023A00006962E813F814C815D81B90121E00E941A
:1023B000FF0689838981882329F089810E9432164A
:1023C0008A830CC0EA85FB8585E090E09183808359
:1023D00005C083E08A8302C083E08A838A812B96CA
:1023E0000FB6F894DEBF0FBECDBFCF91DF91089539
:1023F000DF93CF93CDB7DEB72C970FB6F894DEBF3F
:102400000FBECDBF9A8789877C876B871A82EB8541
:10241000FC85808191818530910509F090C0898586
:102420009A85FC0131968081882F90E0982F88272B
:1024300098878F8389859A85FC0132968081282F21
:1024400030E08F819885822B932B98878F838F81A3
:102450009885019698878F8389859A85FC013396A4
:102460008081882F90E0982F88279E838D8389858F
:102470009A85FC0134968081882F90E09E838D831D
:102480008D819E81009709F457C08D819E818E3782
:10249000910508F051C089859A859C838B83EB85D3
:1024A000FC8511821082EB81FC8183E080838B812B
:1024B0009C8101969C838B83EB85FC858081918137
:1024C0000196EB85FC85918380838D819E81880FA9
:1024D000991FEB81FC8180838B819C8101969C8379
:1024E0008B83EB85FC85808191810196EB85FC8552
:1024F000918380838B819C812F8138854D815E8182
:10250000B90120E00E94FF0689838981882329F090
:1025100089810E9432168A8314C0EB85FC85208154
:1025200031818D819E81880F991F820F931FEB85CA
:10253000FC859183808305C083E08A8302C083E0A9
:102540008A838A812C960FB6F894DEBF0FBECDBF6A
:10255000CF91DF910895DF93CF93CDB7DEB7619729
:102560000FB6F894DEBF0FBECDBF9F878E87798BE5
:10257000688B1A82E889F989808191818A30910576
:1025800008F4F7C08E859F85FC0131968081882FE5
:1025900090E0982F88279D878C878E859F85FC01EA
:1025A00032968081282F30E08C859D85822B932B5D
:1025B0009D878C878C859D8501969D878C878E85D0
:1025C0009F85FC0133968081882F90E0982F882783
:1025D0009B878A878E859F85FC0134968081282F72
:1025E00030E08A859B85822B932B9B878A878E85FB
:1025F0009F85FC0135968081882F90E0982F882751
:10260000998788878E859F85FC0136968081282F43
:1026100030E088859985822B932B998788878885D8
:1026200099850196998788878E859F85FC013796C5
:102630008081882F90E0982F88279F838E838E85B6
:102640009F85FC0138968081282F30E08E819F8104
:10265000822B932B9F838E838E859F85FC013996D9
:1026600080818D838A859B85009709F480C08A8547
:102670009B858E37910508F07AC08E819F810097E7
:1026800009F475C08E819F818A37910508F06FC06B
:102690008E819F819C01220F331F8D81882F90E0B6
:1026A0002817390709F063C08E859F850A9628850B
:1026B00039854E815F81B90121E00E94FF0689833F
:1026C0008981882309F04BC08E859F859C838B83ED
:1026D000E889F98911821082EB81FC8187E180838E
:1026E0008B819C8101969C838B83E889F989808109
:1026F00091810196E889F989918380838A859B85F8
:10270000880F991FEB81FC8180838B819C810196CE
:102710009C838B83E889F989808191810196E8897E
:10272000F989918380838B819C812C853D854A85A5
:102730005B85B90120E00E94FF0689838981882397
:1027400071F4E889F989208131818A859B85880F18
:10275000991F820F931FE889F9899183808389816A
:10276000882339F089810E9432168A8302C083E06F
:102770008A838A8161960FB6F894DEBF0FBECDBF03
:10278000CF91DF910895DF93CF93CDB7DEB72C972C
:102790000FB6F894DEBF0FBECDBF9A8789877C87BE
:1027A0006B871A82EB85FC8580819181853091054C
:1027B00009F093C089859A85FC0131968081882F24
:1027C00090E0982F882798878F8389859A85FC01C8
:1027D00032968081282F30E08F819885822B932B31
:1027E00098878F838F819885019698878F838985B5
:1027F0009A85FC0133968081882F90E0982F882756
:102800009E838D8389859A85FC0134968081282F4B
:1028100030E08D819E81822B932B9E838D838D81D1
:102820009E81009709F456C08D819E818D37910558
:1028300008F050C089859A859C838B83EB85FC8545
:1028400011821082EB81FC8184E080838B819C81EA
:1028500001969C838B83EB85FC8580819181019619
:10286000EB85FC85918380838D819E81880F991FE4
:10287000EB81FC8180838B819C8101969C838B837F
:10288000EB85FC85808191810196EB85FC859183A8
:1028900080838B819C812F8138854D815E81B90138
:1028A0000E94920689838981882329F089810E9468
:1028B00032168A8314C0EB85FC85208131818D819D
:1028C0009E81880F991F820F931FEB85FC85918352
:1028D000808305C083E08A8302C083E08A838A8183
:1028E0002C960FB6F894DEBF0FBECDBFCF91DF910F
:1028F0000895DF93CF93CDB7DEB72A970FB6F8943C
:10290000DEBF0FBECDBF8A836B835D834C833F8365
:102910002E8319828E819F8102968032910508F064
:102920004BC010929103109290032091900330912C
:102930009103F901E059FC4F8A818083C901019616
:1029400090939103809390038091900390919103D1
:102950009A8789878B81882319F09FEF988701C018
:102960001886E985FA85E059FC4F8885808389853A
:102970009A85019690939103809390038E819F8115
:102980000097E1F0809190039091910380599C4FC2
:102990002C813D814E815F81B9010E94592C20918B
:1029A0009003309191038E819F81820F931F9093AA
:1029B00091038093900302C084E0898389812A96E1
:1029C0000FB6F894DEBF0FBECDBFCF91DF91089553
:1029D000DF93CF9300D000D0CDB7DEB79A83898341
:1029E0007C836B8389819A810196409190035091F9
:1029F000910320E733E0B9010E94592C80919003A4
:102A0000909191030196EB81FC819183808380E01A
:102A10000F900F900F900F90CF91DF910895DF935B
:102A2000CF93CDB7DEB760970FB6F894DEBF0FBE79
:102A3000CDBF9C878B877E876D874F87288B888942
:102A4000882F90E09A8389838D859E8596958795BA
:102A500096958795969587959E838D838D819E818A
:102A60009C01220F331F220F331F220F331F8D852E
:102A70009E85821B930B9C838B832B813C81898158
:102A80009A8102C0880F991F2A95E2F79A83898359
:102A90008F85282F30E081E090E002C0880F991FD9
:102AA0002A95E2F7019798878F838D819E819C01FB
:102AB000220F331F220F331F220F331F8D859E8558
:102AC000821B930B9C018F81988502C0880F991FF0
:102AD0002A95E2F798878F832B853C858D819E818F
:102AE000F901E80FF91F8081882F90E09A87898784
:102AF0008D819E819C012F5F3F4F8B859C85FC01C2
:102B0000E20FF31F8081882F90E0982F88279C0187
:102B100089859A85822B932B9A8789878F819885BF
:102B20009C012095309589859A85282339238981B0
:102B30009A81822B932B9A8789872B853C858D815F
:102B40009E81F901E80FF91F898580838D819E811F
:102B50009C012F5F3F4F8B859C85FC01E20FF31F8B
:102B600089859A85892F9927808360960FB6F89476
:102B7000DEBF0FBECDBFCF91DF910895DF93CF931E
:102B8000CDB7DEB72D970FB6F894DEBF0FBECDBF21
:102B90009A8789877C876B874D878B859C859695DF
:102BA000879596958795969587959C838B838B8142
:102BB0009C819C01220F331F220F331F220F331FD2
:102BC0008B859C85821B930B9A8389838D85282F07
:102BD00030E081E090E002C0880F991F2A95E2F76B
:102BE00001979E838D8329853A858B819C81F9018C
:102BF000E80FF91F8081882F90E098878F838B8161
:102C00009C819C012F5F3F4F89859A85FC01E20FD3
:102C1000F31F8081882F90E0982F88279C018F8157
:102C20009885822B932B98878F8329813A818F8176
:102C3000988502C0969587952A95E2F798878F83A5
:102C40002F8138858D819E818223932398878F835E
:102C50008F812D960FB6F894DEBF0FBECDBFCF91FA
:102C6000DF910895DF93CF9300D000D0CDB7DEB7CA
:102C70008A838A81282F30E03C832B838B819C813F
:102C80008130910559F02B813C812730310549F085
:102C90008B819C81009741F4198208C082E089836E
:102CA00005C086E0898302C084E0898389810F9012
:102CB0000F900F900F90CF91DF910895DF93CF93F6
:102CC000CDB7DEB72F970FB6F894DEBF0FBECDBFDE
:102CD0009C878B877E876D878FEF8A878FEF8987A9
:102CE00028C0EB85FC85908189858927882F90E015
:102CF00098878F838B859C8501969C878B878F8196
:102D0000988584579F4F9E838D83ED81FE818491AA
:102D10008C839C818A85892789878F8198858457B0
:102D20009E4F9B838A83EA81FB8184918983898179
:102D30008A871F868D859E85009711F081E08F8799
:102D40008D859E8501979E878D878F85882349F67F
:102D50008A85882F90E0382F22278985882F90E058
:102D6000822B932B2F960FB6F894DEBF0FBECDBFEC
:102D7000CF91DF910895DF93CF93CDB7DEB7109257
:102D8000930381E0CF91DF910895DF93CF930F926A
:102D9000CDB7DEB7898381E08093930389818093E7
:102DA000920381E00F90CF91DF910895DF93CF934D
:102DB00000D00F92CDB7DEB79B838A8319828091B2
:102DC0009303882349F080919203EA81FB818083F9
:102DD0001092930381E0898389810F900F900F9067
:102DE000CF91DF910895DF93CF9300D0CDB7DEB7B9
:102DF00089836A838981882341F0AAE2B0E0EAE20C
:102E0000F0E0808180698C9307C0AAE2B0E0EAE23A
:102E1000F0E080818F768C938A81882379F0AAE212
:102E2000B0E0EAE2F0E0808188668C93A3E2B0E053
:102E3000E3E2F0E0808184608C9307C0AAE2B0E016
:102E4000EAE2F0E080818F7D8C930F900F90CF911C
:102E5000DF9108950F93DF93CF93CDB7DEB76297DD
:102E60000FB6F894DEBF0FBECDBF8C834D835E835B
:102E70006F83788729870A871B821A821982A2E2C8
:102E8000B0E0E2E2F0E0808184608C93A3E2B0E005
:102E9000E3E2F0E080818B7F8C938D819E81AF8116
:102EA000B8858F87988BA98BBA8B8F859889A989CC
:102EB000BA89803026E9920720E0A20720E0B20715
:102EC00009F4EFC08F859889A989BA89813026E9EC
:102ED000920720E0A20720E0B20708F05CC08F85CF
:102EE0009889A989BA89803825E2920720E0A2074B
:102EF00020E0B20709F4C1C08F859889A989BA89F1
:102F0000813825E2920720E0A20720E0B207D8F43A
:102F10008F859889A989BA89803629E0920720E0AF
:102F2000A20720E0B20709F49EC08F859889A9897D
:102F3000BA89803C22E1920720E0A20720E0B20794
:102F400009F496C0D4C08F859889A989BA89803040
:102F50002BE4920720E0A20720E0B20709F497C013
:102F60008F859889A989BA89803820E7920720E05F
:102F7000A20720E0B20709F48FC08F859889A9893C
:102F8000BA89803428E3920720E0A20720E0B20744
:102F900009F478C0ACC08F859889A989BA89803036
:102FA00024E8920723E0A20720E0B20709F48DC0CD
:102FB0008F859889A989BA89813024E8920723E00E
:102FC000A20720E0B20740F58F859889A989BA89C0
:102FD00080302CE2920721E0A20720E0B20709F43A
:102FE0006AC08F859889A989BA89803022EC9207B6
:102FF00021E0A20720E0B20709F462C08F8598891A
:10300000A989BA89803021EE920720E0A20720E04A
:10301000B20709F44BC06BC08F859889A989BA891A
:10302000803221EA920727E0A20720E0B20709F4E4
:1030300056C08F859889A989BA89803422E492077D
:103040002FE0A20720E0B20709F44EC08F859889CF
:10305000A989BA89803920ED920723E0A20720E0F0
:10306000B207C1F144C080EA91E09A83898362C0CB
:103070008FEC90E09A8389835DC087E690E09A8325
:10308000898358C084E490E09A83898353C083E3A2
:1030900090E09A8389834EC082E290E09A8389838C
:1030A00049C089E190E09A83898344C080E190E03F
:1030B0009A8389833FC08CE090E09A8389833AC0E9
:1030C00088E090E09A83898335C083E090E09A831A
:1030D000898330C083E090E09A8389832BC081E0AC
:1030E00090E09A83898326C01A82198223C08D8139
:1030F0009E81AF81B885880F991FAA1FBB1F880FBB
:10310000991FAA1FBB1F880F991FAA1FBB1F880FDB
:10311000991FAA1FBB1F9C01AD0180E094E2A4EFA0
:10312000B0E0BC01CD010E94372CDA01C901019742
:103130009A838983E0E9F0E089819A81892F992730
:103140008083E9E2F0E0898180838A85A82FB0E05E
:10315000BE87AD872D853E852130310549F08D85AF
:103160009E858230910539F48B8180628B8303C008
:103170008B8180638B838985A82FB0E0BC87AB8768
:103180002B853C852730310549F08B859C8588301F
:10319000910539F48B8186608B8303C08B818460B9
:1031A0008B83E5E9F0E08B818860808380E060E0DC
:1031B0000E94F31681E062960FB6F894DEBF0FBE50
:1031C000CDBFCF91DF910F910895DF93CF930F92F1
:1031D000CDB7DEB78983A3E2B0E0E3E2F0E080811F
:1031E00084608C93ECE2F0E08981808381E00F9031
:1031F000CF91DF910895DF93CF9300D0CDB7DEB7A5
:103200009A838983ECE2F0E08081E981FA8180830E
:1032100081E00F900F90CF91DF910895DF93CF93CE
:1032200000D0CDB7DEB79A83898389819A81CC019A
:10323000A0E0B0E029E03DE340E050E0BC01CD017A
:103240000E94182CDC01CB0120E23EE440E050E07B
:10325000BC01CD010E94372CDA01C901909395037E
:1032600080939403EFE4F0E01082EEE4F0E010824B
:10327000EAE7F0E010820E946A1981E00F900F9057
:10328000CF91DF910895DF93CF93CDB7DEB7ECE414
:10329000F0E0118210828091940390919503009741
:1032A00079F0A7E5B0E0E7E5F0E0808180618C93FC
:1032B000EAE4F0E0809194039091950391838083F8
:1032C000AEE4B0E0EEE4F0E0808185608C93CF91D5
:1032D000DF910895DF93CF93CDB7DEB7AEE4B0E0D2
:1032E000EEE4F0E080818A7F8C93A7E5B0E0E7E52B
:1032F000F0E080818F7E8C93A6E5B0E0E6E5F0E01B
:10330000808180618C93CF91DF9108951F920F92FD
:103310000FB60F9200905B000F9211242F933F93F2
:103320004F935F936F937F938F939F93AF93BF93CD
:10333000EF93FF93DF93CF93CDB7DEB7E0914507CF
:10334000F09146070995CF91DF91FF91EF91BF91E1
:10335000AF919F918F917F916F915F914F913F912D
:103360002F910F9000925B000F900FBE0F901F9057
:103370001895EF920F931F93DF93CF93CDB7DEB7DE
:103380002B970FB6F894DEBF0FBECDBF8A836B8339
:103390004C830D831E832F833887E98619828B81A6
:1033A000882331F08B81882319F08B81883F18F0B6
:1033B00082E0898398C08B8180939D038A81282F26
:1033C00030E03B872A878A859B85009731F02A85E4
:1033D0003B8521303105D9F174C087E899E090939D
:1033E000A2038093A10388E999E09093A4038093BA
:1033F000A30380EF99E09093A00380939F0387EA53
:1034000099E09093A6038093A5031092A8031092CD
:10341000A70387E69AE0909348078093470784EDD7
:103420009AE0909344078093430781E29BE0909356
:1034300046078093450780919D032D813E814F81F2
:1034400058856C8109850E94220989833CC088E8DF
:103450009BE09093A2038093A1038AE99BE0909361
:10346000A4038093A30387EF9BE09093A003809332
:103470009F0389EA9BE09093A6038093A503109293
:10348000A8031092A70380E69CE0909348078093DE
:10349000470787E29DE0909344078093430785EDBB
:1034A0009DE0909346078093450780919D032D8171
:1034B0003E814F8158856C8109850E944D0B89831F
:1034C00002C082E089838981882369F40E94BB1647
:1034D000882319F483E0898306C08A8180939E0340
:1034E00081E08093050189812B960FB6F894DEBFA9
:1034F0000FBECDBFCF91DF911F910F91EF90089537
:10350000DF93CF93CDB7DEB727970FB6F894DEBF22
:103510000FBECDBF8C837E836D838C81882309F49D
:1035200094C08C8188230CF490C0F8948D819E8186
:10353000009709F454C01B821A823FC02A813B8144
:10354000C901880F991F820F931FFC01E95FFE4F8D
:1035500080819181009789F02A813B81C901880F80
:10356000991F820F931FFC01E95FFE4F208131817B
:103570008D819E8128173907D9F42A813B81C901A1
:10358000880F991F820F931FFC01EA5FFE4F8C8109
:1035900080832A813B81C901880F991F820F931F65
:1035A000FC01E95FFE4F8D819E81918380830BC07A
:1035B0008A819B8101969B838A838A819B8180314A
:1035C00091050CF4BBCF8A819B818031910511F06C
:1035D0001F8202C084E08F838F81898334C01B8265
:1035E0001A822BC02A813B81C901880F991F820F43
:1035F000931FFC01EA5FFE4F90818C819817C1F404
:103600002A813B81C901880F991F820F931FFC01FA
:10361000EA5FFE4F10822A813B81C901880F991F02
:10362000820F931FFC01E95FFE4F118210820AC0D6
:103630008A819B8101969B838A838A819B818031C9
:10364000910584F21982789402C082E0898389818D
:1036500027960FB6F894DEBF0FBECDBFCF91DF9196
:103660000895DF93CF930F92CDB7DEB71982809183
:103670000501813061F48091A7039091A803009720
:1036800041F0E091A703F091A803099502C086E0FC
:10369000898389810F90CF91DF910895DF93CF9334
:1036A0000F92CDB7DEB7198280910501813041F4C8
:1036B000E091A103F091A20309951092050102C0C7
:1036C00086E0898389810F90CF91DF910895DF9300
:1036D000CF930F92CDB7DEB780910501882351F4C7
:1036E000E091A303F091A403099581E08093050183
:1036F000198208C080910501813011F4198202C03D
:1037000086E0898389810F90CF91DF910895DF93BF
:10371000CF93CDB7DEB727970FB6F894DEBF0FBEB5
:10372000CDBF198280910501882319F026E02F83EF
:10373000CAC0CE0104960E94D616813009F0C2C0DC
:103740008C81282F30E03E832D838D819E818130B6
:10375000910531F02D813E812230310509F1B2C051
:10376000E091A503F091A6038AE993E02BE933E009
:1037700047E953E0B901099589838981882309F0D4
:10378000A1C090919A0380919D03981729F0809190
:103790009A03882309F096C082E00E94C51692C061
:1037A000E0919B03F0919C0380818093990381E0D9
:1037B000809396031B821A8239C02A813B81C901FA
:1037C000880F991F820F931FFC01EA5FFE4F8081D3
:1037D000882389F12A813B81C901880F991F820FB3
:1037E000931FFC01EA5FFE4F908180919903981727
:1037F000C1F42A813B81C901880F991F820F931F51
:10380000FC01E95FFE4F0190F081E02D80919B0368
:1038100090919C0327E933E0B901099580939603C1
:103820000AC08A819B8101969B838A838A819B81BE
:103830008031910514F280919A03882309F442C0E3
:1038400080919603882369F1109298031092970350
:1038500080919B0390919C03209197033091980352
:10386000FC01E20FF31F8091990380688083C901F6
:103870000196909398038093970380919B03909176
:103880009C032091970330919803FC01E20FF31FF2
:10389000809196038083C901019690939803809349
:1038A0009703E0919F03F091A00380919D032091E5
:1038B0009B0330919C034091970350919803B90169
:1038C000099589831F828F8127960FB6F894DEBFF2
:1038D0000FBECDBFCF91DF910895DF93CF9300D07E
:1038E00000D000D0CDB7DEB79E838D8380E889837A
:1038F000E3E3F0E080818B83E0E3F0E080818A8382
:103900001C826AC08B81998189238823A1F08C81D4
:10391000282F30E08D819E81DC01A20FB31F8C81A6
:10392000282F30E08D819E81FC01E20FF31F808102
:1039300081608C9313C08C81282F30E08D819E8113
:10394000DC01A20FB31F8C81282F30E08D819E8176
:10395000FC01E20FF31F80818E7F8C938A81998115
:1039600089238823D1F08C81882F90E09C01285FE7
:103970003F4F8D819E81DC01A20FB31F8C81882F68
:1039800090E09C01285F3F4F8D819E81FC01E20FFA
:10399000F31F808181608C9319C08C81882F90E007
:1039A0009C01285F3F4F8D819E81DC01A20FB31FD8
:1039B0008C81882F90E09C01285F3F4F8D819E81F4
:1039C000FC01E20FF31F80818E7F8C9389818695A5
:1039D00089838C818F5F8C838C81883008F492CFAF
:1039E000E3E6F0E08081882F90E08071907000978E
:1039F00039F08D819E81FC01749681E0808305C041
:103A00008D819E81FC0174961082E3E6F0E0808156
:103A1000882F90E088709070009739F08D819E819A
:103A2000FC01759681E0808305C08D819E81FC013B
:103A300075961082E1E2F0E0808188233CF48D816C
:103A40009E81FC01769681E0808305C08D819E81F8
:103A5000FC0176961082E1E2F0E08081882F90E010
:103A600088709070009739F08D819E81FC01779667
:103A700081E0808305C08D819E81FC017796108254
:103A8000E6E3F0E0808188233CF48D819E81FC0197
:103A9000789681E0808305C08D819E81FC017896B7
:103AA000108226960FB6F894DEBF0FBECDBFCF9121
:103AB000DF910895DF93CF93CDB7DEB7E4E3F0E075
:103AC0001082E1E3F0E01082CF91DF910895DF935F
:103AD000CF9300D000D000D0CDB7DEB79E838D83CA
:103AE0001B821A8280E889831C822FC08C81282F38
:103AF00030E08D819E81FC01E20FF31F8081882FD1
:103B000090E081709070882321F08B819981892BBE
:103B10008B838C81882F90E09C01285F3F4F8D81A3
:103B20009E81FC01E20FF31F8081882F90E081705D
:103B30009070882321F08A819981892B8A838981D9
:103B4000869589838C818F5F8C838C81883070F21D
:103B5000EBE3F0E08B818083A8E3B0E0E8E3F0E002
:103B600080818F7B8C930000A3E2B0E0E3E2F0E081
:103B700080818F7B8C930000A3E2B0E0E3E2F0E071
:103B8000808180648C930000A8E3B0E0E8E3F0E07B
:103B9000808180648C93EBE3F0E08A818083A3E2F0
:103BA000B0E0E3E2F0E080818F7E8C930000A3E23E
:103BB000B0E0E3E2F0E080818F7B8C930000A3E231
:103BC000B0E0E3E2F0E0808180648C930000A3E247
:103BD000B0E0E3E2F0E0808180618C93EBE3F0E021
:103BE000108226960FB6F894DEBF0FBECDBFCF91E0
:103BF000DF910895DF93CF93CDB7DEB7A3E2B0E0B6
:103C0000E3E2F0E080818F7D8C93A3E2B0E0E3E219
:103C1000F0E0808180658C93A2E2B0E0E2E2F0E027
:103C2000808180678C93EBE3F0E01082EAE3F0E0C0
:103C30008FEF8083A8E3B0E0E8E3F0E08081806468
:103C40008C93A7E3B0E0E7E3F0E0808180648C939D
:103C5000A3E2B0E0E3E2F0E0808180628C93CF9158
:103C6000DF910895DF93CF93CDB7DEB72C970FB6D2
:103C7000F894DEBF0FBECDBF9C878B8785E0FE0129
:103C80003696DF01982F1D929A95E9F71B821D82C7
:103C900065C08D81869586958B8380E18A8381E0DE
:103CA00089831C8257C08D81282F30E08B859C85AD
:103CB000FC01E20FF31F8081882F90E081709070EB
:103CC0008823A9F08B81482F50E08B81282F30E08A
:103CD000CE010696FC01E20FF31F90818A81292F05
:103CE000282BCE010696FC01E40FF51F20838D8161
:103CF000882F90E09C012C5E3F4F8B859C85FC01BA
:103D0000E20FF31F8081882F90E0817090708823EC
:103D1000A9F08B81482F50E08B81282F30E0CE0115
:103D20000696FC01E20FF31F90818981292F282B31
:103D3000CE010696FC01E40FF51F20838A81880FCF
:103D40008A838981880F89838D818F5F8D838C81A0
:103D50008F5F8C838C81843008F4A5CF8D81843172
:103D600008F497CF8E810E94931FCE01069601968C
:103D700064E070E00E94B91FA8E3B0E0E8E3F0E07F
:103D8000808180628C93A8E3B0E0E8E3F0E080817A
:103D90008F7D8C932C960FB6F894DEBF0FBECDBFEF
:103DA000CF91DF910895DF93CF93CDB7DEB7A8977A
:103DB0000FB6F894DEBF0FBECDBF88E2FE0131968C
:103DC000DF01982F1D929A95E9F7A7E3B0E0E7E3AA
:103DD000F0E0808180628C93CE0101960E94321EB9
:103DE000A8E3B0E0E8E3F0E0808180628C9300001B
:103DF000A8E3B0E0E8E3F0E080818F7D8C93A896A3
:103E00000FB6F894DEBF0FBECDBFCF91DF910895FE
:103E1000DF93CF9300D000D0CDB7DEB719821A82DE
:103E20003AC0A2E6B0E0E2E6F0E08081887F8C93C1
:103E3000A2E6B0E0E2E6F0E090818A81892B8C93E3
:103E4000000000000000E0E2F0E08081882F90E0B8
:103E5000887090709C838B834B815C8141155105E8
:103E600021F081E090E09C838B832B813C818A81CF
:103E7000882F90E0A90102C0440F551F8A95E2F7F0
:103E8000CA01982F8981892B8983000000000000D6
:103E90008A818F5F8A838A81883008F4C2CF8981C2
:103EA0000F900F900F900F90CF91DF910895DF93B7
:103EB000CF93CDB7DEB7A1E6B0E0E1E6F0E08081D8
:103EC000877F8C93A1E6B0E0E1E6F0E08081876037
:103ED0008C93CF91DF910895DF93CF93CDB7DEB769
:103EE000EDE2F0E08081882F90E080749070009780
:103EF000B9F4A7E3B0E0E7E3F0E0808184608C935D
:103F0000A7E3B0E0E7E3F0E0808182608C93A7E371
:103F1000B0E0E7E3F0E08081877F8C930E9431205E
:103F2000CF91DF910895DF93CF930F92CDB7DEB796
:103F30008983EFE2F0E089818083EEE2F0E0808126
:103F40008823DCF70F90CF91DF910895DF93CF9313
:103F5000CDB7DEB7EFE2F0E08FEF8083EEE2F0E086
:103F600080818823DCF7EFE2F0E08081CF91DF9160
:103F70000895DF93CF9300D000D00F92CDB7DEB776
:103F80009B838A837D836C83EA81FB818081898323
:103F90008A819B8101969B838A83EEE2F0E0808197
:103FA0008823DCF7EFE2F0E0898180838C819D81BA
:103FB00001979D838C838C819D81009729F7EEE288
:103FC000F0E080818823DCF70F900F900F900F9026
:103FD0000F90CF91DF910895DF93CF9300D000D061
:103FE000CDB7DEB79A8389837C836B8389819A817D
:103FF00001979A838983EFE2F0E08FEF80838981D4
:104000009A8101969A838983EEE2F0E08081882389
:10401000DCF7EFE2F0E08081E981FA8180838B8137
:104020009C8101979C838B838B819C81009719F7DE
:104030000F900F900F900F90CF91DF910895DF9325
:10404000CF93CDB7DEB7EDE2F0E083E58083AEE25B
:10405000B0E0EEE2F0E080818E7F8C93CF91DF9133
:104060000895DF93CF93CDB7DEB7EDE2F0E080E5C2
:104070008083AEE2B0E0EEE2F0E0808181608C937C
:10408000CF91DF910895DF93CF93CDB7DEB72C9713
:104090000FB6F894DEBF0FBECDBF9C878B878B8594
:1040A0009C859A83898388E0FE013396DF01982FEF
:1040B0001D929A95E9F7E981FA811182E981FA81E5
:1040C0008481958196958795969587959695879500
:1040D000E981FA818683E981FA818681882321F446
:1040E000E981FA8181E08683E981FA8180818B838D
:1040F00082E08C83E981FA8182819381892F9927DB
:104100008D83E981FA81828193818E83E981FA81AD
:1041100084819581892F99278F83E981FA81848110
:1041200095818887CE01039668E070E00E94E423C1
:104130002C960FB6F894DEBF0FBECDBFCF91DF91A6
:104140000895DF93CF93CDB7DEB729970FB6F894D4
:10415000DEBF0FBECDBF9D838C837F836E83488778
:104160008C819D819B838A83EE81FF819081EA818E
:10417000FB818081981709F05DC08E819F81FC01D1
:1041800031968081823009F049C08885282F30E03F
:10419000EA81FB818681882F90E0059628173907F0
:1041A000D9F5EA81FB818681282F2D5F8E819F8141
:1041B000622F0E948224882379F1EA81FB81878122
:1041C0009085009719F119821BC0EA81FB818781D4
:1041D00090859C018981882F90E0D901A80FB91F93
:1041E0008981882F90E09C012D5F3F4F8E819F81B8
:1041F000FC01E20FF31F80818C9389818F5F89839B
:10420000EA81FB81968189818917F8F2EA81FB8135
:10421000118281E089870FC019860DC08A819B8138
:1042200001962E813F8162E0A90128850E94252404
:10423000898701C01986898529960FB6F894DEBF53
:104240000FBECDBFCF91DF910895DF93CF93CDB750
:10425000DEB72C970FB6F894DEBF0FBECDBF9C879C
:104260008B878B859C859A83898388E0FE013396B2
:10427000DF01982F1D929A95E9F7E981FA81108262
:10428000E981FA8181818B8385E08C83E981FA81E0
:104290008681882F90E0892F990F990B8D83E98172
:1042A000FA8186818E83E981FA810280F381E02D93
:1042B0008081882311F08FEF8F83CE01039668E011
:1042C00070E00E94E4232C960FB6F894DEBF0FBE78
:1042D000CDBFCF91DF910895DF93CF93CDB7DEB7F8
:1042E00028970FB6F894DEBF0FBECDBF9C838B839B
:1042F0007E836D834F838B819C819A838983ED813B
:10430000FE819081E981FA818181981709F06BC063
:104310008D819E81FC0131968081853009F058C0E5
:104320008F81883009F052C08D819E8166E00E94A5
:104330008224882309F44AC08D819E81FC01329633
:104340008081282F30E0E981FA818681882F90E0F2
:10435000892F990F990B28173907C1F58D819E81F7
:10436000FC0133969081E981FA818681981771F575
:104370008D819E81FC0135968081882339F5E98104
:10438000FA81848195810097D9F08D819E81FC010D
:10439000349680818F3F39F4E981FA810480F58178
:1043A000E02D81E080838D819E81FC0134968081A7
:1043B000882331F4E981FA810480F581E02D1082AF
:1043C000E981FA81108281E088870EC018860CC0CE
:1043D00089819A812D813E8165E0A9012F810E940A
:1043E0002524888701C01886888528960FB6F894FA
:1043F000DEBF0FBECDBFCF91DF910895DF93CF9386
:10440000CDB7DEB72C970FB6F894DEBF0FBECDBF89
:104410009C878B878B859C859A83898388E0FE01A6
:104420003396DF01982F1D929A95E9F7E981FA8179
:104430001182E981FA8180818B8386E08C83E98116
:10444000FA8182819381892F99278D83E981FA816D
:10445000828193818E83E981FA8181859285FC0135
:1044600080819181892F99278F83E981FA818185C4
:104470009285FC01808191818887CE01039668E056
:1044800070E00E94E4232C960FB6F894DEBF0FBEB6
:10449000CDBFCF91DF910895DF93CF93CDB7DEB736
:1044A00028970FB6F894DEBF0FBECDBF9C838B83D9
:1044B0007E836D834F838B819C819A838983ED8179
:1044C000FE819081E981FA818081981709F066C0A8
:1044D0008D819E81FC0131968081863009F052C029
:1044E0008F81883009F04CC08D819E8166E00E94EA
:1044F0008224882309F444C08D819E81FC01329678
:104500008081282F30E0E981FA8182819381892F8F
:10451000992728173907A1F58D819E81FC013396D3
:104520008081282F30E0E981FA81828193812817E8
:10453000390731F5E981FA81878190850097D1F0BB
:10454000E981FA8187819085DC018D819E81FC0162
:1045500034968081882F90E0382F22278D819E818C
:10456000FC0135968081882F90E0822B932B119649
:104570009C938E93E981FA81118281E088870FC034
:1045800018860DC089819A8101962D813E8166E051
:10459000A9012F810E942524888701C0188688855B
:1045A00028960FB6F894DEBF0FBECDBFCF91DF9136
:1045B0000895DF93CF93CDB7DEB7CA50D1400FB681
:1045C000F894DEBF0FBECDBFFE01E75FFE4F9183C3
:1045D0008083FE01E75FFE4F808191819C838B8306
:1045E00084E091E0FE013596DF019C011D9221508F
:1045F0003040E1F7EB81FC811082EB81FC8181810D
:104600008D838FE08E83EB81FC818481882F90E005
:10461000892F990F990B8F83EB81FC818481888787
:10462000EB81FC8185819681892F99278987EB8190
:10463000FC81858196818A87EB81FC8185819681C9
:10464000969587959695879596958795898389817F
:10465000882F90E0880F991F880F991F880F991F46
:104660009C01EB81FC81858196812817390718F41C
:1046700089818F5F898389818B871A821AC08A8199
:10468000882F90E0AC01495F5F4FEB81FC81228174
:1046900033818A81882F90E0F901E80FF91F20818A
:1046A000CE010596FC01E40FF51F20838A818F5F00
:1046B0008A839A818981981710F38981882F90E0E5
:1046C00009969C01CE010596B9010E94E423C65FBC
:1046D000DE4F0FB6F894DEBF0FBECDBFCF91DF9196
:1046E0000895DF93CF93CDB7DEB72C970FB6F8942C
:1046F000DEBF0FBECDBF98878F837A8769874B87D0
:104700008F8198859E838D83E985FA859081ED81DF
:10471000FE818181981709F04CC089859A85FC013A
:10472000319680818F30D1F58B858830A9F58985C8
:104730009A8566E00E948224882371F189859A8592
:10474000FC0132968081882F90E0382F22278985BE
:104750009A85FC0133968081882F90E0822B932BE1
:104760009C838B8389859A85FC0134968081882F70
:1047700090E0382F222789859A85FC013596808123
:10478000882F90E0822B932B9A838983ED81FE8181
:10479000108281E08C870EC01C860CC08D819E81AA
:1047A00029853A856FE0A9012B850E9425248C87F5
:1047B00001C01C868C852C960FB6F894DEBF0FBE08
:1047C000CDBFCF91DF910895DF93CF9300D000D07C
:1047D00000D0CDB7DEB79C838B837E836D838D81C4
:1047E0009E819C01225030408B819C81B9010E94A6
:1047F0005E169A8389838D819E819C012250304070
:104800008B819C81FC01E20FF31F898180838D8164
:104810009E819C01215030408B819C81FC01E20FE4
:10482000F31F89819A81892F992780832D818B811C
:104830009C81622F0E94A72726960FB6F894DEBFB0
:104840000FBECDBFCF91DF910895DF93CF93CDB74A
:10485000DEB729970FB6F894DEBF0FBECDBF9C839D
:104860008B836D835F834E8328878D81882F90E0B3
:104870009C0120583F4F8E819F81FC0131968081A1
:10488000882F90E02817390791F58885853079F5CC
:104890008E819F8163E070E00E945E169A83898317
:1048A00089819A819C0130708E819F81FC013396B1
:1048B0008081882F90E028173907C9F489819A816F
:1048C000292F33278E819F81FC0134968081882F88
:1048D00090E02817390759F48E819F81FC013296A8
:1048E0008081EB81FC81808381E0898701C019860A
:1048F000898529960FB6F894DEBF0FBECDBFCF9144
:10490000DF910895DF93CF9300D000D000D0CDB7D2
:10491000DEB79C838B836D838D81282F30E08B8164
:104920009C81B9010E945E169A83898389819A814C
:10493000AC0150708D81282F30E08B819C81FC016F
:10494000E20FF31F8081882F90E048175907C1F4C8
:1049500089819A81492F55278D81882F90E09C016C
:104960002F5F3F4F8B819C81FC01E20FF31F808101
:10497000882F90E04817590719F481E08E8301C011
:104980001E828E8126960FB6F894DEBF0FBECDBF75
:10499000CF91DF910895DF93CF93CDB7DEB78091AC
:1049A000AD03882309F4A4C18091B003882309F4DE
:1049B0009FC18091370190913801009709F0AAC0FA
:1049C0008091AF038093AE038091AF038F5F80939C
:1049D000AF039091AF038091AD03981750F0109200
:1049E000AF03A5E6B0E0E5E6F0E0908182E089273C
:1049F0008C938091AE03882F90E0880F991FFC0163
:104A0000E454FB4F80819181009709F471C180913A
:104A1000AE03882F90E0880F991FFC01E454FB4FF0
:104A20000190F081E02D8481882309F461C1809197
:104A3000AE03882F90E0880F991FFC01E454FB4FD0
:104A40000190F081E02D15828091AE03882F90E0D7
:104A5000880F991FFC01E454FB4F0190F081E02D79
:104A6000238534858091AE03882F90E0880F991FAD
:104A7000FC01E454FB4F0190F081E02D8081918195
:104A8000F90109958091AE03882F90E0880F991F56
:104A9000FC01E454FB4F0190F081E02D2785308923
:104AA0008091AE03882F90E0880F991FFC01E45499
:104AB000FB4F0190F081E02D80819181F9010995F2
:104AC0008091AE03882F90E0880F991FFC01E45479
:104AD000FB4F0190F081E02D828193819093AA0396
:104AE0008093A9038091AE03882F90E0880F991FCF
:104AF000FC01E454FB4F0190F081E02D22813381D1
:104B000080913601882F90E0820F931F9093380197
:104B1000809337018091A9039091AA03009709F42B
:104B20006EC08091A9039091AA039093AC038093E7
:104B3000AB038091AE03882F90E0880F991FFC0192
:104B4000E454FB4F0190F081E02DA189B28980915E
:104B5000AE03882F90E0880F991FFC01E454FB4FAF
:104B60000190F081E02D808191812091BA043091F3
:104B7000BB044091B904B901FD010995882309F4EA
:104B8000B7C08091AE03882F90E0880F991FFC0179
:104B9000E454FB4F0190F081E02D21853285809116
:104BA000AE03882F90E0880F991FFC01E454FB4F5F
:104BB0000190F081E02D80819181F901099580912A
:104BC000AE03882F90E0880F991FFC01E454FB4F3F
:104BD0000190F081E02D16828091AE03882F90E045
:104BE000880F991FFC01E454FB4F0190F081E02DE8
:104BF00081E085831092AA031092A90379C0809165
:104C0000AE03882F90E0880F991FFC01E454FB4FFE
:104C10000190F081E02D258536858091AE03882FA7
:104C200090E0880F991FFC01E454FB4F0190F08144
:104C3000E02D80819181F90109958091AE03882F43
:104C400090E0880F991FFC01E454FB4F0190F08124
:104C5000E02D8581882309F04BC08091AE03882F19
:104C600090E0880F991FFC01E454FB4F0190F08104
:104C7000E02D82E085838091AE03882F90E0880F3D
:104C8000991FFC01E454FB4F0190F081E02D8681D7
:104C9000853080F48091AE03882F90E0880F991FB3
:104CA000FC01E454FB4F0190F081E02D86818F5F81
:104CB00086831EC08091AE03882F90E0880F991FD5
:104CC000FC01E454FB4F0190F081E02D27813085F9
:104CD0008091AE03882F90E0880F991FFC01E45467
:104CE000FB4F0190F081E02D80819181F9010995C0
:104CF000CF91DF910895DF93CF93CDB7DEB781E0F9
:104D00008093B003CF91DF910895DF93CF93CDB718
:104D1000DEB71092B003CF91DF910895DF93CF9368
:104D2000CDB7DEB78091B003CF91DF910895DF93C7
:104D3000CF930F92CDB7DEB70E94852681EB93E02B
:104D40009093B7048093B60481EB93E09093BB04F7
:104D50008093BA041092AD0319820DC08981882F07
:104D600090E0880F991FFC01E454FB4F11821082E0
:104D700089818F5F89838981823380F30F90CF91FE
:104D8000DF910895DF93CF93CDB7DEB780913701E0
:104D900090913801009749F0809137019091380146
:104DA000019790933801809337018091A9039091E6
:104DB000AA03009749F08091A9039091AA03019753
:104DC0009093AA038093A903CF91DF910895DF9375
:104DD000CF9300D00F92CDB7DEB79A8389838091AD
:104DE000AD03882F90E0880F991FFC01E454FB4F1E
:104DF00089819A81918380838091AD038F5F8093B5
:104E0000AD038091AD03833328F082E38093AD033B
:104E10001B8202C081E08B838B810F900F900F90DB
:104E2000CF91DF910895DF93CF9300D0CDB7DEB758
:104E30009A838983E981FA8111821082E981FA815A
:104E400084E690E093838283E981FA811482E98188
:104E5000FA811682E981FA811582E981FA8187E770
:104E600097E294878387E981FA8183E897E29687BE
:104E70008587E981FA8186E597E2908B8787E981CA
:104E8000FA8182E697E2928B818BE981FA818FE841
:104E900097E290878783E981FA818BE997E292878D
:104EA00081870F900F90CF91DF910895DF93CF937B
:104EB00000D0CDB7DEB79A8389830F900F90CF9142
:104EC000DF910895DF93CF9300D000D00F92CDB73C
:104ED000DEB79A8389837C836B834D8381E00F9057
:104EE0000F900F900F900F90CF91DF910895DF9367
:104EF000CF9300D0CDB7DEB79A8389830F900F9000
:104F0000CF91DF910895DF93CF9300D0CDB7DEB777
:104F10009A8389830F900F90CF91DF910895DF934B
:104F2000CF9300D0CDB7DEB79A8389830F900F90CF
:104F3000CF91DF910895DF93CF9300D0CDB7DEB747
:104F40009A8389830F900F90CF91DF910895DF931B
:104F5000CF9300D00F92CDB7DEB79A8389836B834E
:104F60004091B6045091B7048B81E82FF0E029817D
:104F70003A81CA01B901AF010E94592C8B818093FB
:104F8000B8041092B5048091B5048093B904AAE2E4
:104F9000B0E0EAE2F0E080818F768C93A3E2B0E0AB
:104FA000E3E2F0E0808184608C93ACE2B0E0209199
:104FB000B6043091B7048091B504882F90E0F901D0
:104FC000E80FF91F80818C930F900F900F90CF9175
:104FD000DF9108951F920F920FB60F9200905B0021
:104FE0000F9211242F933F938F939F93AF93BF936F
:104FF000EF93FF93DF93CF93CDB7DEB78091B003EC
:10500000882341F4A3E2B0E0E3E2F0E080818B7F0B
:105010008C932FC08091B5048F5F8093B5049091DD
:10502000B5048091B804981781F0ACE2B0E020910B
:10503000B6043091B7048091B504882F90E0F9014F
:10504000E80FF91F80818C9314C0A3E2B0E0E3E283
:10505000F0E080818B7F8C93AAE2B0E0EAE2F0E09E
:10506000808180698C931092B8048091B8048093F9
:10507000B504CF91DF91FF91EF91BF91AF919F91D7
:105080008F913F912F910F9000925B000F900FBE78
:105090000F901F9018951F920F920FB60F920090CD
:1050A0005B000F9211242F933F934F935F936F9365
:1050B0007F938F939F93AF93BF93EF93FF93DF9370
:1050C000CF9300D0CDB7DEB78091B003882331F401
:1050D000E0914707F0914807099518C0ECE2F0E02D
:1050E000808189838091B9042091BA043091BB04F6
:1050F0008091B904882F90E0F901E80FF91F8981A8
:1051000080838091B9048F5F8093B9040F900F90D2
:10511000CF91DF91FF91EF91BF91AF919F918F91CF
:105120007F916F915F914F913F912F910F900092DE
:105130005B000F900FBE0F901F9018951F920F925B
:105140000FB60F9200905B000F9211242F933F93A4
:105150004F935F936F937F938F939F93AF93BF937F
:10516000EF93FF93DF93CF93CDB7DEB78091B0037A
:10517000882329F4E0914307F09144070995CF91E2
:10518000DF91FF91EF91BF91AF919F918F917F91AF
:105190006F915F914F913F912F910F9000925B0023
:1051A0000F900FBE0F901F9018950F93DF93CF9322
:1051B000CDB7DEB761970FB6F894DEBF0FBECDBF97
:1051C00069837A838B839C834D832E830F838091A5
:1051D000B003882309F4D6C1A3E2B0E0E3E2F0E033
:1051E00080818B7F8C93EBE2F0E01082EAE2F0E0CA
:1051F0001082E5E9F0E0108289819A81AB81BC815F
:105200008E879F87A88BB98B8E859F85A889B98942
:10521000803026E9920720E0A20720E0B20709F4D7
:1052200008C18E859F85A889B989813026E99207B2
:1052300020E0A20720E0B20708F05CC08E859F85C1
:10524000A889B989803825E2920720E0A20720E0EA
:10525000B20709F4CAC08E859F85A889B9898138AB
:1052600025E2920720E0A20720E0B207D8F48E855D
:105270009F85A889B989803629E0920720E0A20796
:1052800020E0B20709F49FC08E859F85A889B9895F
:10529000803C22E1920720E0A20720E0B20709F457
:1052A0009BC00AC18E859F85A889B98980302BE46F
:1052B000920720E0A20720E0B20709F4A8C08E857B
:1052C0009F85A889B989803820E7920720E0A20746
:1052D00020E0B20709F4A4C08E859F85A889B9890A
:1052E000803428E3920720E0A20720E0B20709F407
:1052F00085C0E2C08E859F85A889B989803024E861
:10530000920723E0A20720E0B20709F4B6C08E8519
:105310009F85A889B989813024E8920723E0A207F4
:1053200020E0B20740F58E859F85A889B989803035
:105330002CE2920721E0A20720E0B20709F48BC01B
:105340008E859F85A889B989803022EC920721E05B
:10535000A20720E0B20709F487C08E859F85A8893F
:10536000B989803021EE920720E0A20720E0B20741
:1053700009F468C0A1C08E859F85A889B98980324B
:1053800021EA920727E0A20720E0B20709F487C0CC
:105390008E859F85A889B989803422E492072FE001
:1053A000A20720E0B20709F483C08E859F85A889F3
:1053B000B989803920ED920723E0A20720E0B207E7
:1053C00009F464C079C080EA91E0A0E0B0E089838C
:1053D0009A83AB83BC8370C08FEC90E0A0E0B0E018
:1053E00089839A83AB83BC8367C087E690E0A0E0A3
:1053F000B0E089839A83AB83BC835EC084E490E091
:10540000A0E0B0E089839A83AB83BC8355C083E37B
:1054100090E0A0E0B0E089839A83AB83BC834CC06A
:1054200082E290E0A0E0B0E089839A83AB83BC8302
:1054300043C089E190E0A0E0B0E089839A83AB8328
:10544000BC833AC080E190E0A0E0B0E089839A8319
:10545000AB83BC8331C08CE090E0A0E0B0E08983F6
:105460009A83AB83BC8328C088E090E0A0E0B0E0E2
:1054700089839A83AB83BC831FC083E090E0A0E064
:10548000B0E089839A83AB83BC8316C083E090E04D
:10549000A0E0B0E089839A83AB83BC830DC081E038
:1054A00090E0A0E0B0E089839A83AB83BC8304C022
:1054B00019821A821B821C82E0E9F0E089819A81BC
:1054C000AB81BC81892F9A2FAB2FBB278083E9E268
:1054D000F0E0898180838D81A82FB0E0BD87AC8703
:1054E0002C853D852730310569F08C859D85883078
:1054F000910579F4A5E9B0E0E5E9F0E08081866006
:105500008C9307C0A5E9B0E0E5E9F0E08081846014
:105510008C938E81A82FB0E0BB87AA872A853B8514
:105520002130310561F08A859B858230910539F4FF
:10553000A5E9B0E0E5E9F0E0808188608C938F8197
:10554000A82FB0E0B987A887288539852130310593
:1055500031F0888599858230910549F00FC0A5E921
:10556000B0E0E5E9F0E0808180638C9307C0A5E9B5
:10557000B0E0E5E9F0E0808180628C93EAE2F0E05F
:1055800088E4808361960FB6F894DEBF0FBECDBF6E
:10559000CF91DF910F910895DF93CF93CDB7DEB711
:1055A00028970FB6F894DEBF0FBECDBF9D838C83C6
:1055B0007F836E8348878E819F8196958795969588
:1055C0008795969587959B838A838E819F819C0181
:1055D0002770307081E090E0022E02C0880F991F82
:1055E0000A94E2F789838885882399F02C813D818C
:1055F0008A819B81D901A80FB91F2C813D818A81A5
:105600009B81F901E80FF91F90818981892B8C9387
:1056100014C02C813D818A819B81D901A80FB91FBB
:105620002C813D818A819B81F901E80FF91F8081DE
:10563000982F8981809589238C9328960FB6F894AA
:10564000DEBF0FBECDBFCF91DF910895DF93CF9323
:1056500000D000D00F92CDB7DEB79A8389837C83C8
:105660006B838B819C819C01369527953695279578
:105670003695279589819A81FC01E20FF31F80817D
:10568000282F30E08B819C8187709070A90102C027
:10569000559547958A95E2F7CA01817090701D82F1
:1056A000009711F051E05D838D810F900F900F9066
:1056B0000F900F90CF91DF910895DF93CF9300D09B
:1056C00000D0CDB7DEB79A8389837C836B838B81CF
:1056D0009C819C013695279536952795369527957B
:1056E00089819A81DC01A20FB31F8B819C819C016F
:1056F00036952795369527953695279589819A81F0
:10570000FC01E20FF31F8081482F8B819C819C015B
:105710002770307081E090E0022E02C0880F991F40
:105720000A94E2F784278C930F900F900F900F90BC
:10573000CF91DF910895DF93CF9300D000D0CDB704
:10574000DEB79A8389837C836B838B819C819C01E8
:1057500036952795369527953695279589819A818F
:10576000DC01A20FB31F8B819C819C01369527958C
:10577000369527953695279589819A81FC01E20F08
:10578000F31F8081482F8B819C819C012770307092
:1057900081E090E0022E02C0880F991F0A94E2F780
:1057A000842B8C930F900F900F900F90CF91DF91DF
:1057B0000895DF93CF9300D000D0CDB7DEB79A83A2
:1057C00089837C836B838B819C819C013695279593
:1057D000369527953695279589819A81DC01A20F08
:1057E000B31F8B819C819C01369527953695279513
:1057F0003695279589819A81FC01E20FF31F8081FC
:10580000482F8B819C819C012770307081E090E053
:10581000022E02C0880F991F0A94E2F78095842314
:105820008C930F900F900F900F90CF91DF91089570
:10583000629FD001739FF001829FE00DF11D649F74
:10584000E00DF11D929FF00D839FF00D749FF00D00
:10585000659FF00D9927729FB00DE11DF91F639FA1
:10586000B00DE11DF91FBD01CF0111240895A1E282
:105870001A2EAA1BBB1BFD010DC0AA1FBB1FEE1FCA
:10588000FF1FA217B307E407F50720F0A21BB30B15
:10589000E40BF50B661F771F881F991F1A9469F791
:1058A00060957095809590959B01AC01BD01CF01ED
:1058B0000895FB01DC0102C001900D92415050405F
:0858C000D8F70895F894FFCF1A
:1058C800AABBCC43060211E81404C31303F8111051
:1058D8006B1106181117AB1201620E05300F0FA7D6
:1058E8000F024B1000000000000000000000000044
:0A58F800000000000000020500009F
:00000001FF
