:100000000C9446010C9465010C9465010C946501F7
:100010000C9465010C9465010C9465010C946501C8
:100020000C9465010C9465010C9465010C946501B8
:100030000C94640F0C9465010C9465010C9465019B
:100040000C9465010C9465010C94D60E0C94010F70
:100050000C94CB0E0C9465010C9465010C94650115
:100060000C9465010C9465010C946C020C94650170
:100070000C9465010C9465010C9465010C94650168
:100080000C9465010C9465010C94650100C18140DC
:1000900001C0804101C0804100C1814001C0804158
:1000A00000C1814000C1814001C0804101C0804148
:1000B00000C1814000C1814001C0804100C1814038
:1000C00001C0804101C0804100C1814001C0804128
:1000D00000C1814000C1814001C0804100C1814018
:1000E00001C0804101C0804100C1814000C1814008
:1000F00001C0804101C0804100C1814001C08041F8
:1001000000C1814000C1814001C0804101C08041E7
:1001100000C1814000C1814001C0804100C18140D7
:1001200001C0804101C0804100C1814000C18140C7
:1001300001C0804101C0804100C1814001C08041B7
:1001400000C1814000C1814001C0804100C18140A7
:1001500001C0804101C0804100C1814001C0804197
:1001600000C1814000C1814001C0804101C0804187
:1001700000C1814000C1814001C0804100C1814077
:1001800001C0804101C0804100C1814000C0C10167
:10019000C30302C2C60607C705C5C404CC0C0DCDF7
:1001A0000FCFCE0E0ACACB0BC90908C8D81819D967
:1001B0001BDBDA1A1EDEDF1FDD1D1CDC14D4D51597
:1001C000D71716D6D21213D311D1D010F03031F187
:1001D00033F3F23236F6F737F53534F43CFCFD3DB7
:1001E000FF3F3EFEFA3A3BFB39F9F83828E8E929A7
:1001F000EB2B2AEAEE2E2FEF2DEDEC2CE42425E557
:1002000027E7E62622E2E323E12120E0A06061A1C6
:1002100063A3A26266A6A767A56564A46CACAD6D76
:10022000AF6F6EAEAA6A6BAB69A9A86878B8B979E6
:10023000BB7B7ABABE7E7FBF7DBDBC7CB47475B516
:1002400077B7B67672B2B373B17170B05090915106
:100250009353529296565797559594549C5C5D9D36
:100260005F9F9E5E5A9A9B5B995958988848498926
:100270004B8B8A4A4E8E8F4F8D4D4C8C44848545D6
:1002800087474686824243834181804011241FBEB6
:10029000CFEFD0E1DEBFCDBF11E0A0E0B1E0E2E5FD
:1002A000F1E300E00BBF02C007900D92A833B10745
:1002B000D9F717E0A8E3B1E001C01D92A531B1075D
:1002C000E1F70E94C8030C94A7180C9400008091D9
:1002D000CE019091CF019093A9018093A801089538
:1002E000DC016115710541F1CA01860F971F863641
:1002F000910510F56150704012C0FB01EE0FFF1F19
:10030000E658FD4F808191819C9380819181119667
:100310008C93119712966F5F7F4F4150504041155B
:10032000510559F78091CE019091CF019093A90189
:100330008093A80180E0089581E00895CF93DF9332
:10034000EC016115710509F449C0CA01860F971FB8
:100350008636910508F042C0222319F02130F1F5CC
:1003600017C06150704010C0FB01EE0FFF1FE65533
:10037000FE4F80819181988380819181898322962B
:100380006F5F7F4F415050404115510569F71CC0C8
:100390006150704016C0B881A0E0FB01EE0FFF1F56
:1003A000E655FE4FB183A08320813181898190E0A1
:1003B000282B392B3183208322966F5F7F4F41504A
:1003C00050404115510539F78091CE019091CF01F0
:1003D0009093A9018093A80180E001C081E0DF91A2
:1003E000CF9108950F931F93CF93DF93EC01A0E07B
:1003F000B0E001E010E032C0CD01E3E096958795D2
:10040000EA95E1F7FB01EA0FFB1F2081FE01E80FEF
:10041000F91F33E0880F991F3A95E1F7222371F015
:100420009D01281B390BC901980102C0220F331FFF
:100430008A95E2F7C9012081282B0EC09D01281B57
:10044000390BC901980102C0220F331F8A95E2F7C8
:10045000C90180952081282320831196A417B50710
:1004600058F2DF91CF911F910F9108950F931F9331
:1004700005E610E0F80180818B7F8083E4E6F0E000
:100480008081876080830E94A11188B3816188BBCD
:1004900087B3816187BB129A1A980E9459120E94F1
:1004A00038120E94D9110E947B11F801808184606A
:1004B000808389EF90E0909387008093860010926C
:1004C0008B008BE080938A00EDE7F0E08081806113
:1004D00080831F910F9108951F920F920FB60F9274
:1004E0000BB60F9211242F933F934F935F936F930B
:1004F0007F938F939F93AF93BF93EF93FF938091DD
:100500006500816080936500809178029091790206
:10051000019690937902809378028091780290916D
:1005200079020A9739F481E08093A101109279024F
:1005300010927802809176029091770201969093C2
:1005400077028093760280917602909177028436CA
:10055000910539F481E08093A20110927702109204
:1005600076028091740290917502019690937502C3
:10057000809374028091740290917502845F91401F
:1005800051F481E090E09093A4018093A301109234
:10059000750210927402809172029091730201961A
:1005A0009093730280937202809172029091730211
:1005B000885E934051F481E090E09093A60180938F
:1005C000A50110927302109272020E949C168091F3
:1005D000CE019091CF01892BA1F08091A80190913B
:1005E000A901892B51F08091A8019091A90101974F
:1005F0009093A9018093A80106C081E08093A70190
:1006000002C01092A701809165008E7F80936500E3
:10061000FF91EF91BF91AF919F918F917F916F91DA
:100620005F914F913F912F910F900BBE0F900FBE96
:100630000F901F901895EF92FF920F931F93CF93F7
:10064000DF937C016115710551F1CA01860F971F77
:100650008636910520F5EA018B010150104012C049
:10066000AE01C930D10514F048E050E08EE493E0CB
:10067000B80150E00E944A0DF70181937F0128974D
:10068000085F1F4F1C161D065CF38091CE019091F0
:10069000CF019093A9018093A80180E001C081E07F
:1006A000DF91CF911F910F91FF90EF900895EF92FE
:1006B000FF920F931F93CF93DF937C016115710518
:1006C00009F446C0CA01860F971F8636910508F0C7
:1006D0003FC0EA018B01015010402223A9F02130D4
:1006E000B9F529C0AE01C930D10514F048E050E099
:1006F00082E493E0B80150E00E944A0DF701819333
:100700007F01085F1F4F28971C161D065CF316C05B
:10071000F70121917F01AE01C930D10514F048E005
:1007200050E082E493E0B80150E030E00E94100D08
:10073000085F1F4F28971C161D0654F38091CE01A9
:100740009091CF019093A9018093A80180E001C00E
:1007500081E0DF91CF911F910F91FF90EF9008956D
:100760000F9360E072EC81E090E048E021E001E06E
:100770000E94FE160F9108950F9360E875E280E0E5
:1007800090E048E021E000E00E94FE160F910895FD
:100790003F924F925F926F927F928F929F92AF9211
:1007A000BF92CF92DF92EF92FF920F931F93DF934E
:1007B000CF93CDB7DEB729970FB6F894DEBF0FBE43
:1007C000CDBFDE011796E0E0F1E083E001900D92ED
:1007D0008150E1F71E821D8219821A821B821C82BF
:1007E0000E9436020E94801687E395E00E94D4168C
:1007F000BBE04B2E409201064092040688E491E053
:10080000909303068093020660E076E070933805CB
:10081000609337055524539450923B05A8E06A2E07
:10082000712C70923A056092390586E894E19093B4
:1008300047058093460586E493E1909349058093AC
:1008400048058CEF96E190933F0580933E05F7E6CF
:100850008F2EF1E09F2E90924105809240058AE410
:1008600095E00E94D416E3E03E2E309220051092CF
:1008700023057AE0C72ED12CD0922505C0922405FD
:100880008EEF95E090932205809321058FE195E00E
:1008900090934B0580934A0550924E0570924D05FA
:1008A00060924C0568EBA62E64E1B62EB0925A0514
:1008B000A09259050AE813E110935C0500935B05CB
:1008C00090925405809253058AE495E00E94BB16ED
:1008D0008DE595E00E94D4164092280510922B05D4
:1008E000D0922D05C0922C0559E0E52E56E0F52E4C
:1008F000F0922A05E092290587E295E090935E0543
:1009000080935D0550926105D0926005C0925F05AD
:10091000B0926D05A0926C0510936F0500936E0563
:1009200090926705809266058DE595E00E94BB1662
:1009300080E795E00E94D4163092F8051092FB05EE
:100940004CE0A42EB12CB092FD05A092FC05F092D3
:10095000FA05E092F90587EF95E090937105809391
:10096000700550927405709273056092720534EEB2
:10097000E32E33E1F32EF0928005E0927F050FED38
:1009800012E1109382050093810590927A0580927E
:10099000790580E795E00E94BB1683E895E00E9408
:1009A000D4164092010610920406B0920606A09258
:1009B000050687E096E0909303068093020680E0A8
:1009C00096E0909384058093830550928705D0929A
:1009D0008605C0928505F0929305E09292051093EA
:1009E00095050093940590928D0580928C0583E87F
:1009F00095E00E94BB1686E995E00E94D4164092CD
:100A000030058FE090E09093320580933105CE0160
:100A10000596909334058093330510923605109215
:100A200035058FE295E09093970580939605509257
:100A30009A0570929905609298058AE494E19093E2
:100A4000A6058093A50580E093E19093A805809387
:100A5000A7059092A00580929F0586E995E00E94E7
:100A6000BB16789411E000E044245524AA24A394F2
:100A700027E0822E912C8C0E9D1E89E391E00E942E
:100A800028112A8180914F01882319F080E090E09D
:100A900008C080914D0190E0882309F491E09A25E7
:100AA000892F282B2A832B8180915001882319F0CC
:100AB00080E090E008C080914E0190E0882309F426
:100AC00091E09A25892F282B2B8399818B8188236C
:100AD00029F48A8120E030E0882311F021E030E021
:100AE000922B99839C818091A701892B8C83809183
:100AF0003801809352018A81809353018B818093C6
:100B000054018C8180935501898180935601809195
:100B1000CE019091CF0120E0892B09F021E02093B4
:100B200057010E94AF11C82E112311F4801791F1C3
:100B3000CC2019F40E94761602C00E947A160E94F8
:100B4000F50F0E947D168823B9F46C2D40E000E07B
:100B500011EE20E030E092E0E92E0E94941084E350
:100B600061E0A40123E030E00E94E00C0E94E60F67
:100B7000809144038E7F0CC060E072EC81E090E0D5
:100B800048E021E001E00E94FE168091440381606C
:100B9000809344038091A101882381F01092A101E8
:100BA00080915A038F5F80935A03823339F4809186
:100BB00007068A258093070610925A038091A201A6
:100BC000882311F01092A2018091A3019091A401B9
:100BD000892B59F01092A4011092A30180E090E0BB
:100BE000452811F481E090E02C018091A5019091BD
:100BF000A601892B21F01092A6011092A5018EE486
:100C000093E069E371E04AE250E00E94F2010E9441
:100C10007D16882319F40E94091018C0809144039E
:100C2000816080934403809138018D831E820E94ED
:100C300008159091FE058091070681709E7F892B93
:100C4000809307068091FF058093080680915101EB
:100C5000882331F08C81882319F48981882329F035
:100C6000809144038E7F80934403809151018823B7
:100C700021F080916901882391F480916B01882390
:100C800031F08981882319F48C81882321F0109216
:100C90004203109243031D9840E050E002C01D9AA9
:100CA000FBCFDA01A75ABE4F1C92242F269526951A
:100CB000269530E0F901EE5BFC4F808190E013E077
:100CC000220F331F1A95E1F7BA01621B730B062E30
:100CD00002C0959587950A94E2F780FDAC924F5F2C
:100CE0005F4F43315105E9F689E591E00E947E119D
:100CF000809169018093380180915101882321F00E
:100D000080916A01882331F01C821A821B82109222
:100D1000A7011982A9E7B1E0E9E3F1E080E10190E0
:100D20000D928150E1F7ADE8B1E0E9E5F1E080E155
:100D300001900D928150E1F780913801882361F094
:100D400080913801882319F480E090E007C080E0AA
:100D500090E04114510411F081E090E0809389010A
:100D60008C8180938B0183B190E0969587959695C1
:100D70008795817080938C0180914D0180939D01B6
:100D800080914E0180939E018A8180939F018B8187
:100D90008093A00189E791E00E94E2110C2D10E000
:100DA0006CCE1F9380915C03882321F0823021F068
:100DB00010E006C080E001C081E00E94A30D182F62
:100DC0000E943E0F81E080935C03812F1F91089564
:100DD000F89480E060E00E94B60D0E943E0F789487
:100DE00008951F9380915B03882319F0813029F4C3
:100DF00006C081E060E00E94B60D10E02AC080913C
:100E00005F0390916003892BD1F0E0915D03F09135
:100E10005E0380810E94C20E80915D0390915E030B
:100E2000019690935E0380935D0380915F039091A0
:100E3000600301979093600380935F03DECF83E0AC
:100E40000E94A30D182F81E060E00E94B60D109261
:100E50005B03812F1F910895DF93CF930F92CDB73E
:100E6000DEB7CE0101960E94C60E80915C038130F0
:100E700039F0813098F18230B9F0833089F52EC095
:100E8000109262031092610380916103909162035A
:100E90002981FC01E55FF94F20830196909362035D
:100EA0008093610382E018C0809161039091620396
:100EB0008F3F910509F078F480916103909162036E
:100EC0002981FC01E55FF94F20830196909362032D
:100ED0008093610303C083E080935C030E942C0F26
:100EE00080E00F90CF91DF910895F89410925C0309
:100EF00081E060E00E94B60D0E942C0F7894089566
:100F00001F93282FF89410915C03113011F085E0A5
:100F100041C0FB013197F0935E03E0935D0381E0F4
:100F200090E09093600380935F03208380915F0340
:100F300090916003840F951F9093600380935F03EB
:100F400060915F0370916003CF010E94800D20913A
:100F50005F0330916003F901E55FF94F80832F5FF4
:100F60003F4F3093600320935F0320915F033091E4
:100F70006003F901E55FF94F90832F5F3F4F309396
:100F8000600320935F0310935B0380E061E00E94A5
:100F9000B60D80E078941F910895EF92FF920F9321
:100FA0001F93CF93DF93EC017B018A01F89480912A
:100FB0006103909162030497E0F060916103709186
:100FC00062038BE096E00E94800D892B91F4809162
:100FD0000B06888380916103909162030397F80167
:100FE000918380838CE096E0F7019183808380E099
:100FF00001C085E07894DF91CF911F910F91FF9010
:10100000EF900895CF92DF92EF92FF920F93862F89
:1010100069017A01F894BA01A90128E00E94C70D7C
:10102000813009F581E0C8168BE4D80680E0E80637
:1010300080E0F80628F083E290E0A0E0B0E00DC088
:10104000CC0CDD1CEE1CFF1C60EA7FE787E190E022
:10105000A70196010E947C18C9010E94480F8130A7
:1010600011F480E001C083E078940F91FF90EF903D
:10107000DF90CF900895CF93DF93DC01EA01F894DD
:101080008091650390916603039738F14091650361
:101090005091660390E020E030E007C0F901E65F80
:1010A000F94F8081980F415050402F5F3F4F4115BD
:1010B0005105A1F7992389F480910B068C938091B7
:1010C0006503909166030297998388838CE096E08C
:1010D000FB019183808380E001C085E07894DF91FB
:1010E000CF910895809164038150823010F4109262
:1010F00064030E943E0F80E008951F938091630374
:101100008230C9F0833038F4882309F481C08130FB
:1011100009F082C007C0833009F465C0843009F04B
:101120007BC069C08AE30E94C20E82E080936303A1
:101130001092670371C080916A0390916B03892BB1
:1011400009F44CC080916703882321F0813009F0B5
:1011500063C01AC0E0916803F0916903E081E295F1
:10116000EF70EA3018F48E2F805D08C08E2F8A5001
:10117000863010F080E302C08E2F895C0E94C20E80
:1011800081E08093670348C0E0916803F0916903B0
:10119000E081EF70EA3018F48E2F805D08C08E2F4A
:1011A0008A50863010F080E302C08E2F895C0E9446
:1011B000C20E809168039091690301969093690330
:1011C000809368031092670380916A0390916B0388
:1011D000019790936B0380936A031EC08DE00E9479
:1011E000C20E83E005C080916C030E94C20E84E0B1
:1011F0008093630311C01092630383E00E94A30DE8
:10120000182F81E060E00E94B60D1092630305C0C4
:1012100081E060E00E94B60D10E0812F1F910895DB
:10122000282FF89480916403882311F085E03AC058
:10123000FB013197F0936903E093680381E090E04C
:1012400090936B0380936A03208380916A0390914B
:101250006B03840F951F90936B0380936A03209117
:101260006A0330916B0340E004C08191480F215024
:10127000304021153105C9F7419580916A0390915D
:101280006B03FC01E55FF94F4083019690936B037C
:1012900080936A0381E08093630380E061E00E94B1
:1012A000B60D80E078940895F89480E060E00E94A4
:1012B000B60D0E943E0F78940895F89481E060E0A6
:1012C0000E94B60D10926403789480E00E94A30DF2
:1012D0000895DF93CF930F92CDB7DEB7CE0101967D
:1012E0000E94C60E80916403813039F0813008F489
:1012F00075C0823009F080C053C00E942C0F9981C4
:101300009A3339F4109267031092660310926503C2
:1013100073C09D3011F482E06DC0292F20532A3014
:1013200040F0892F8154863010F02FEF02C0292F12
:10133000275380916703882321F0813009F05CC036
:101340001AC080916503909166038F3F910509F063
:1013500068F4E0916503F0916603E55FF94F22952B
:10136000207F208381E08093670346C0109264034E
:101370000E943E0F41C0E0916503F0916603E55F76
:10138000F94F8081282B208380916503909166031B
:1013900001969093660380936503109267032CC0B7
:1013A000998180916C03981741F40E943E0F10922E
:1013B000640381E00E94A30D20C09A3361F410926F
:1013C0006703109266031092650381E080936403C3
:1013D0000E942C0F11C0109264030EC089818A33C1
:1013E00059F40E942C0F109266031092650310921C
:1013F000670381E08093640380E00F90CF91DF91D9
:1014000008950F93862FF8949AE090936C03BA0195
:10141000A90127E00E94C70D813041F480E29EE4DB
:101420000E94480F813011F480E001C083E078947D
:101430000F910895CF93DF93FC01EB01888199818F
:101440000697C0F1A181B281938180E02481422F6F
:1014500050E0482B592B3581CA0187709070BA0132
:1014600023E0769567952A95E1F7892B19F0262FC9
:101470002F5F01C0262FCA010197805B9740D0F4EF
:101480002317C1F47A2F60E08B2F90E0682B792B23
:101490006F5F7F4FCF01069621E00E94570388239C
:1014A00019F00E94710D07C085E090E09983888350
:1014B00080E001C083E0DF91CF910895DF93CF9367
:1014C00000D0CDB7DEB7DC01FB01808191810597AB
:1014D00061F511962C91119712963C9112971496E2
:1014E0008C911497882309F513969C91892F81502C
:1014F0008E3FD8F01A829F3F19F481E0898301C0A2
:101500001982722F60E0832F90E0682B792B6F5F38
:101510007F4FCE01019641E050E021E00E94570349
:10152000882321F00E94710D01C083E00F900F907D
:10153000CF91DF9108950F931F93CF93DF93FC0119
:10154000EB0188819981059709F047C00181DF018E
:1015500012963281938180E02481422F50E0482B03
:10156000592BCA0101978F5C9740B8F519821882F0
:1015700081E0808388819981019699838883CA015B
:1015800087709070BA0113E0769567951A95E1F728
:10159000892B19F0162F1F5F01C0162F1183888128
:1015A0009981019699838883702F60E0832F90E062
:1015B000682B792B6F5F7F4FCD0120E00E9457038E
:1015C000882319F00E94710D09C088819981810FCB
:1015D000911D9983888380E001C083E0DF91CF91E2
:1015E0001F910F9108950F931F93CF93DF93FC01E9
:1015F000EB0188819981059709F046C00181DF01DF
:1016000012963281938180E02481422F50E0482B52
:10161000592BCA0101978F5C9740B0F51982188247
:1016200082E0808388819981019699838883CA01A9
:1016300087709070BA0123E0769567952A95E1F757
:10164000892B19F0162F1F5F01C0162F1183888177
:101650009981019699838883702F60E0832F90E0B1
:10166000682B792B6F5F7F4FCD010E941B0388236E
:1016700019F00E94710D09C088819981810F911D17
:101680009983888380E001C083E0DF91CF911F912F
:101690000F9108958F929F92AF92BF92CF92DF9257
:1016A000EF92FF920F931F93CF93DF93EC018B0187
:1016B000FB01808191810A9708F467C0898022E04C
:1016C000A22EB12CAC0EBD1E9A809B8180E02C8195
:1016D000E22EFF24E82AF92AED81FE816F81288518
:1016E0007985C70101978D37910508F053C0962F72
:1016F00080E0422F50E0482B592B4115510509F449
:1017000049C04A37510508F045C09A01220F331FDE
:10171000872F90E028173907E9F57E2F60E08F2F9B
:1017200090E0682B792B6F5F7F4FCE010A9621E006
:101730000E949E01882359F5F8011182108287E1E9
:101740008883808191810196918380836701CC0C8D
:10175000DD1CC98280819181019691838083782DDF
:1017600060E0892D90E0682B792B6F5F7F4FC5017A
:10177000A70120E00E949E01882349F4F80180819E
:1017800091818C0D9D1D9183808380E004C00E9417
:10179000710D01C083E0DF91CF911F910F91FF90F8
:1017A000EF90DF90CF90BF90AF909F908F90089573
:1017B0000F931F93CF93DF93FC01EB0188819981F5
:1017C0000597C1F5B1819F012E5F3F4FA2818481B2
:1017D000482F50E0CA0101978D37910558F51982BD
:1017E000188283E080838881998101969983888318
:1017F0008A01000F111F01838881998101969983C5
:1018000088837B2F60E08A2F90E0682B792B6F5FB5
:101810007F4FC90120E00E949E01882319F00E9499
:10182000710D09C088819981800F911F99838883E8
:1018300080E001C083E0DF91CF911F910F91089567
:10184000CF93DF93FC01EB0188819981069760F1CA
:101850003181A281938180E02481422F50E0482B86
:10186000592B2581CA01019788379105E8F4CA01EF
:10187000880F991F2817C1F4732F60E08A2F90E01A
:10188000682B792B6F5F7F4FCF01069621E00E9476
:101890009E01882319F00E94710D07C085E090E039
:1018A0009983888380E001C083E0DF91CF91089520
:1018B000DC01FB0180819181059711F083E008959F
:1018C00011967C91119760E012968C91129790E09E
:1018D000682B792B6F5F7F4FCD01039641E050E07D
:1018E00021E00E949E01882311F00E94710D08954D
:1018F000FF920F931F93CF93DF93FC01EB0188813D
:1019000099810597D1F5F180DF011296328193819B
:1019100080E02481422F50E0482B592BCA010197C7
:101920008C37910550F51982188284E08083888174
:1019300099810196998388838A01000F111F018381
:10194000888199810196998388837F2D60E0832F18
:1019500090E0682B792B6F5F7F4FCD010E94700163
:10196000882319F00E94710D09C088819981800F28
:10197000911F9983888380E001C083E0DF91CF913C
:101980001F910F91FF9008950F931F938B019C015E
:101990002F5F3F4FEDE6F3E040918D0350918E03B2
:1019A000C901BF010E949E1880918D0390918E0302
:1019B0000196F8019183808380E01F910F91089533
:1019C000CF93DF93E82FE901C9010296809710F0C9
:1019D00084E023C0E0936D03662311F480E001C02E
:1019E0008FEF80936E0382E090E090938E0380935C
:1019F0008D03209789F02FE633E0C901BA01AE01CB
:101A00000E949E1880918D0390918E038C0F9D1FD4
:101A100090938E0380938D0380E0DF91CF910895A2
:101A20000F931F93CF93DF9330E0DB0153E0B69524
:101A3000A7955A95E1F767707070E1E0F0E002C099
:101A4000EE0FFF1F4A95E2F731978C010A0F1B1F1B
:101A5000E801488150E01196A80FB91F9C9180E0E1
:101A6000482B592B062E02C0EE0FFF1F0A94E2F7F7
:101A7000E095F0954E235F2302C0220F331F6A9535
:101A8000E2F7422B532B48835C93DF91CF911F9158
:101A90000F910895FB01B3E0F695E795BA95E1F74C
:101AA000DC01AE0FBF1F2C9130E011969C9180E0BD
:101AB000822B932BA3E0EE0FFF1FAA95E1F76E1B7D
:101AC0007F0B02C0969587956A95E2F721E030E09A
:101AD00002C0220F331F4A95E2F721503040822383
:101AE0000895813029F0813028F0873039F404C01E
:101AF00082E0089580E0089586E0089584E00895E6
:101B0000DC013FEF2FEF11C08D91422F482750E0AD
:101B1000CA0184579F4FFC012491232744575E4FED
:101B2000FA01849161507040382F6115710561F799
:101B3000932F80E030E0282B392BC90108951092B3
:101B4000900381E0089591E09093900380938F0338
:101B500081E00895FC0180919003882331F0809109
:101B60008F0380831092900381E00895882319F0F9
:101B70008AB1806902C08AB18F768AB9662329F05A
:101B80008AB188668AB91A9A089555980895CF92AD
:101B9000DF92EF92FF920F931F936A017B01122F46
:101BA000129A1A98403086E9580780E0680780E06A
:101BB000780709F49FC0413086E9580780E068073C
:101BC00080E0780708F040C0403885E2580780E0A0
:101BD000680780E0780709F481C0413885E258073A
:101BE00080E0680780E0780798F4403689E058077D
:101BF00080E0680780E0780709F46DC0403C82E12E
:101C0000580780E0680780E0780709F085C060C069
:101C100040308BE4580780E0680780E0780709F4DB
:101C200063C0403880E7580780E0680780E07807A5
:101C300009F45DC0403488E3580780E0680780E01D
:101C4000780709F069C04DC0403084E8580783E048
:101C5000680780E0780709F471C0413084E85807CC
:101C600083E0680780E07807D0F440308CE25807C2
:101C700081E0680780E0780709F442C0403082ECD8
:101C8000580781E0680780E07807E9F1403081EE8D
:101C9000580780E0680780E07807F1F52EC04032F1
:101CA00081EA580787E0680780E0780779F14034D7
:101CB00082E458078FE0680780E0780751F14039E7
:101CC00080ED580783E0680780E0780729F536C083
:101CD0002FEC30E035C020EA31E032C027E630E0BA
:101CE0002FC024E430E02CC023E330E029C022E2FE
:101CF00030E026C029E130E023C020E130E020C000
:101D00002CE030E01DC028E030E01AC021E030E0D7
:101D100017C020E030E014C084E0CC0CDD1CEE1CC9
:101D2000FF1C8A95D1F760E074E284EF90E0A70190
:101D300096010E947C182150304002C023E030E020
:101D40003093900029B9013031F0023011F480E273
:101D500003C080E001C080E3173021F0183019F48F
:101D6000866001C0846088608093950080E060E0B8
:101D70000E94B60D81E01F910F91FF90EF90DF90D0
:101D8000CF9008951A9A8CB981E00895FC018CB126
:101D9000808381E008951F920F920FB60F92112455
:101DA0001A980F900FBE0F901F9018951F920F92C8
:101DB0000FB60F920BB60F9211242F933F934F93B0
:101DC0005F936F937F938F939F93AF93BF93EF93A3
:101DD000FF93E0910F07F09110070995FF91EF91A4
:101DE000BF91AF919F918F917F916F915F914F9133
:101DF0003F912F910F900BBE0F900FBE0F901F9031
:101E000018951F920F920FB60F920BB60F921124D6
:101E10002F933F934F935F936F937F938F939F93F2
:101E2000AF93BF93EF93FF93E0910B07F0910C07F3
:101E30000995FF91EF91BF91AF919F918F917F9104
:101E40006F915F914F913F912F910F900BBE0F902B
:101E50000FBE0F901F9018951DBC1CBC20919103C4
:101E6000309192032115310529F087B7806187BF32
:101E70003BBD2ABD8EB585608EBD08958EB58A7F27
:101E80008EBD87B78F7E87BF86B7806186BF089576
:101E9000A0E0B0E0BC01CD0129E03DE340E050E02E
:101EA0000E945D1820E23EE440E050E00E947C1871
:101EB00030939203209391031FBC1EBC10927A00B2
:101EC0000E943E0F81E008951F920F920FB60F926D
:101ED0000BB60F9211242F933F934F935F936F9301
:101EE0007F938F939F93AF93BF93EF93FF93E09173
:101EF0000D07F0910E070995FF91EF91BF91AF91FA
:101F00009F918F917F916F915F914F913F912F9111
:101F10000F900BBE0F900FBE0F901F901895482F7B
:101F2000181614F082E00895F89461157105F9F01F
:101F3000E5E0F1E080E090E020813181211531057C
:101F400019F02617370769F4FC01EE0FFF1FE80FA1
:101F5000F91FEC5FFE4F408372836183409711F558
:101F60001FC0019633968031910531F719C0E4E026
:101F7000F1E020E030E08081841759F4F901EE0FA0
:101F8000FF1FE20FF31FEC5FFE4F108212821182DF
:101F900009C02F5F3F4F33962031310561F702C0F2
:101FA00084E001C080E0789408958091030181303D
:101FB00011F086E00895E091A403F091A503309715
:101FC00011F480E00895099580E00895809103015F
:101FD000813011F086E00895E0919E03F0919F0317
:101FE00009951092030180E00895809103018823F0
:101FF00051F4E091A003F091A103099581E0809351
:10200000030180E00895813011F086E0089580E0BA
:102010000895DF93CF930F92CDB7DEB78091030180
:10202000882311F086E07CC0CE0101960E94AA0DA3
:10203000813009F074C09981913021F0923009F01B
:102040006EC01BC0E091A203F091A30387E993E067
:1020500068E973E044E953E00995882309F05FC01B
:102060009091970380919A03981719F0992309F09A
:1020700056C082E00E94A30D52C0A0919803B09177
:1020800099033C913093960380939303E4E0F1E04D
:1020900080E090E020812223C1F0231789F4FC0125
:1020A000EE0FFF1FE80FF91FEC5FFE4F0180F2817A
:1020B000E02DCD0164E973E009958093930305C099
:1020C000019633968031910529F7809197038823F3
:1020D00031F190919303992399F0E0919803F09155
:1020E00099038091960380688083E0919803F09132
:1020F0009903918382E090E09093950380939403F9
:1021000060919803709199034091940350919503C5
:10211000E0919C03F0919D0380919A03099580E0E2
:102120000F90CF91DF910895EF92FF920F931F933D
:10213000F82E862F8150873F08F083C060939A0362
:10214000FF2029F081E0F81609F07BC036C085E752
:1021500097E090939F0380939E0388EE96E0909380
:10216000A1038093A00380E897E090939D03809360
:102170009C038DEC97E09093A3038093A2031092AD
:10218000A5031092A4038CE297E09093100780932C
:102190000F0781EF96E090930C0780930B0781ED7A
:1021A00096E090930E0780930D07862F642FA90168
:1021B00098010E2D0E94020835C08DE599E090939C
:1021C0009F0380939E0384E599E09093A1038093FD
:1021D000A00380E199E090939D0380939C038BE39F
:1021E00098E09093A3038093A2031092A50310920A
:1021F000A40389E699E09093100780930F078DE779
:1022000098E090930C0780930B0782E798E09093F7
:102210000E0780930D07862F642FA90198010E2DBC
:102220000E94010A182F882369F40E949F0D8823B9
:1022300011F413E007C0F0929B0381E08093030147
:1022400001C012E0812F1F910F91FF90EF90089530
:10225000DC0153B340B3FC0130E020E8822F85233A
:102260009081882311F0916001C09E7F9083822F1E
:1022700084239085882311F0916001C09E7F908710
:102280003F5F3196383011F02695E8CF809163009A
:1022900084FF05C081E054968C93549703C05496F4
:1022A0001C9254978091630083FF05C081E055968E
:1022B0008C93559703C055961C9255970F9B05C05C
:1022C00081E056968C93569703C056961C9256976B
:1022D0000B9B05C081E057968C93579703C0579688
:1022E0001C925797B79B04C081E058968C93089531
:1022F00058961C92089514BA11BA0895FC0130E062
:1023000020E040E090E8808180FD292B808580FDE1
:10231000492B3F5F3196383011F09695F4CF2BBBA7
:10232000C69800001E9800001E9A0000C69A4BBB7B
:102330001C9800001E9800001E9A00001C9A1BBAF0
:1023400008951D9883B1806583B982B1806782B991
:102350001BBA8FEF8ABBC69ABE9A1D9A089540E0B9
:1023600020E030E080916200887F8093620080915D
:102370006200822B8093620000000000000080B1A8
:1023800090E053E0969587955A95E1F781709070AB
:10239000022E02C0880F991F0A94E2F7482B000012
:1023A000000000002F5F3F4F28303105D9F6842F01
:1023B0000895E1E6F0E08081877F808380818760F7
:1023C00080830895EF92FF920F931F93DF93CF9333
:1023D00000D000D00F92CDB7DEB78C01FE01319650
:1023E00085E0DF011D928A95E9F780E07F01482FA3
:1023F00060E151E0869586959701280F311D942F55
:102400009C5FA42FB0E0F801EA0FFB1F808180FFE2
:1024100004C0F9018081862B8083A00FB11F5496E0
:102420008C9180FF04C0D9018C91852B8C934F5FD8
:10243000491719F0660F550FE4CF443111F0842F7E
:10244000D6CF89810E946212CE01029664E070E0CC
:102450000E946C12C59AC5980F900F900F900F9024
:102460000F90CF91DF911F910F91FF90EF90089502
:10247000DF93CF93CDB7DEB7A8970FB6F894DEBF42
:102480000FBECDBFFE01319688E2DF011D928A9515
:10249000E9F7BD9ACF010E94E211C59A0000C598E4
:1024A000A8960FB6F894DEBF0FBECDBFCF91DF91D7
:1024B00008956E9906C0BA9AB99ABB9880E58DB90D
:1024C000709A08958FB9779BFECF08958FEF8FB9DB
:1024D000779BFECF8FB10895FC018191779BFECF52
:1024E0008FB961507040C9F7779BFECF0895FC010A
:1024F0009FEF9FB9779BFECF8FB181936150704062
:10250000C1F7089583E58DB97098089580E58DB978
:10251000709A0895EF92FF920F931F937C01062FFC
:1025200010E0B8010E94800DBC019C013070F701E1
:10253000E00FF11F808190E02817390711F040E08B
:1025400009C040E0272F3327818190E02817390701
:1025500009F441E0842F1F910F91FF90EF900895AF
:102560000F931F93CF93DF938C01EA0170E06058C3
:102570007F4F898190E068177907D9F42530C9F435
:10258000CA0163E070E00E94800DAC019C013070D4
:102590008B8190E02817390761F4252F33278C8130
:1025A00090E02817390729F48A81F801808381E0B7
:1025B00001C080E0DF91CF911F910F910895CF93DB
:1025C000DF93FC01262FEA01908189819817A1F4FD
:1025D00081818F3059F4683079F4CF0166E00E9430
:1025E0008A12882349F0188281E007C0CA016FE08F
:1025F000AF010E94B01201C080E0DF91CF91089539
:102600000F931F93CF93DF938C01262FEA01DC01F8
:102610009C9189819817A1F511968C91863051F57E
:10262000683071F5C80166E00E948A12882341F182
:102630004A815B81F801828190E0252F3327821740
:102640009307F1F4838190E084179507C9F4EE8134
:10265000FF81309761F0D80114969C91149780E027
:1026600015962C9130E0822B932B918380831882D6
:1026700081E007C0CA0166E0A8010E94B01201C053
:1026800080E0DF91CF911F910F9108950F931F93D9
:10269000CF93DF938C01262FEA01DC019C91898185
:1026A000981791F511968C91853041F5683061F558
:1026B000C80166E00E948A12882331F19E81F801E8
:1026C0008281882309F583818917F1F48581882324
:1026D000D9F4EC81FD81309771F0D80114968C917A
:1026E0008F3F11F481E08083F8018481882319F4FD
:1026F000EC81FD811082188281E007C0CA0165E08B
:10270000A8010E94B01201C080E0DF91CF911F911B
:102710000F9108950F931F93CF93DF938C01262F72
:10272000EA01FC0190818981981779F581818230D5
:1027300031F54F8130E0842F90E005962817390756
:1027400021F54D5FC801642F0E948A128823E9F0A9
:102750008A819B81892B81F090E00BC0E92FF0E00A
:10276000AA81BB81AE0FBF1FE00FF11F83818C9345
:102770009F5F8F81981790F3188281E007C0CA018C
:1027800062E0A8010E94B01201C080E0DF91CF9109
:102790001F910F910895EF92FF920F931F938C0159
:1027A0007B01625070400E94800DF801EE0DFF1D0C
:1027B000329781939083C8016E2D0E9438181F9123
:1027C0000F91FF90EF900895DF93CF93CDB7DEB7D1
:1027D000C450D1400FB6F894DEBF0FBECDBFDC01B0
:1027E000AE014F5F5F4F84E091E0FA019C011192CE
:1027F00021503040E1F71C9211968C9111978983FA
:102800008FE08A831B8214968C9114978C83169682
:102810008C9116978D8315968C9115978E831596AE
:102820002D913C911697C90153E0969587955A953D
:10283000E1F7682F90E043E0880F991F4A95E1F790
:102840008217930708F46F5F6F83AE01485F5F4F95
:1028500020E030E00CC01296ED91FC911397E20F4E
:10286000F31F8081FA018193AF012F5F3F4F26173D
:1028700090F370E0675F7F4FCE0101960E94CB130B
:10288000CC5FDE4F0FB6F894DEBF0FBECDBFCF9149
:10289000DF910895DF93CF93CDB7DEB728970FB6BA
:1028A000F894DEBF0FBECDBFDC019E012F5F3F4F0E
:1028B00088E0F90111928A95E9F71C9211968C91A2
:1028C0001197898386E08A8313968C9113978B8363
:1028D00012968C9112978C831496ED91FC9115971A
:1028E00081818D831496ED91FC91159780818E8363
:1028F000C90168E070E00E94CB1328960FB6F894E7
:10290000DEBF0FBECDBFCF91DF910895DF93CF9390
:10291000CDB7DEB728970FB6F894DEBF0FBECDBF98
:10292000FC019E012F5F3F4F88E0D9011D928A95DF
:10293000E9F710828181898385E08A831B82868101
:102940008C830280F381E02D8081882311F08FEF4A
:102950008D83CE01019668E070E00E94CB1328962B
:102960000FB6F894DEBF0FBECDBFCF91DF910895B3
:10297000DF93CF93CDB7DEB728970FB6F894DEBFBD
:102980000FBECDBFDC019E012F5F3F4F88E0F901F4
:1029900011928A95E9F71C9215962D913C91169704
:1029A000C90173E0969587957A95E1F7482F1796B8
:1029B0008C93179790E063E0880F991F6A95E1F771
:1029C0008217930720F44F5F17964C931797119631
:1029D0008C911197898382E08A831B8214968C9153
:1029E00014978C8316968C9116978D8315968C91DF
:1029F0008E83CE01019668E070E00E94CB1328968A
:102A00000FB6F894DEBF0FBECDBFCF91DF91089512
:102A10008091A703882309F468C18091A6038823C5
:102A200009F463C18091340190913501892B09F03B
:102A300088C08091AA038093AB038091AA038F5F23
:102A40008093AA039091AA038091A703981740F05E
:102A50001092AA038091650092E089278093650017
:102A6000E091AB03F0E0EE0FFF1FE754FB4F8081D6
:102A70009181892B09F439C1E091AB03F0E0EE0FAD
:102A8000FF1FE754FB4F0190F081E02D1582E0918C
:102A9000AB03F0E0EE0FFF1FE754FB4FA081B181C5
:102AA000E091AB03F0E0EE0FFF1FE754FB4F019006
:102AB000F081E02D1B962D913C911C978081918196
:102AC000F9010995E091AB03F0E0EE0FFF1FE75429
:102AD000FB4FA081B181E091AB03F0E0EE0FFF1F4F
:102AE000E754FB4F0190F081E02D1F962D913C9112
:102AF000509780819181F9010995E091AB03F0E055
:102B0000EE0FFF1FE754FB4F0190F081E02D828113
:102B100093819093A9038093A803E091AB03F0E025
:102B2000EE0FFF1FE754FB4F0190F081E02D209145
:102B3000360182819381820F911D9093350180939C
:102B400034018091A8039091A903892B09F462C0F4
:102B50008091A8039091A9039093AD038093AC0357
:102B6000E091AB03F0E0EE0FFF1FE754FB4FA081B5
:102B7000B1816091B604E091AB03F0E0EE0FFF1F6E
:102B8000E754FB4F0190F081E02D40815181519637
:102B9000ED91FC9152978091B7049091B8040995FA
:102BA000882309F4A2C0E091AB03F0E0EE0FFF1F11
:102BB000E754FB4FA081B181E091AB03F0E0EE0F51
:102BC000FF1FE754FB4F0190F081E02D19962D91E6
:102BD0003C911A9780819181F9010995E091AB03AD
:102BE000F0E0EE0FFF1FE754FB4F0190F081E02D66
:102BF0001682E091AB03F0E0EE0FFF1FE754FB4FAE
:102C00000190F081E02D81E085831092A90310925C
:102C1000A8030895E091AB03F0E0EE0FFF1FE75427
:102C2000FB4FA081B181E091AB03F0E0EE0FFF1FFD
:102C3000E754FB4F0190F081E02D1D962D913C91C2
:102C40001E9780819181F9010995E091AB03F0E035
:102C5000EE0FFF1FE754FB4F0190F081E02D8581BF
:102C6000882309F042C0E091AB03F0E0EE0FFF1FB4
:102C7000E754FB4F0190F081E02D82E08583E091E5
:102C8000AB03F0E0EE0FFF1FE754FB4F0190F08124
:102C9000E02D8681853070F4E091AB03F0E0EE0F1B
:102CA000FF1FE754FB4F0190F081E02D86818F5F7D
:102CB00086830895E091AB03F0E0EE0FFF1FE75429
:102CC000FB4FA081B181E091AB03F0E0EE0FFF1F5D
:102CD000E754FB4F0190F081E02D17962D913C9128
:102CE000189780819181F9010995089581E0809379
:102CF000A60308951092A60308958091A60308954F
:102D00001092A6038EEA93E09093B4048093B304E8
:102D10009093B8048093B7041092A70380E090E0EA
:102D2000FC01EE0FFF1FE754FB4F1182108201964A
:102D300082339105A9F7089580913401909135016E
:102D4000892B49F08091340190913501019790933E
:102D50003501809334018091A8039091A903892BB8
:102D600049F08091A8039091A90301979093A9033A
:102D70008093A8030895E091A703F0E0EE0FFF1FF2
:102D8000E754FB4F918380838091A7038F5F8093EB
:102D9000A7038091A703833310F481E0089582E3B1
:102DA0008093A70380E00895FC011182108284E6DD
:102DB00090E0938382831482168215828AEF96E1D3
:102DC000948783878BEF96E19687858787EF96E1D7
:102DD000908B878788EF96E1928B818B8CEF96E1C1
:102DE000908787838DEF96E1928781870895089574
:102DF00081E008950895089508950895CF92DF928F
:102E0000EF92FF920F936B017C018091A6038823C0
:102E100009F428C11A981BB81AB81092950080E0DE
:102E2000C81686E9D80680E0E80680E0F80609F4CE
:102E3000C7C081E0C81686E9D80680E0E80680E0D1
:102E4000F80608F047C080E8C81685E2D80680E09A
:102E5000E80680E0F80609F49BC081E8C81685E220
:102E6000D80680E0E80680E0F806A8F480E6C816F8
:102E700089E0D80680E0E80680E0F80609F47BC027
:102E800080ECC81682E1D80680E0E80680E0F8060B
:102E900009F0BDC077C080E0C8168BE4D80680E09A
:102EA000E80680E0F80609F47FC080E8C81680E7ED
:102EB000D80680E0E80680E0F80609F47BC080E4EC
:102EC000C81688E3D80680E0E80680E0F80609F036
:102ED0009EC064C080E0C81684E8D80683E0E80697
:102EE00080E0F80609F48EC081E0C81684E8D806B0
:102EF00083E0E80680E0F806F8F480E0C8168CE28B
:102F0000D80681E0E80680E0F80609F465C080E0B4
:102F1000C81682ECD80681E0E80680E0F80609F4DD
:102F200061C080E0C81681EED80680E0E80680E047
:102F3000F80609F06CC04AC080E2C81681EAD806DB
:102F400087E0E80680E0F80609F452C080E4C8167D
:102F500082E4D8068FE0E80680E0F80609F44EC067
:102F600080E9C81680EDD80683E0E80680E0F80620
:102F700009F04DC047C0E0EACE2EE1E0DE2EE12CA4
:102F8000F12C45C07FECC72ED12CE12CF12C3FC099
:102F900067E6C62ED12CE12CF12C39C054E4C52EA5
:102FA000D12CE12CF12C33C033E3C32ED12CE12CF6
:102FB000F12C2DC092E2C92ED12CE12CF12C27C08E
:102FC00089E1C82ED12CE12CF12C21C0B0E1CB2E0F
:102FD000D12CE12CF12C1BC0ACE0CA2ED12CE12C61
:102FE000F12C15C0F8E0CF2ED12CE12CF12C0FC024
:102FF000E1E0CE2ED12CE12CF12C09C0CC24DD2433
:10300000760105C073E0C72ED12CE12CF12CBB2733
:10301000AF2D9E2D8D2D80939000C9B8473031F093
:10302000483049F480919500866003C080919500F6
:10303000846080939500223029F480919500886007
:1030400080939500013019F0023051F404C0809152
:103050009500806303C08091950080628093950005
:1030600088E48AB90F91FF90EF90DF90CF90089598
:103070001F93282F792F162F8091B3049091B404B9
:10308000622F412F50E00E949E181093B5041092B9
:10309000B2048091B2048093B6048AB18F768AB963
:1030A0001A9A8091B204E091B304F091B404E80F4D
:1030B000F11D80818CB91F910895629FD001739F8B
:1030C000F001829FE00DF11D649FE00DF11D929FC4
:1030D000F00D839FF00D749FF00D659FF00D992703
:1030E000729FB00DE11DF91F639FB00DE11DF91F27
:1030F000BD01CF0111240895A1E21A2EAA1BBB1B0A
:10310000FD010DC0AA1FBB1FEE1FFF1FA217B307B3
:10311000E407F50720F0A21BB30BE40BF50B661FC9
:10312000771F881F991F1A9469F76095709580958D
:1031300090959B01AC01BD01CF010895FB01DC011D
:1031400002C001900D9241505040D8F70895F89474
:02315000FFCFAF
:10315200AABBCC0211C40C04780C03D80B10200CAF
:1031620006580C174A0B019B0A055E0A0F1A0A023F
:10317200F30A000000000000000000000000000050
:0831820000000000050002003E
:00000001FF
