:100000000C9446010C9465010C9465010C946501F7
:100010000C9465010C9465010C9465010C946501C8
:100020000C9465010C9465010C9465010C946501B8
:100030000C94910E0C9465010C9465010C9465016F
:100040000C9465010C9465010C941B160C946616B7
:100050000C94DF150C9465010C9465010C946501FA
:100060000C9465010C9465010C9436020C946501A6
:100070000C9465010C9465010C9465010C94650168
:100080000C9465010C9465010C94650100C18140DC
:1000900001C0804101C0804100C1814001C0804158
:1000A00000C1814000C1814001C0804101C0804148
:1000B00000C1814000C1814001C0804100C1814038
:1000C00001C0804101C0804100C1814001C0804128
:1000D00000C1814000C1814001C0804100C1814018
:1000E00001C0804101C0804100C1814000C1814008
:1000F00001C0804101C0804100C1814001C08041F8
:1001000000C1814000C1814001C0804101C08041E7
:1001100000C1814000C1814001C0804100C18140D7
:1001200001C0804101C0804100C1814000C18140C7
:1001300001C0804101C0804100C1814001C08041B7
:1001400000C1814000C1814001C0804100C18140A7
:1001500001C0804101C0804100C1814001C0804197
:1001600000C1814000C1814001C0804101C0804187
:1001700000C1814000C1814001C0804100C1814077
:1001800001C0804101C0804100C1814000C0C10167
:10019000C30302C2C60607C705C5C404CC0C0DCDF7
:1001A0000FCFCE0E0ACACB0BC90908C8D81819D967
:1001B0001BDBDA1A1EDEDF1FDD1D1CDC14D4D51597
:1001C000D71716D6D21213D311D1D010F03031F187
:1001D00033F3F23236F6F737F53534F43CFCFD3DB7
:1001E000FF3F3EFEFA3A3BFB39F9F83828E8E929A7
:1001F000EB2B2AEAEE2E2FEF2DEDEC2CE42425E557
:1002000027E7E62622E2E323E12120E0A06061A1C6
:1002100063A3A26266A6A767A56564A46CACAD6D76
:10022000AF6F6EAEAA6A6BAB69A9A86878B8B979E6
:10023000BB7B7ABABE7E7FBF7DBDBC7CB47475B516
:1002400077B7B67672B2B373B17170B05090915106
:100250009353529296565797559594549C5C5D9D36
:100260005F9F9E5E5A9A9B5B995958988848498926
:100270004B8B8A4A4E8E8F4F8D4D4C8C44848545D6
:1002800087474686824243834181804011241FBEB6
:10029000CFEFD0E1DEBFCDBF11E0A0E0B1E0E0E8FC
:1002A000F0E300E00BBF02C007900D92A833B10746
:1002B000D9F717E0A8E3B1E001C01D92A031B10762
:1002C000E1F70E94BD030C943E180C94000080914D
:1002D000CC019091CD019093A7018093A601089540
:1002E000DC016115710541F1CA01860F971F863641
:1002F000910510F56150704012C0FB01EE0FFF1F19
:10030000EA58FD4F808191819C9380819181119663
:100310008C93119712966F5F7F4F4150504041155B
:10032000510559F78091CC019091CD019093A7018F
:100330008093A60180E0089581E00895CF93DF9334
:10034000EC016115710509F449C0CA01860F971FB8
:100350008636910508F042C0222319F02130F1F5CC
:1003600017C06150704010C0FB01EE0FFF1FE85531
:10037000FE4F80819181988380819181898322962B
:100380006F5F7F4F415050404115510569F71CC0C8
:100390006150704016C0B881A0E0FB01EE0FFF1F56
:1003A000E855FE4FB183A08320813181898190E09F
:1003B000282B392B3183208322966F5F7F4F41504A
:1003C00050404115510539F78091CC019091CD01F4
:1003D0009093A7018093A60180E001C081E0DF91A6
:1003E000CF9108950F931F93CF93DF93EC01A0E07B
:1003F000B0E001E010E032C0CD01E3E096958795D2
:10040000EA95E1F7FB01EA0FFB1F2081FE01E80FEF
:10041000F91F33E0880F991F3A95E1F7222371F015
:100420009D01281B390BC901980102C0220F331FFF
:100430008A95E2F7C9012081282B0EC09D01281B57
:10044000390BC901980102C0220F331F8A95E2F7C8
:10045000C90180952081282320831196A417B50710
:1004600058F2DF91CF911F910F9108951F920F9233
:100470000FB60F9211242F938F939F938091650055
:1004800021E082278093650080917402909175022B
:1004900001969093750280937402809174029091FA
:1004A0007502059731F42093A10110927502109204
:1004B000740280917202909173020196909373027C
:1004C000809372028091720290917302C29739F404
:1004D00081E08093A20110927302109272028091C7
:1004E0007002909171020196909371028093700254
:1004F0008091700290917102845F914051F481E08B
:1005000090E09093A4018093A30110927102109245
:1005100070028091340190913501892B49F08091CE
:100520003401909135010197909335018093340106
:100530008091A1039091A203892B49F08091A1039E
:100540009091A20301979093A2038093A1038091BD
:10055000CC019091CD01892BA1F08091A6019091C1
:10056000A701892B51F08091A6019091A7010197D5
:100570009093A7018093A60106C081E08093A50116
:1005800002C01092A5019F918F912F910F900FBEE5
:100590000F901F9018950F931F9305E610E0F80138
:1005A00080818B7F8083E4E6F0E0808187608083B8
:1005B0000E94CE1088B3816188BB87B3816187BBFD
:1005C000129A1A980E9486110E9465110E940611C3
:1005D0000E94A810F801808184608083EBE8F0E03D
:1005E000808182608083EAE8F0E08081836080839C
:1005F000EDE7F0E080818061808389EF90E0909367
:100600008700809386001F910F910895EF92FF92CB
:100610000F931F93CF93DF937C016115710551F107
:10062000CA01860F971F8636910520F5EA018B01D6
:100630000150104012C0AE01C930D10514F048E09D
:1006400050E08AE493E0B80150E00E94D60CF70134
:1006500081937F012897085F1F4F1C161D065CF3CE
:100660008091CC019091CD019093A7018093A60138
:1006700080E001C081E0DF91CF911F910F91FF9049
:10068000EF900895EF92FF920F931F93CF93DF9314
:100690007C016115710509F450C0CA01860F971FCE
:1006A0008636910508F049C0EA018B0101501040DF
:1006B0002223B1F0213009F040C016C0AE01C9308C
:1006C000D10514F048E050E08EE393E0B80150E02B
:1006D0000E94D60CF70181937F01085F1F4F289776
:1006E0001C161D065CF31FC08091CC019091CD01BA
:1006F0009093A7018093A60113C0F70121917F0178
:10070000AE01C930D10514F048E050E08EE393E02B
:10071000B80150E030E00E949C0C085F1F4F289702
:100720001C161D0654F38091CC019091CD0190933D
:10073000A7018093A60180E001C081E0DF91CF9105
:100740001F910F91FF90EF9008950F9360E072EC6E
:1007500081E090E048E021E001E00E9495160F91D1
:1007600008950F9360E875E280E090E048E021E0B2
:1007700000E00E9495160F9108955F926F927F920C
:100780008F929F92AF92BF92CF92DF92EF92FF92A1
:100790000F931F93DF93CF93CDB7DEB728970FB694
:1007A000F894DEBF0FBECDBFDE011696E0E0F1E0AB
:1007B00083E001900D928150E1F71D821C821A8224
:1007C0001B820E94CB020E94801589E595E00E9461
:1007D000B51563E0562E50923D05109240050AE093
:1007E00010E010934205009341058AE395E0909351
:1007F0003F0580933E058CE395E090935A058093E6
:1008000059057724739470925D0555E0C52ED12C5F
:10081000D0925C05C0925B0548EB842E43E1942E98
:10082000909269058092680530E7A32E32E1B32EDD
:10083000B0926B05A0926A0527E6E22E21E0F22E27
:10084000F0926305E092620589E595E00E949C15AF
:100850008CE695E00E94B5159BE0692E60922A0512
:1008600010922D0510932F0500932E0504E016E03D
:1008700010932C0500932B0589E295E090936D056C
:1008800080936C0570927005D0926F05C0926E05D2
:1008900090927C0580927B05B0927E05A0927D05AA
:1008A000F0927605E09275058CE695E00E949C1525
:1008B0008FE795E00E94B5155092190510921C051E
:1008C0008CE0A82EB12CB0921E05A0921D051093AD
:1008D0001B0500931A0588E195E0909380058093AD
:1008E0007F0570928305D0928205C092810514EE37
:1008F000812E12E1912E90928F0580928E0506EE48
:1009000011E11093910500939005F0928905E09212
:1009100088058FE795E00E949C1582E995E00E948A
:10092000B5156092340510923705B0923905A09242
:10093000380584E495E0909336058093350583E38C
:1009400095E0909393058093920570929605D092CE
:100950009505C09294059092A2058092A1051093EE
:10096000A4050093A305F0929C05E0929B0582E903
:1009700095E00E949C1585EA95E00E94B51560926D
:1009800020058FE090E09093220580932105CE0111
:1009900004969093240580932305109226051092C7
:1009A00025058FE195E09093A6058093A5057092AB
:1009B000A905D092A805C092A7058AE493E1909377
:1009C000B5058093B40589ED95E19093B7058093C3
:1009D000B605F092AF05E092AE0585EA95E00E947B
:1009E0009C15789411E000E0AA24A394B6E06B2E45
:1009F000712C6C0E7D1E8824839489E391E00E9403
:100A000055102A8180914F01882319F080E090E0F1
:100A100008C080914D0190E0882309F491E09A2567
:100A2000892F282B2A832B8180915001882319F04C
:100A300080E090E008C080914E0190E0882309F4A6
:100A400091E09A25892F282B2B838B81882329F4E9
:100A50008A8120E030E0882311F021E030E0298312
:100A600080913801809352018A81809353018B8158
:100A7000809354018091A501809355010E94DC1060
:100A8000C82E112311F4801751F1CC2019F40E94C3
:100A9000761502C00E947A150E94220F0E947D15D1
:100AA0008823A1F46C2D40E000E012EC21E030E05E
:100AB000A2E0EA2E0E94C10F84E361E0A30123E0DB
:100AC00030E00E946C0C0E94130F09C060E072ECD1
:100AD00081E090E048E021E001E00E9495168AE480
:100AE00093E069E371E04AE250E00E94F2018091F4
:100AF000A101882311F01092A1018091A201882305
:100B000039F01092A201809144058A258093440512
:100B10008091A3019091A401892B21F01092A4014E
:100B20001092A3010E947D15882319F40E94360FAC
:100B30000BC0809140038160809340038091380115
:100B40008C831D820E94081490913A05809144057F
:100B500081709E7F892B8093440580913B05809313
:100B6000450580915101882339F08091A5018823A2
:100B700019F48981882329F080914C038E7F80931A
:100B80004C0380915101882321F0809169018823D1
:100B9000A9F480916B01882339F08981882321F49D
:100BA0008091A501882321F010923E0310923F030B
:100BB0001D981092380140E050E006C01D9A8091C7
:100BC000690180933801F7CFDA01A75ABE4F1C9212
:100BD000242F26952695269530E0F901E25CFC4FFE
:100BE000808190E0F3E0220F331FFA95E1F7BA011C
:100BF000621B730B062E02C0959587950A94E2F747
:100C000080FDAC924F5F5F4F43315105E9F6809113
:100C10005101882321F080916A018823A1F08091FD
:100C20004F01882381F080914D01882361F08091EC
:100C30005001882341F080914E01882321F01A82CF
:100C40001B821092A501A9E7B1E0E9E3F1E080E1A0
:100C500001900D928150E1F7ADE8B1E0E9E5F1E0F6
:100C600080E101900D928150E1F71A9904C08091C2
:100C7000A501882319F080928C0102C010928C018A
:100C8000809138018093890180914D0180939D016D
:100C900080914E0180939E018A8180939F018B8178
:100CA0008093A00189E791E00E940F1189E591E00E
:100CB0000E94AB100C2D10E0A0CE1F938091570323
:100CC000882321F0823021F010E006C080E001C0CE
:100CD00081E00E942F0D182F0E946B0E81E08093FF
:100CE0005703812F1F910895F89480E060E00E94DF
:100CF000420D0E946B0E789408951F9380915603C5
:100D0000882319F0813029F406C081E060E00E9458
:100D1000420D10E02AC080915A0390915B03892B09
:100D2000D1F0E0915803F091590380810E94510E57
:100D300080915803909159030196909359038093A1
:100D4000580380915A0390915B03019790935B0342
:100D500080935A03DECF83E00E942F0D182F81E08D
:100D600060E00E94420D10925603812F1F9108955A
:100D7000DF93CF930F92CDB7DEB7CE0101960E94DD
:100D8000540E80915703813039F0813098F18230D0
:100D9000B9F0833089F52EC010925D0310925C0388
:100DA00080915C0390915D032981FC01EA5FF94F1A
:100DB0002083019690935D0380935C0382E018C0CA
:100DC00080915C0390915D038F3F910509F078F469
:100DD00080915C0390915D032981FC01EA5FF94FEA
:100DE0002083019690935D0380935C0303C083E0AE
:100DF000809357030E94590E80E00F90CF91DF91AE
:100E00000895F8941092570381E060E00E94420D2B
:100E10000E94590E789408951F93282FF8941091EA
:100E20005703113011F085E041C0FB013197F09379
:100E30005903E093580381E090E090935B03809323
:100E40005A03208380915A0390915B03840F951F6E
:100E500090935B0380935A0360915A0370915B03F4
:100E6000CF010E940C0D20915A0330915B03F901D0
:100E7000EA5FF94F80832F5F3F4F30935B032093EE
:100E80005A0320915A0330915B03F901EA5FF94F4D
:100E900090832F5F3F4F30935B0320935A0310934F
:100EA000560380E061E00E94420D80E078941F913B
:100EB0000895EF92FF920F931F93CF93DF93EC016E
:100EC0007B018A01F89480915C0390915D03049703
:100ED000E0F060915C0370915D0386E096E00E9413
:100EE0000C0D892B91F480910606888380915C0318
:100EF00090915D030397F8019183808387E096E0EA
:100F0000F7019183808380E001C085E07894DF91D0
:100F1000CF911F910F91FF90EF900895CF92DF92A4
:100F2000EF92FF920F93862F69017A01F894BA012C
:100F3000A90128E00E94560D813009F581E0C8160C
:100F40008BE4D80680E0E80680E0F80628F083E22B
:100F500090E0A0E0B0E00DC0CC0CDD1CEE1CFF1C4E
:100F600060EA7FE787E190E0A70196010E941318ED
:100F7000C9010E94750E813011F480E001C083E048
:100F800078940F91FF90EF90DF90CF900895CF93DA
:100F9000DF93DC01EA01F894809160039091610392
:100FA000039738F1409160035091610390E020E095
:100FB00030E007C0F901EB5FF94F8081980F415095
:100FC00050402F5F3F4F41155105A1F7992389F4F8
:100FD000809106068C938091600390916103029743
:100FE0009983888387E096E0FB019183808380E08A
:100FF00001C085E07894DF91CF91089580915F03DF
:101000008150823010F410925F030E946B0E80E0DA
:1010100008951F9380915E038230C9F0833038F4C5
:10102000882309F481C0813009F082C007C0833071
:1010300009F465C0843009F07BC069C08AE30E946E
:10104000510E82E080935E031092620371C0809122
:10105000650390916603892B09F44CC0809162036B
:10106000882321F0813009F063C01AC0E091630346
:10107000F0916403E081E295EF70EA3018F48E2F6E
:10108000805D08C08E2F8A50863010F080E302C049
:101090008E2F895C0E94510E81E08093620348C0CC
:1010A000E0916303F0916403E081EF70EA3018F49B
:1010B0008E2F805D08C08E2F8A50863010F080E31E
:1010C00002C08E2F895C0E94510E80916303909123
:1010D0006403019690936403809363031092620308
:1010E00080916503909166030197909366038093C6
:1010F00065031EC08DE00E94510E83E005C0809103
:1011000067030E94510E84E080935E0311C0109229
:101110005E0383E00E942F0D182F81E060E00E94A3
:10112000420D10925E0305C081E060E00E94420D16
:1011300010E0812F1F910895282FF89480915F036C
:10114000882311F085E03AC0FB013197F0936403E6
:10115000E093630381E090E09093660380936503DE
:1011600020838091650390916603840F951F90936F
:10117000660380936503209165033091660340E028
:1011800004C08191480F2150304021153105C9F725
:1011900041958091650390916603FC01EA5FF94FE8
:1011A00040830196909366038093650381E080936A
:1011B0005E0380E061E00E94420D80E07894089533
:1011C000F89480E060E00E94420D0E946B0E7894DB
:1011D0000895F89481E060E00E94420D10925F0350
:1011E000789480E00E942F0D0895DF93CF930F92A3
:1011F000CDB7DEB7CE0101960E94540E80915F03F9
:10120000813039F0813008F475C0823009F080C037
:1012100053C00E94590E99819A3339F41092620397
:10122000109261031092600373C09D3011F482E04C
:101230006DC0292F20532A3040F0892F81548630E9
:1012400010F02FEF02C0292F2753809162038823CB
:1012500021F0813009F05CC01AC080916003909148
:1012600061038F3F910509F068F4E0916003F0910C
:101270006103EA5FF94F2295207F208381E080930C
:10128000620346C010925F030E946B0E41C0E09162
:101290006003F0916103EA5FF94F8081282B20837E
:1012A0008091600390916103019690936103809314
:1012B0006003109262032CC0998180916703981794
:1012C00041F40E946B0E10925F0381E00E942F0D8B
:1012D00020C09A3361F4109262031092610310925D
:1012E000600381E080935F030E94590E11C0109249
:1012F0005F030EC089818A3359F40E94590E1092FF
:101300006103109260031092620381E080935F0397
:1013100080E00F90CF91DF9108950F93862FF8947E
:101320009AE090936703BA01A90127E00E94560D45
:10133000813041F480E29EE40E94750E813011F408
:1013400080E001C083E078940F910895CF93DF93FC
:10135000FC01EB01888199810697C0F1A181B281DE
:10136000938180E02481422F50E0482B592B358116
:10137000CA0187709070BA0123E0769567952A9527
:10138000E1F7892B19F0262F2F5F01C0262FCA0104
:101390000197805B9740D0F42317C1F47A2F60E067
:1013A0008B2F90E0682B792B6F5F7F4FCF010696D4
:1013B00021E00E944203882319F00E94FD0C07C01F
:1013C00085E090E09983888380E001C083E0DF912D
:1013D000CF910895DF93CF9300D0CDB7DEB7DC0176
:1013E000FB0180819181059761F511962C911197F0
:1013F00012963C91129714968C911497882309F5B4
:1014000013969C91892F81508E3FD8F01A829F3F6E
:1014100019F481E0898301C01982722F60E0832F63
:1014200090E0682B792B6F5F7F4FCE01019641E0F2
:1014300050E021E00E944203882321F00E94FD0C2D
:1014400001C083E00F900F90CF91DF9108950F932B
:101450001F93CF93DF93FC01EB018881998105975E
:1014600009F047C00181DF0112963281938180E04B
:101470002481422F50E0482B592BCA0101978F5CE1
:101480009740B8F51982188281E08083888199811C
:10149000019699838883CA0187709070BA0113E01E
:1014A000769567951A95E1F7892B19F0162F1F5F2E
:1014B00001C0162F118388819981019699838883B1
:1014C000702F60E0832F90E0682B792B6F5F7F4F48
:1014D000CD0120E00E944203882319F00E94FD0CF8
:1014E00009C088819981810F911D9983888380E04B
:1014F00001C083E0DF91CF911F910F9108950F9369
:101500001F93CF93DF93FC01EB01888199810597AD
:1015100009F046C00181DF0112963281938180E09B
:101520002481422F50E0482B592BCA0101978F5C30
:101530009740B0F51982188282E080838881998172
:10154000019699838883CA0187709070BA0123E05D
:10155000769567952A95E1F7892B19F0162F1F5F6D
:1015600001C0162F11838881998101969983888300
:10157000702F60E0832F90E0682B792B6F5F7F4F97
:10158000CD010E940603882319F00E94FD0C09C0BA
:1015900088819981810F911D9983888380E001C0A2
:1015A00083E0DF91CF911F910F9108958F929F92C9
:1015B000AF92BF92CF92DF92EF92FF920F931F9361
:1015C000CF93DF93EC018B01FB01808191810A971E
:1015D00008F467C0898022E0A22EB12CAC0EBD1E9B
:1015E0009A809B8180E02C81E22EFF24E82AF92A50
:1015F000ED81FE816F8128857985C70101978D373F
:10160000910508F053C0962F80E0422F50E0482B00
:10161000592B4115510509F449C04A37510508F0C5
:1016200045C09A01220F331F872F90E028173907F2
:10163000E9F57E2F60E08F2F90E0682B792B6F5FAC
:101640007F4FCE010A9621E00E949E01882359F522
:10165000F8011182108287E188838081918101964F
:10166000918380836701CC0CDD1CC98280819181CC
:10167000019691838083782D60E0892D90E0682B1E
:10168000792B6F5F7F4FC501A70120E00E949E016B
:10169000882349F4F801808191818C0D9D1D9183EF
:1016A000808380E004C00E94FD0C01C083E0DF91D4
:1016B000CF911F910F91FF90EF90DF90CF90BF904F
:1016C000AF909F908F9008950F931F93CF93DF93C8
:1016D000FC01EB01888199810597C1F5B1819F01DA
:1016E0002E5F3F4FA2818481482F50E0CA010197AD
:1016F0008D37910558F51982188283E0808388819F
:1017000099810196998388838A01000F111F0183B3
:10171000888199810196998388837B2F60E08A2F45
:1017200090E0682B792B6F5F7F4FC90120E00E940A
:101730009E01882319F00E94FD0C09C088819981BF
:10174000800F911F9983888380E001C083E0DF913F
:10175000CF911F910F910895CF93DF93FC01EB017F
:1017600088819981069760F13181A281938180E01F
:101770002481422F50E0482B592B2581CA01019723
:1017800088379105E8F4CA01880F991F2817C1F41A
:10179000732F60E08A2F90E0682B792B6F5F7F4F6B
:1017A000CF01069621E00E949E01882319F00E9435
:1017B000FD0C07C085E090E09983888380E001C03C
:1017C00083E0DF91CF910895DC01FB01808191815D
:1017D000059711F083E0089511967C91119760E0D0
:1017E00012968C91129790E0682B792B6F5F7F4F48
:1017F000CD01039641E050E021E00E949E01882344
:1018000011F00E94FD0C0895FF920F931F93CF9348
:10181000DF93FC01EB01888199810597D1F5F18077
:10182000DF0112963281938180E02481422F50E0C3
:10183000482B592BCA0101978C37910550F5198215
:10184000188284E0808388819981019699838883B6
:101850008A01000F111F0183888199810196998364
:1018600088837F2D60E0832F90E0682B792B6F5F5A
:101870007F4FCD010E947001882319F00E94FD0C5A
:1018800009C088819981800F911F9983888380E0A6
:1018900001C083E0DF91CF911F910F91FF900895D8
:1018A0000F931F938B019C012F5F3F4FE8E6F3E0FE
:1018B0004091880350918903C901BF010E943518E6
:1018C00080918803909189030196F8019183808328
:1018D00080E01F910F910895CF93DF93E82FE901E6
:1018E000C9010296809710F084E023C0E09368035A
:1018F000662311F480E001C08FEF8093690382E0DA
:1019000090E09093890380938803209789F02AE6DA
:1019100033E0C901BA01AE010E94351880918803F5
:10192000909189038C0F9D1F909389038093880366
:1019300080E0DF91CF9108950F931F93CF93DF93B2
:1019400030E0DB0153E0B695A7955A95E1F7677053
:101950007070E1E0F0E002C0EE0FFF1F4A95E2F781
:1019600031978C010A0F1B1FE801488150E0119646
:10197000A80FB91F9C9180E0482B592B062E02C05E
:10198000EE0FFF1F0A94E2F7E095F0954E235F23D8
:1019900002C0220F331F6A95E2F7422B532B488374
:1019A0005C93DF91CF911F910F910895FB01B3E0FC
:1019B000F695E795BA95E1F7DC01AE0FBF1F2C91C4
:1019C00030E011969C9180E0822B932BA3E0EE0FE8
:1019D000FF1FAA95E1F76E1B7F0B02C096958795B6
:1019E0006A95E2F721E030E002C0220F331F4A95EA
:1019F000E2F72150304082230895813029F0813070
:101A000028F0873039F404C082E0089580E008951A
:101A100086E0089584E00895DC013FEF2FEF11C0C8
:101A20008D91422F482750E0CA0184579F4FFC01F7
:101A30002491232744575E4FFA01849161507040EE
:101A4000382F6115710561F7932F80E030E0282B66
:101A5000392BC901089510928B0381E0089591E01C
:101A600090938B0380938A0381E00895FC01809119
:101A70008B03882331F080918A03808310928B033B
:101A800081E008959AB198649AB9882319F08AB1CF
:101A9000806902C08AB18F768AB9662329F08AB13B
:101AA00088628AB91A9A089555980895CF92DF925C
:101AB000EF92FF920F931F936A017B01122F403028
:101AC00086E9580780E0680780E0780709F49FC03E
:101AD000413086E9580780E0680780E0780708F021
:101AE00040C0403885E2580780E0680780E078070A
:101AF00009F481C0413885E2580780E0680780E03A
:101B0000780798F4403689E0580780E0680780E05D
:101B1000780709F46DC0403C82E1580780E068070F
:101B200080E0780709F085C060C040308BE458073A
:101B300080E0680780E0780709F463C0403880E7F8
:101B4000580780E0680780E0780709F45DC04034FA
:101B500088E3580780E0680780E0780709F069C0EB
:101B60004DC0403084E8580783E0680780E078077C
:101B700009F471C0413084E8580783E0680780E0C9
:101B80007807D0F440308CE2580781E0680780E0A5
:101B9000780709F442C0403082EC580781E06807BA
:101BA00080E07807E9F1403081EE580780E068076F
:101BB00080E07807F1F52EC0403281EA580787E0CF
:101BC000680780E0780779F1403482E458078FE0B5
:101BD000680780E0780751F1403980ED580783E0CD
:101BE000680780E0780729F536C02FEC30E035C073
:101BF00020EA31E032C027E630E02FC024E430E0B4
:101C00002CC023E330E029C022E230E026C029E1E5
:101C100030E023C020E130E020C02CE030E01DC0E7
:101C200028E030E01AC021E030E017C020E030E0CA
:101C300014C084E0CC0CDD1CEE1CFF1C8A95D1F78F
:101C400060E074E284EF90E0A70196010E9413180F
:101C50002150304002C023E030E03093900029B999
:101C6000013031F0023011F480E203C080E001C0A5
:101C700080E3173021F0183019F4866001C08460C9
:101C800088608093950080E060E00E94420D129A87
:101C90001A9881E01F910F91FF90EF90DF90CF9005
:101CA00008958CB981E00895FC018CB1808381E0B6
:101CB00008951DBC1CBC20918C0330918D0321150F
:101CC000310529F087B7806187BF3BBD2ABD8EB53E
:101CD00085608EBD08958EB58A7F8EBD87B78F7E55
:101CE00087BF86B7806186BF0895A0E0B0E0BC01E1
:101CF000CD0129E03DE340E050E00E94F41720E2EE
:101D00003EE440E050E00E94131830938D0320938E
:101D10008C031FBC1EBC10927A000E946B0E81E0E7
:101D200008951F920F920FB60F920BB60F921124C7
:101D30002F933F934F935F936F937F938F939F93D3
:101D4000AF93BF93EF93FF93E0910807F0910907DA
:101D50000995FF91EF91BF91AF919F918F917F91E5
:101D60006F915F914F913F912F910F900BBE0F900C
:101D70000FBE0F901F901895482F181614F082E090
:101D80000895F89461157105F9F0E5E0F1E080E05F
:101D900090E0208131812115310519F02617370790
:101DA00069F4FC01EE0FFF1FE80FF91FEC5FFE4F17
:101DB000408372836183409711F51FC0019633966B
:101DC0008031910531F719C0E4E0F1E020E030E026
:101DD0008081841759F4F901EE0FFF1FE20FF31F02
:101DE000EC5FFE4F10821282118209C02F5F3F4FBD
:101DF00033962031310561F702C084E001C080E0F4
:101E00007894089580910301813011F086E008955F
:101E1000E0919F03F091A003309711F480E00895C2
:101E2000099580E0089580910301813011F086E0EA
:101E30000895E0919903F0919A0309951092030196
:101E400080E0089580910301882351F4E0919B0381
:101E5000F0919C03099581E08093030180E008954F
:101E6000813011F086E0089580E00895DF93CF93EC
:101E70000F92CDB7DEB780910301882311F086E081
:101E80007CC0CE0101960E94360D813009F074C0ED
:101E90009981913021F0923009F06EC01BC0E09121
:101EA0009D03F0919E0382E993E063E973E04FE8BC
:101EB00053E00995882309F05FC0909192038091C7
:101EC0009503981719F0992309F056C082E00E94F3
:101ED0002F0D52C0A0919303B09194033C91309385
:101EE000910380938E03E4E0F1E080E090E02081B4
:101EF0002223C1F0231789F4FC01EE0FFF1FE80F26
:101F0000F91FEC5FFE4F0180F281E02DCD016FE8FB
:101F100073E0099580938E0305C001963396803156
:101F2000910529F780919203882331F190918E03D6
:101F3000992399F0E0919303F09194038091910398
:101F400080688083E0919303F0919403918382E011
:101F500090E09093900380938F036091930370912E
:101F6000940340918F0350919003E0919703F09177
:101F7000980380919503099580E00F90CF91DF91B0
:101F80000895EF92FF920F931F93F82E862F8150A2
:101F9000873F08F083C060939503FF2029F081E01C
:101FA000F81609F07BC036C081E097E090939A0361
:101FB0008093990384E796E090939C0380939B031E
:101FC0008CE097E0909398038093970389E597E0DE
:101FD00090939E0380939D031092A00310929F0301
:101FE00088EB96E090930B0780930A078DE796E0C5
:101FF00090930707809306078DE596E09093090775
:1020000080930807862F642FA90198010E2D0E9446
:102010008E0735C089EE98E090939A0380939903D8
:1020200080EE98E090939C0380939B038CE998E06A
:10203000909398038093970387EC97E090939E0387
:1020400080939D031092A00310929F0385EF98E068
:1020500090930B0780930A0789E098E09093070715
:10206000809306078EEF97E0909309078093080707
:10207000862F642FA90198010E2D0E948D09182F1B
:10208000882369F40E942B0D882311F413E007C004
:10209000F092960381E08093030101C012E0812F4A
:1020A0001F910F91FF90EF900895DC0153B340B35F
:1020B000FC0130E020E8822F85239081882311F0F5
:1020C000916001C09E7F9083822F84239085882316
:1020D00011F0916001C09E7F90873F5F319638304C
:1020E00011F02695E8CF8091630084FF05C081E060
:1020F00054968C93549703C054961C925497809195
:10210000630083FF05C081E055968C93559703C00B
:1021100055961C9255970F9B05C081E056968C935F
:10212000569703C056961C9256970B9B05C081E0AC
:1021300057968C93579703C057961C925797B79B07
:1021400004C081E058968C93089558961C92089587
:1021500014BA11BA0895FC0130E020E040E090E8A4
:10216000808180FD292B808580FD492B3F5F319642
:10217000383011F09695F4CF2BBBC69800001E980E
:1021800000001E9A0000C69A4BBB1C9800001E98C7
:1021900000001E9A00001C9A1BBA08951D9883B176
:1021A000806583B982B1806782B91BBA8FEF8ABB21
:1021B000C69ABE9A1D9A089540E020E030E08091D2
:1021C0006200887F8093620080916200822B8093FE
:1021D000620000000000000080B190E053E096959E
:1021E00087955A95E1F781709070022E02C0880F92
:1021F000991F0A94E2F7482B0000000000002F5FAF
:102200003F4F28303105D9F6842F0895E1E6F0E0FC
:102210008081877F80838081876080830895EF92AB
:10222000FF920F931F93DF93CF9300D000D00F92B4
:10223000CDB7DEB78C01FE01319685E0DF011D923E
:102240008A95E9F780E07F01482F60E151E08695AB
:1022500086959701280F311D942F9C5FA42FB0E025
:10226000F801EA0FFB1F808180FF04C0F901808123
:10227000862B8083A00FB11F54968C9180FF04C0E1
:10228000D9018C91852B8C934F5F491719F0660FFC
:10229000550FE4CF443111F0842FD6CF89810E94AD
:1022A0008F11CE01029664E070E00E949911C59AE8
:1022B000C5980F900F900F900F900F90CF91DF91D6
:1022C0001F910F91FF90EF900895DF93CF93CDB7BB
:1022D000DEB7A8970FB6F894DEBF0FBECDBFFE01E4
:1022E000319688E2DF011D928A95E9F7BD9ACF0108
:1022F0000E940F11C59A0000C598A8960FB6F894D1
:10230000DEBF0FBECDBFCF91DF9108956E9906C09D
:10231000BA9AB99ABB9880E58DB9709A08958FB929
:10232000779BFECF08958FEF8FB9779BFECF8FB14C
:102330000895FC018191779BFECF8FB96150704069
:10234000C9F7779BFECF0895FC019FEF9FB9779B5C
:10235000FECF8FB1819361507040C1F7089583E53E
:102360008DB97098089580E58DB9709A08950F938E
:102370001F93CF93DF938C01EA0170E060587F4F89
:10238000898190E068177907D9F42530C9F4CA012A
:1023900063E070E00E940C0DAC019C0130708B81F9
:1023A00090E02817390761F4252F33278C8190E0BE
:1023B0002817390729F48A81F801808381E001C058
:1023C00080E0DF91CF911F910F9108950F931F939C
:1023D000CF93DF938C01262FEA01FC019081898144
:1023E000981719F581818F30D1F46830F1F4C80164
:1023F00066E070E00E940C0DAC019C013070F801A9
:10240000868190E02817390781F4252F33278781AB
:1024100090E02817390749F4188281E007C0CA0103
:102420006FE0A8010E94B71101C080E0DF91CF9159
:102430001F910F9108950F931F93CF93DF93EC019A
:10244000262F8A019881DA0111968C91981709F04C
:1024500041C089818530C1F56830E1F5CE0166E083
:1024600070E00E940C0DAC019C0130708E8190E0F8
:102470002817390779F5252F33278F8190E0281702
:10248000390741F5F80196818A81882319F58B81F6
:10249000891701F58D818823E9F40480F581E02D09
:1024A000309771F08C818F3F11F481E080838C81B3
:1024B000882331F4D8011496ED91FC911597108280
:1024C000F801108281E007C0CA0165E0AE010E94F8
:1024D000B71101C080E0DF91CF911F910F91089556
:1024E000EF92FF920F931F93CF93DF938C01262FD0
:1024F000EA01FC0190818981981709F044C081812B
:102500008230D9F58F81682F70E0E22EFF24CB0155
:102510000596E816F906B9F56D5F7F4FC8010E9470
:102520000C0DAC019C013070F801EE0DFF1D3297CF
:102530008081329690E02817390729F5252F332717
:102540003197808190E028173907E9F48A819B81CF
:10255000892B81F090E00BC0E92FF0E0AA81BB81CC
:10256000AE0FBF1FE00FF11F83818C939F5F8F81A0
:10257000981790F3188281E007C0CA0162E0A801B1
:102580000E94B71101C080E0DF91CF911F910F91A0
:10259000FF90EF900895EF92FF920F931F938C019D
:1025A0007B01625070400E940C0DF801EE0DFF1D82
:1025B000329781939083C8016E2D0E94CF171F918F
:1025C0000F91FF90EF900895DF93CF93CDB7DEB7D3
:1025D000C450D1400FB6F894DEBF0FBECDBFDC01B2
:1025E000AE014F5F5F4F84E091E0FA019C011192D0
:1025F00021503040E1F71C9211968C9111978983FC
:102600008FE08A831B8214968C9114978C83169684
:102610008C9116978D8315968C9115978E831596B0
:102620002D913C911697C90153E0969587955A953F
:10263000E1F7682F90E043E0880F991F4A95E1F792
:102640008217930708F46F5F6F83AE01485F5F4F97
:1026500020E030E00CC01296ED91FC911397E20F50
:10266000F31F8081FA018193AF012F5F3F4F26173F
:1026700090F370E0675F7F4FCE0101960E94CB120E
:10268000CC5FDE4F0FB6F894DEBF0FBECDBFCF914B
:10269000DF910895DF93CF93CDB7DEB728970FB6BC
:1026A000F894DEBF0FBECDBFDC019E012F5F3F4F10
:1026B00088E0F90111928A95E9F71C9211968C91A4
:1026C0001197898386E08A8313968C9113978B8365
:1026D00012968C9112978C831496ED91FC9115971C
:1026E00081818D831496ED91FC91159780818E8365
:1026F000C90168E070E00E94CB1228960FB6F894EA
:10270000DEBF0FBECDBFCF91DF910895DF93CF9392
:10271000CDB7DEB728970FB6F894DEBF0FBECDBF9A
:10272000FC019E012F5F3F4F88E0D9011D928A95E1
:10273000E9F710828181898385E08A831B82868103
:102740008C830280F381E02D8081882311F08FEF4C
:102750008D83CE01019668E070E00E94CB1228962E
:102760000FB6F894DEBF0FBECDBFCF91DF910895B5
:10277000DF93CF93CDB7DEB728970FB6F894DEBFBF
:102780000FBECDBFDC019E012F5F3F4F88E0F901F6
:1027900011928A95E9F71C9215962D913C91169706
:1027A000C90173E0969587957A95E1F7482F1796BA
:1027B0008C93179790E063E0880F991F6A95E1F773
:1027C0008217930720F44F5F17964C931797119633
:1027D0008C911197898382E08A831B8214968C9155
:1027E00014978C8316968C9116978D8315968C91E1
:1027F0008E83CE01019668E070E00E94CB1228968D
:102800000FB6F894DEBF0FBECDBFCF91DF91089514
:102810008091A403882309F468C18091A3038823CD
:1028200009F463C18091340190913501892B09F03D
:1028300088C08091A5038093A6038091A5038F5F34
:102840008093A5039091A5038091A403981740F06D
:102850001092A5038091650092E08927809365001E
:10286000E091A603F0E0EE0FFF1FEC54FB4F8081D8
:102870009181892B09F439C1E091A603F0E0EE0FB4
:10288000FF1FEC54FB4F0190F081E02D1582E09189
:10289000A603F0E0EE0FFF1FEC54FB4FA081B181C7
:1028A000E091A603F0E0EE0FFF1FEC54FB4F019008
:1028B000F081E02D1B962D913C911C978081918198
:1028C000F9010995E091A603F0E0EE0FFF1FEC542B
:1028D000FB4FA081B181E091A603F0E0EE0FFF1F56
:1028E000EC54FB4F0190F081E02D1F962D913C910F
:1028F000509780819181F9010995E091A603F0E05C
:10290000EE0FFF1FEC54FB4F0190F081E02D828110
:1029100093819093A2038093A103E091A603F0E03A
:10292000EE0FFF1FEC54FB4F0190F081E02D209142
:10293000360182819381820F911D9093350180939E
:1029400034018091A1039091A203892B09F462C004
:102950008091A1039091A2039093A8038093A70371
:10296000E091A603F0E0EE0FFF1FEC54FB4FA081B7
:10297000B1816091B104E091A603F0E0EE0FFF1F7A
:10298000EC54FB4F0190F081E02D40815181519634
:10299000ED91FC9152978091B2049091B304099506
:1029A000882309F4A2C0E091A603F0E0EE0FFF1F18
:1029B000EC54FB4FA081B181E091A603F0E0EE0F53
:1029C000FF1FEC54FB4F0190F081E02D19962D91E3
:1029D0003C911A9780819181F9010995E091A603B4
:1029E000F0E0EE0FFF1FEC54FB4F0190F081E02D63
:1029F0001682E091A603F0E0EE0FFF1FEC54FB4FB0
:102A00000190F081E02D81E085831092A203109265
:102A1000A1030895E091A603F0E0EE0FFF1FEC5430
:102A2000FB4FA081B181E091A603F0E0EE0FFF1F04
:102A3000EC54FB4F0190F081E02D1D962D913C91BF
:102A40001E9780819181F9010995E091A603F0E03C
:102A5000EE0FFF1FEC54FB4F0190F081E02D8581BC
:102A6000882309F042C0E091A603F0E0EE0FFF1FBB
:102A7000EC54FB4F0190F081E02D82E08583E091E2
:102A8000A603F0E0EE0FFF1FEC54FB4F0190F08126
:102A9000E02D8681853070F4E091A603F0E0EE0F22
:102AA000FF1FEC54FB4F0190F081E02D86818F5F7A
:102AB00086830895E091A603F0E0EE0FFF1FEC542B
:102AC000FB4FA081B181E091A603F0E0EE0FFF1F64
:102AD000EC54FB4F0190F081E02D17962D913C9125
:102AE000189780819181F9010995089581E080937B
:102AF000A30308951092A30308958091A30308955A
:102B00001092A30389EA93E09093AF048093AE04FC
:102B10009093B3048093B2041092A40380E090E0F9
:102B2000FC01EE0FFF1FEC54FB4F11821082019647
:102B300082339105A9F70895E091A403F0E0EE0F28
:102B4000FF1FEC54FB4F918380838091A4038F5F20
:102B50008093A4038091A403833310F481E008954B
:102B600082E38093A40380E00895FC011182108227
:102B700084E690E0938382831482168215828BED23
:102B800095E1948783878CED95E19687858788ED1D
:102B900095E1908B878789ED95E1928B818B8DED07
:102BA00095E1908787838EED95E1928781870895DF
:102BB000089581E0089508950895089508951F9255
:102BC0000F920FB60F920BB60F9211248F939F9313
:102BD000EF93FF938091A303882311F41A9820C0E8
:102BE0008091AD048F5F8093AD049091AD0480918E
:102BF000B004981759F08091AD04E091AE04F091C3
:102C0000AF04E80FF11D80818CB90AC01A988AB10F
:102C100080698AB91092B0048091B0048093AD04A9
:102C2000FF91EF919F918F910F900BBE0F900FBE70
:102C30000F901F9018951F920F920FB60F920BB620
:102C40000F9211242F933F934F935F936F937F9332
:102C50008F939F93AF93BF93EF93FF93DF93CF93A4
:102C60000F92CDB7DEB78091A303882331F4E091B2
:102C70000A07F0910B07099513C08CB189838091E5
:102C8000B1048091B104E091B204F091B304E80F73
:102C9000F11D898180838091B1048F5F8093B1049D
:102CA0000F90CF91DF91FF91EF91BF91AF919F91E5
:102CB0008F917F916F915F914F913F912F910F90E5
:102CC0000BBE0F900FBE0F901F9018951F920F9282
:102CD0000FB60F920BB60F9211242F933F934F9381
:102CE0005F936F937F938F939F93AF93BF93EF9374
:102CF000FF938091A303882329F4E0910607F091C4
:102D000007070995FF91EF91BF91AF919F918F9127
:102D10007F916F915F914F913F912F910F900BBEDB
:102D20000F900FBE0F901F901895CF92DF92EF92E9
:102D3000FF920F936B017C018091A303882309F418
:102D400028C11A981BB81AB81092950080E0C816CE
:102D500086E9D80680E0E80680E0F80609F4C7C0F6
:102D600081E0C81686E9D80680E0E80680E0F8062B
:102D700008F047C080E8C81685E2D80680E0E8067B
:102D800080E0F80609F49BC081E8C81685E2D80601
:102D900080E0E80680E0F806A8F480E6C81689E03E
:102DA000D80680E0E80680E0F80609F47BC080ECF5
:102DB000C81682E1D80680E0E80680E0F80609F04F
:102DC000BDC077C080E0C8168BE4D80680E0E80676
:102DD00080E0F80609F47FC080E8C81680E7D806CE
:102DE00080E0E80680E0F80609F47BC080E4C816BD
:102DF00088E3D80680E0E80680E0F80609F09EC087
:102E000064C080E0C81684E8D80683E0E80680E065
:102E1000F80609F48EC081E0C81684E8D80683E07D
:102E2000E80680E0F806F8F480E0C8168CE2D806E0
:102E300081E0E80680E0F80609F465C080E0C81685
:102E400082ECD80681E0E80680E0F80609F461C06B
:102E500080E0C81681EED80680E0E80680E0F8063B
:102E600009F06CC04AC080E2C81681EAD80687E043
:102E7000E80680E0F80609F452C080E4C81682E44F
:102E8000D8068FE0E80680E0F80609F44EC080E935
:102E9000C81680EDD80683E0E80680E0F80609F061
:102EA0004DC047C0E0EACE2EE1E0DE2EE12CF12C51
:102EB00045C07FECC72ED12CE12CF12C3FC067E63A
:102EC000C62ED12CE12CF12C39C054E4C52ED12CC6
:102ED000E12CF12C33C033E3C32ED12CE12CF12CA7
:102EE0002DC092E2C92ED12CE12CF12C27C089E112
:102EF000C82ED12CE12CF12C21C0B0E1CB2ED12C4D
:102F0000E12CF12C1BC0ACE0CA2ED12CE12CF12C11
:102F100015C0F8E0CF2ED12CE12CF12C0FC0E1E050
:102F2000CE2ED12CE12CF12C09C0CC24DD2476014D
:102F300005C073E0C72ED12CE12CF12CBB27AF2D9F
:102F40009E2D8D2D80939000C9B8473031F04830C8
:102F500049F480919500866003C08091950084605B
:102F600080939500223029F48091950088608093A9
:102F70009500013019F0023051F404C080919500A1
:102F8000806303C08091950080628093950088E4FF
:102F90008AB90F91FF90EF90DF90CF9008951F9323
:102FA000282F792F162F8091AE049091AF04622FB5
:102FB000412F50E00E9435181093B0041092AD04D8
:102FC0008091AD048093B1048AB18F768AB91A9A40
:102FD0008091AD04E091AE04F091AF04E80FF11DD3
:102FE00080818CB91F910895629FD001739FF00179
:102FF000829FE00DF11D649FE00DF11D929FF00D89
:10300000839FF00D749FF00D659FF00D9927729FBF
:10301000B00DE11DF91F639FB00DE11DF91FBD014A
:10302000CF0111240895A1E21A2EAA1BBB1BFD019A
:103030000DC0AA1FBB1FEE1FFF1FA217B307E40797
:10304000F50720F0A21BB30BE40BF50B661F771FEF
:10305000881F991F1A9469F76095709580959095CF
:103060009B01AC01BD01CF010895FB01DC0102C051
:1030700001900D9241505040D8F70895F894FFCF39
:10308000AABBCC0211500C04040C03640B10AC0B53
:1030900006E40B17D60A01270A05EA090FA609025A
:1030A0007F0A000000000000000000000000000097
:0830B000000000000500020011
:00000001FF
